{
	"contracts/5_ContratVente.sol": {
		"ContratVente": {
			"abi": [
				{
					"inputs": [
						{
							"internalType": "uint256",
							"name": "_prix",
							"type": "uint256"
						}
					],
					"stateMutability": "nonpayable",
					"type": "constructor"
				},
				{
					"inputs": [],
					"name": "acheter",
					"outputs": [],
					"stateMutability": "payable",
					"type": "function"
				},
				{
					"inputs": [],
					"name": "acheteur",
					"outputs": [
						{
							"internalType": "address",
							"name": "",
							"type": "address"
						}
					],
					"stateMutability": "view",
					"type": "function"
				},
				{
					"inputs": [],
					"name": "confirmerLivraison",
					"outputs": [],
					"stateMutability": "nonpayable",
					"type": "function"
				},
				{
					"inputs": [],
					"name": "etat",
					"outputs": [
						{
							"internalType": "enum ContratVente.EtatVente",
							"name": "",
							"type": "uint8"
						}
					],
					"stateMutability": "view",
					"type": "function"
				},
				{
					"inputs": [],
					"name": "getEtat",
					"outputs": [
						{
							"internalType": "enum ContratVente.EtatVente",
							"name": "",
							"type": "uint8"
						}
					],
					"stateMutability": "view",
					"type": "function"
				},
				{
					"inputs": [],
					"name": "prix",
					"outputs": [
						{
							"internalType": "uint256",
							"name": "",
							"type": "uint256"
						}
					],
					"stateMutability": "view",
					"type": "function"
				},
				{
					"inputs": [],
					"name": "rembourserAcheteur",
					"outputs": [],
					"stateMutability": "nonpayable",
					"type": "function"
				},
				{
					"inputs": [],
					"name": "vendeur",
					"outputs": [
						{
							"internalType": "address payable",
							"name": "",
							"type": "address"
						}
					],
					"stateMutability": "view",
					"type": "function"
				}
			],
			"devdoc": {
				"kind": "dev",
				"methods": {},
				"version": 1
			},
			"evm": {
				"assembly": "    /* \"contracts/5_ContratVente.sol\":74:1405  contract ContratVente {... */\n  mstore(0x40, 0x80)\n    /* \"contracts/5_ContratVente.sol\":284:420  constructor(uint256 _prix) {... */\n  callvalue\n  dup1\n  iszero\n  tag_1\n  jumpi\n  0x00\n  dup1\n  revert\ntag_1:\n  pop\n  mload(0x40)\n  sub(codesize, bytecodeSize)\n  dup1\n  bytecodeSize\n  dup4\n  codecopy\n  dup2\n  dup2\n  add\n  0x40\n  mstore\n  dup2\n  add\n  swap1\n  tag_2\n  swap2\n  swap1\n  tag_3\n  jump\t// in\ntag_2:\n    /* \"contracts/5_ContratVente.sol\":340:350  msg.sender */\n  caller\n    /* \"contracts/5_ContratVente.sol\":322:329  vendeur */\n  0x00\n  dup1\n    /* \"contracts/5_ContratVente.sol\":322:351  vendeur = payable(msg.sender) */\n  0x0100\n  exp\n  dup2\n  sload\n  dup2\n  0xffffffffffffffffffffffffffffffffffffffff\n  mul\n  not\n  and\n  swap1\n  dup4\n  0xffffffffffffffffffffffffffffffffffffffff\n  and\n  mul\n  or\n  swap1\n  sstore\n  pop\n    /* \"contracts/5_ContratVente.sol\":369:374  _prix */\n  dup1\n    /* \"contracts/5_ContratVente.sol\":362:366  prix */\n  0x02\n    /* \"contracts/5_ContratVente.sol\":362:374  prix = _prix */\n  dup2\n  swap1\n  sstore\n  pop\n    /* \"contracts/5_ContratVente.sol\":392:412  EtatVente.Disponible */\n  0x00\n    /* \"contracts/5_ContratVente.sol\":385:389  etat */\n  0x03\n  0x00\n    /* \"contracts/5_ContratVente.sol\":385:412  etat = EtatVente.Disponible */\n  0x0100\n  exp\n  dup2\n  sload\n  dup2\n  0xff\n  mul\n  not\n  and\n  swap1\n  dup4\n  0x02\n  dup2\n  gt\n  iszero\n  tag_6\n  jumpi\n  tag_7\n  tag_8\n  jump\t// in\ntag_7:\ntag_6:\n  mul\n  or\n  swap1\n  sstore\n  pop\n    /* \"contracts/5_ContratVente.sol\":284:420  constructor(uint256 _prix) {... */\n  pop\n    /* \"contracts/5_ContratVente.sol\":74:1405  contract ContratVente {... */\n  jump(tag_9)\n    /* \"#utility.yul\":88:205   */\ntag_11:\n    /* \"#utility.yul\":197:198   */\n  0x00\n    /* \"#utility.yul\":194:195   */\n  dup1\n    /* \"#utility.yul\":187:199   */\n  revert\n    /* \"#utility.yul\":334:411   */\ntag_13:\n    /* \"#utility.yul\":371:378   */\n  0x00\n    /* \"#utility.yul\":400:405   */\n  dup2\n    /* \"#utility.yul\":389:405   */\n  swap1\n  pop\n    /* \"#utility.yul\":334:411   */\n  swap2\n  swap1\n  pop\n  jump\t// out\n    /* \"#utility.yul\":417:539   */\ntag_14:\n    /* \"#utility.yul\":490:514   */\n  tag_22\n    /* \"#utility.yul\":508:513   */\n  dup2\n    /* \"#utility.yul\":490:514   */\n  tag_13\n  jump\t// in\ntag_22:\n    /* \"#utility.yul\":483:488   */\n  dup2\n    /* \"#utility.yul\":480:515   */\n  eq\n    /* \"#utility.yul\":470:533   */\n  tag_23\n  jumpi\n    /* \"#utility.yul\":529:530   */\n  0x00\n    /* \"#utility.yul\":526:527   */\n  dup1\n    /* \"#utility.yul\":519:531   */\n  revert\n    /* \"#utility.yul\":470:533   */\ntag_23:\n    /* \"#utility.yul\":417:539   */\n  pop\n  jump\t// out\n    /* \"#utility.yul\":545:688   */\ntag_15:\n    /* \"#utility.yul\":602:607   */\n  0x00\n    /* \"#utility.yul\":633:639   */\n  dup2\n    /* \"#utility.yul\":627:640   */\n  mload\n    /* \"#utility.yul\":618:640   */\n  swap1\n  pop\n    /* \"#utility.yul\":649:682   */\n  tag_25\n    /* \"#utility.yul\":676:681   */\n  dup2\n    /* \"#utility.yul\":649:682   */\n  tag_14\n  jump\t// in\ntag_25:\n    /* \"#utility.yul\":545:688   */\n  swap3\n  swap2\n  pop\n  pop\n  jump\t// out\n    /* \"#utility.yul\":694:1045   */\ntag_3:\n    /* \"#utility.yul\":764:770   */\n  0x00\n    /* \"#utility.yul\":813:815   */\n  0x20\n    /* \"#utility.yul\":801:810   */\n  dup3\n    /* \"#utility.yul\":792:799   */\n  dup5\n    /* \"#utility.yul\":788:811   */\n  sub\n    /* \"#utility.yul\":784:816   */\n  slt\n    /* \"#utility.yul\":781:900   */\n  iszero\n  tag_27\n  jumpi\n    /* \"#utility.yul\":819:898   */\n  tag_28\n  tag_11\n  jump\t// in\ntag_28:\n    /* \"#utility.yul\":781:900   */\ntag_27:\n    /* \"#utility.yul\":939:940   */\n  0x00\n    /* \"#utility.yul\":964:1028   */\n  tag_29\n    /* \"#utility.yul\":1020:1027   */\n  dup5\n    /* \"#utility.yul\":1011:1017   */\n  dup3\n    /* \"#utility.yul\":1000:1009   */\n  dup6\n    /* \"#utility.yul\":996:1018   */\n  add\n    /* \"#utility.yul\":964:1028   */\n  tag_15\n  jump\t// in\ntag_29:\n    /* \"#utility.yul\":954:1028   */\n  swap2\n  pop\n    /* \"#utility.yul\":910:1038   */\n  pop\n    /* \"#utility.yul\":694:1045   */\n  swap3\n  swap2\n  pop\n  pop\n  jump\t// out\n    /* \"#utility.yul\":1051:1231   */\ntag_8:\n    /* \"#utility.yul\":1099:1176   */\n  0x4e487b7100000000000000000000000000000000000000000000000000000000\n    /* \"#utility.yul\":1096:1097   */\n  0x00\n    /* \"#utility.yul\":1089:1177   */\n  mstore\n    /* \"#utility.yul\":1196:1200   */\n  0x21\n    /* \"#utility.yul\":1193:1194   */\n  0x04\n    /* \"#utility.yul\":1186:1201   */\n  mstore\n    /* \"#utility.yul\":1220:1224   */\n  0x24\n    /* \"#utility.yul\":1217:1218   */\n  0x00\n    /* \"#utility.yul\":1210:1225   */\n  revert\n    /* \"contracts/5_ContratVente.sol\":74:1405  contract ContratVente {... */\ntag_9:\n  dataSize(sub_0)\n  dup1\n  dataOffset(sub_0)\n  0x00\n  codecopy\n  0x00\n  return\nstop\n\nsub_0: assembly {\n        /* \"contracts/5_ContratVente.sol\":74:1405  contract ContratVente {... */\n      mstore(0x40, 0x80)\n      jumpi(tag_1, lt(calldatasize, 0x04))\n      shr(0xe0, calldataload(0x00))\n      dup1\n      0xa2287c86\n      gt\n      tag_10\n      jumpi\n      dup1\n      0xa2287c86\n      eq\n      tag_6\n      jumpi\n      dup1\n      0xc28fda30\n      eq\n      tag_7\n      jumpi\n      dup1\n      0xc65e9c79\n      eq\n      tag_8\n      jumpi\n      dup1\n      0xc6aa7d5e\n      eq\n      tag_9\n      jumpi\n      jump(tag_1)\n    tag_10:\n      dup1\n      0x0d4faa05\n      eq\n      tag_2\n      jumpi\n      dup1\n      0x6d717513\n      eq\n      tag_3\n      jumpi\n      dup1\n      0x6dc0e91c\n      eq\n      tag_4\n      jumpi\n      dup1\n      0x9a2caedc\n      eq\n      tag_5\n      jumpi\n    tag_1:\n      0x00\n      dup1\n      revert\n        /* \"contracts/5_ContratVente.sol\":432:680  function acheter() public payable {... */\n    tag_2:\n      tag_11\n      tag_12\n      jump\t// in\n    tag_11:\n      stop\n        /* \"contracts/5_ContratVente.sol\":1321:1402  function getEtat() public view returns (EtatVente) {... */\n    tag_3:\n      callvalue\n      dup1\n      iszero\n      tag_13\n      jumpi\n      0x00\n      dup1\n      revert\n    tag_13:\n      pop\n      tag_14\n      tag_15\n      jump\t// in\n    tag_14:\n      mload(0x40)\n      tag_16\n      swap2\n      swap1\n      tag_17\n      jump\t// in\n    tag_16:\n      mload(0x40)\n      dup1\n      swap2\n      sub\n      swap1\n      return\n        /* \"contracts/5_ContratVente.sol\":692:980  function confirmerLivraison() public {... */\n    tag_4:\n      callvalue\n      dup1\n      iszero\n      tag_18\n      jumpi\n      0x00\n      dup1\n      revert\n    tag_18:\n      pop\n      tag_19\n      tag_20\n      jump\t// in\n    tag_19:\n      stop\n        /* \"contracts/5_ContratVente.sol\":103:133  address payable public vendeur */\n    tag_5:\n      callvalue\n      dup1\n      iszero\n      tag_21\n      jumpi\n      0x00\n      dup1\n      revert\n    tag_21:\n      pop\n      tag_22\n      tag_23\n      jump\t// in\n    tag_22:\n      mload(0x40)\n      tag_24\n      swap2\n      swap1\n      tag_25\n      jump\t// in\n    tag_24:\n      mload(0x40)\n      dup1\n      swap2\n      sub\n      swap1\n      return\n        /* \"contracts/5_ContratVente.sol\":250:271  EtatVente public etat */\n    tag_6:\n      callvalue\n      dup1\n      iszero\n      tag_26\n      jumpi\n      0x00\n      dup1\n      revert\n    tag_26:\n      pop\n      tag_27\n      tag_28\n      jump\t// in\n    tag_27:\n      mload(0x40)\n      tag_29\n      swap2\n      swap1\n      tag_17\n      jump\t// in\n    tag_29:\n      mload(0x40)\n      dup1\n      swap2\n      sub\n      swap1\n      return\n        /* \"contracts/5_ContratVente.sol\":140:163  address public acheteur */\n    tag_7:\n      callvalue\n      dup1\n      iszero\n      tag_30\n      jumpi\n      0x00\n      dup1\n      revert\n    tag_30:\n      pop\n      tag_31\n      tag_32\n      jump\t// in\n    tag_31:\n      mload(0x40)\n      tag_33\n      swap2\n      swap1\n      tag_34\n      jump\t// in\n    tag_33:\n      mload(0x40)\n      dup1\n      swap2\n      sub\n      swap1\n      return\n        /* \"contracts/5_ContratVente.sol\":170:189  uint256 public prix */\n    tag_8:\n      callvalue\n      dup1\n      iszero\n      tag_35\n      jumpi\n      0x00\n      dup1\n      revert\n    tag_35:\n      pop\n      tag_36\n      tag_37\n      jump\t// in\n    tag_36:\n      mload(0x40)\n      tag_38\n      swap2\n      swap1\n      tag_39\n      jump\t// in\n    tag_38:\n      mload(0x40)\n      dup1\n      swap2\n      sub\n      swap1\n      return\n        /* \"contracts/5_ContratVente.sol\":992:1309  function rembourserAcheteur() public {... */\n    tag_9:\n      callvalue\n      dup1\n      iszero\n      tag_40\n      jumpi\n      0x00\n      dup1\n      revert\n    tag_40:\n      pop\n      tag_41\n      tag_42\n      jump\t// in\n    tag_41:\n      stop\n        /* \"contracts/5_ContratVente.sol\":432:680  function acheter() public payable {... */\n    tag_12:\n        /* \"contracts/5_ContratVente.sol\":493:513  EtatVente.Disponible */\n      0x00\n        /* \"contracts/5_ContratVente.sol\":485:513  etat == EtatVente.Disponible */\n      0x02\n      dup2\n      gt\n      iszero\n      tag_44\n      jumpi\n      tag_45\n      tag_46\n      jump\t// in\n    tag_45:\n    tag_44:\n        /* \"contracts/5_ContratVente.sol\":485:489  etat */\n      0x03\n      0x00\n      swap1\n      sload\n      swap1\n      0x0100\n      exp\n      swap1\n      div\n      0xff\n      and\n        /* \"contracts/5_ContratVente.sol\":485:513  etat == EtatVente.Disponible */\n      0x02\n      dup2\n      gt\n      iszero\n      tag_47\n      jumpi\n      tag_48\n      tag_46\n      jump\t// in\n    tag_48:\n    tag_47:\n      eq\n        /* \"contracts/5_ContratVente.sol\":477:540  require(etat == EtatVente.Disponible, \"Article non disponible\") */\n      tag_49\n      jumpi\n      mload(0x40)\n      0x08c379a000000000000000000000000000000000000000000000000000000000\n      dup2\n      mstore\n      0x04\n      add\n      tag_50\n      swap1\n      tag_51\n      jump\t// in\n    tag_50:\n      mload(0x40)\n      dup1\n      swap2\n      sub\n      swap1\n      revert\n    tag_49:\n        /* \"contracts/5_ContratVente.sol\":572:576  prix */\n      sload(0x02)\n        /* \"contracts/5_ContratVente.sol\":559:568  msg.value */\n      callvalue\n        /* \"contracts/5_ContratVente.sol\":559:576  msg.value == prix */\n      eq\n        /* \"contracts/5_ContratVente.sol\":551:598  require(msg.value == prix, \"Montant incorrect\") */\n      tag_52\n      jumpi\n      mload(0x40)\n      0x08c379a000000000000000000000000000000000000000000000000000000000\n      dup2\n      mstore\n      0x04\n      add\n      tag_53\n      swap1\n      tag_54\n      jump\t// in\n    tag_53:\n      mload(0x40)\n      dup1\n      swap2\n      sub\n      swap1\n      revert\n    tag_52:\n        /* \"contracts/5_ContratVente.sol\":630:640  msg.sender */\n      caller\n        /* \"contracts/5_ContratVente.sol\":619:627  acheteur */\n      0x01\n      0x00\n        /* \"contracts/5_ContratVente.sol\":619:640  acheteur = msg.sender */\n      0x0100\n      exp\n      dup2\n      sload\n      dup2\n      0xffffffffffffffffffffffffffffffffffffffff\n      mul\n      not\n      and\n      swap1\n      dup4\n      0xffffffffffffffffffffffffffffffffffffffff\n      and\n      mul\n      or\n      swap1\n      sstore\n      pop\n        /* \"contracts/5_ContratVente.sol\":658:672  EtatVente.Paye */\n      0x01\n        /* \"contracts/5_ContratVente.sol\":651:655  etat */\n      0x03\n      0x00\n        /* \"contracts/5_ContratVente.sol\":651:672  etat = EtatVente.Paye */\n      0x0100\n      exp\n      dup2\n      sload\n      dup2\n      0xff\n      mul\n      not\n      and\n      swap1\n      dup4\n      0x02\n      dup2\n      gt\n      iszero\n      tag_55\n      jumpi\n      tag_56\n      tag_46\n      jump\t// in\n    tag_56:\n    tag_55:\n      mul\n      or\n      swap1\n      sstore\n      pop\n        /* \"contracts/5_ContratVente.sol\":432:680  function acheter() public payable {... */\n      jump\t// out\n        /* \"contracts/5_ContratVente.sol\":1321:1402  function getEtat() public view returns (EtatVente) {... */\n    tag_15:\n        /* \"contracts/5_ContratVente.sol\":1361:1370  EtatVente */\n      0x00\n        /* \"contracts/5_ContratVente.sol\":1390:1394  etat */\n      0x03\n      0x00\n      swap1\n      sload\n      swap1\n      0x0100\n      exp\n      swap1\n      div\n      0xff\n      and\n        /* \"contracts/5_ContratVente.sol\":1383:1394  return etat */\n      swap1\n      pop\n        /* \"contracts/5_ContratVente.sol\":1321:1402  function getEtat() public view returns (EtatVente) {... */\n      swap1\n      jump\t// out\n        /* \"contracts/5_ContratVente.sol\":692:980  function confirmerLivraison() public {... */\n    tag_20:\n        /* \"contracts/5_ContratVente.sol\":762:769  vendeur */\n      0x00\n      dup1\n      sload\n      swap1\n      0x0100\n      exp\n      swap1\n      div\n      0xffffffffffffffffffffffffffffffffffffffff\n      and\n        /* \"contracts/5_ContratVente.sol\":748:769  msg.sender == vendeur */\n      0xffffffffffffffffffffffffffffffffffffffff\n      and\n        /* \"contracts/5_ContratVente.sol\":748:758  msg.sender */\n      caller\n        /* \"contracts/5_ContratVente.sol\":748:769  msg.sender == vendeur */\n      0xffffffffffffffffffffffffffffffffffffffff\n      and\n      eq\n        /* \"contracts/5_ContratVente.sol\":740:817  require(msg.sender == vendeur, \"Seul le vendeur peut confirmer la livraison\") */\n      tag_59\n      jumpi\n      mload(0x40)\n      0x08c379a000000000000000000000000000000000000000000000000000000000\n      dup2\n      mstore\n      0x04\n      add\n      tag_60\n      swap1\n      tag_61\n      jump\t// in\n    tag_60:\n      mload(0x40)\n      dup1\n      swap2\n      sub\n      swap1\n      revert\n    tag_59:\n        /* \"contracts/5_ContratVente.sol\":844:858  EtatVente.Paye */\n      0x01\n        /* \"contracts/5_ContratVente.sol\":836:858  etat == EtatVente.Paye */\n      0x02\n      dup2\n      gt\n      iszero\n      tag_62\n      jumpi\n      tag_63\n      tag_46\n      jump\t// in\n    tag_63:\n    tag_62:\n        /* \"contracts/5_ContratVente.sol\":836:840  etat */\n      0x03\n      0x00\n      swap1\n      sload\n      swap1\n      0x0100\n      exp\n      swap1\n      div\n      0xff\n      and\n        /* \"contracts/5_ContratVente.sol\":836:858  etat == EtatVente.Paye */\n      0x02\n      dup2\n      gt\n      iszero\n      tag_64\n      jumpi\n      tag_65\n      tag_46\n      jump\t// in\n    tag_65:\n    tag_64:\n      eq\n        /* \"contracts/5_ContratVente.sol\":828:896  require(etat == EtatVente.Paye, \"L'article n'a pas encore ete paye\") */\n      tag_66\n      jumpi\n      mload(0x40)\n      0x08c379a000000000000000000000000000000000000000000000000000000000\n      dup2\n      mstore\n      0x04\n      add\n      tag_67\n      swap1\n      tag_68\n      jump\t// in\n    tag_67:\n      mload(0x40)\n      dup1\n      swap2\n      sub\n      swap1\n      revert\n    tag_66:\n        /* \"contracts/5_ContratVente.sol\":924:939  EtatVente.Livre */\n      0x02\n        /* \"contracts/5_ContratVente.sol\":917:921  etat */\n      0x03\n      0x00\n        /* \"contracts/5_ContratVente.sol\":917:939  etat = EtatVente.Livre */\n      0x0100\n      exp\n      dup2\n      sload\n      dup2\n      0xff\n      mul\n      not\n      and\n      swap1\n      dup4\n      0x02\n      dup2\n      gt\n      iszero\n      tag_69\n      jumpi\n      tag_70\n      tag_46\n      jump\t// in\n    tag_70:\n    tag_69:\n      mul\n      or\n      swap1\n      sstore\n      pop\n        /* \"contracts/5_ContratVente.sol\":950:957  vendeur */\n      0x00\n      dup1\n      sload\n      swap1\n      0x0100\n      exp\n      swap1\n      div\n      0xffffffffffffffffffffffffffffffffffffffff\n      and\n        /* \"contracts/5_ContratVente.sol\":950:966  vendeur.transfer */\n      0xffffffffffffffffffffffffffffffffffffffff\n      and\n        /* \"contracts/5_ContratVente.sol\":950:972  vendeur.transfer(prix) */\n      0x08fc\n        /* \"contracts/5_ContratVente.sol\":967:971  prix */\n      sload(0x02)\n        /* \"contracts/5_ContratVente.sol\":950:972  vendeur.transfer(prix) */\n      swap1\n      dup2\n      iszero\n      mul\n      swap1\n      mload(0x40)\n      0x00\n      mload(0x40)\n      dup1\n      dup4\n      sub\n      dup2\n      dup6\n      dup9\n      dup9\n      call\n      swap4\n      pop\n      pop\n      pop\n      pop\n      iszero\n      dup1\n      iszero\n      tag_72\n      jumpi\n      returndatasize\n      0x00\n      dup1\n      returndatacopy\n      revert(0x00, returndatasize)\n    tag_72:\n      pop\n        /* \"contracts/5_ContratVente.sol\":692:980  function confirmerLivraison() public {... */\n      jump\t// out\n        /* \"contracts/5_ContratVente.sol\":103:133  address payable public vendeur */\n    tag_23:\n      0x00\n      dup1\n      sload\n      swap1\n      0x0100\n      exp\n      swap1\n      div\n      0xffffffffffffffffffffffffffffffffffffffff\n      and\n      dup2\n      jump\t// out\n        /* \"contracts/5_ContratVente.sol\":250:271  EtatVente public etat */\n    tag_28:\n      0x03\n      0x00\n      swap1\n      sload\n      swap1\n      0x0100\n      exp\n      swap1\n      div\n      0xff\n      and\n      dup2\n      jump\t// out\n        /* \"contracts/5_ContratVente.sol\":140:163  address public acheteur */\n    tag_32:\n      0x01\n      0x00\n      swap1\n      sload\n      swap1\n      0x0100\n      exp\n      swap1\n      div\n      0xffffffffffffffffffffffffffffffffffffffff\n      and\n      dup2\n      jump\t// out\n        /* \"contracts/5_ContratVente.sol\":170:189  uint256 public prix */\n    tag_37:\n      sload(0x02)\n      dup2\n      jump\t// out\n        /* \"contracts/5_ContratVente.sol\":992:1309  function rembourserAcheteur() public {... */\n    tag_42:\n        /* \"contracts/5_ContratVente.sol\":1062:1069  vendeur */\n      0x00\n      dup1\n      sload\n      swap1\n      0x0100\n      exp\n      swap1\n      div\n      0xffffffffffffffffffffffffffffffffffffffff\n      and\n        /* \"contracts/5_ContratVente.sol\":1048:1069  msg.sender == vendeur */\n      0xffffffffffffffffffffffffffffffffffffffff\n      and\n        /* \"contracts/5_ContratVente.sol\":1048:1058  msg.sender */\n      caller\n        /* \"contracts/5_ContratVente.sol\":1048:1069  msg.sender == vendeur */\n      0xffffffffffffffffffffffffffffffffffffffff\n      and\n      eq\n        /* \"contracts/5_ContratVente.sol\":1040:1105  require(msg.sender == vendeur, \"Seul le vendeur peut rembourser\") */\n      tag_74\n      jumpi\n      mload(0x40)\n      0x08c379a000000000000000000000000000000000000000000000000000000000\n      dup2\n      mstore\n      0x04\n      add\n      tag_75\n      swap1\n      tag_76\n      jump\t// in\n    tag_75:\n      mload(0x40)\n      dup1\n      swap2\n      sub\n      swap1\n      revert\n    tag_74:\n        /* \"contracts/5_ContratVente.sol\":1132:1146  EtatVente.Paye */\n      0x01\n        /* \"contracts/5_ContratVente.sol\":1124:1146  etat == EtatVente.Paye */\n      0x02\n      dup2\n      gt\n      iszero\n      tag_77\n      jumpi\n      tag_78\n      tag_46\n      jump\t// in\n    tag_78:\n    tag_77:\n        /* \"contracts/5_ContratVente.sol\":1124:1128  etat */\n      0x03\n      0x00\n      swap1\n      sload\n      swap1\n      0x0100\n      exp\n      swap1\n      div\n      0xff\n      and\n        /* \"contracts/5_ContratVente.sol\":1124:1146  etat == EtatVente.Paye */\n      0x02\n      dup2\n      gt\n      iszero\n      tag_79\n      jumpi\n      tag_80\n      tag_46\n      jump\t// in\n    tag_80:\n    tag_79:\n      eq\n        /* \"contracts/5_ContratVente.sol\":1116:1178  require(etat == EtatVente.Paye, \"Aucun paiement a rembourser\") */\n      tag_81\n      jumpi\n      mload(0x40)\n      0x08c379a000000000000000000000000000000000000000000000000000000000\n      dup2\n      mstore\n      0x04\n      add\n      tag_82\n      swap1\n      tag_83\n      jump\t// in\n    tag_82:\n      mload(0x40)\n      dup1\n      swap2\n      sub\n      swap1\n      revert\n    tag_81:\n        /* \"contracts/5_ContratVente.sol\":1207:1215  acheteur */\n      0x01\n      0x00\n      swap1\n      sload\n      swap1\n      0x0100\n      exp\n      swap1\n      div\n      0xffffffffffffffffffffffffffffffffffffffff\n      and\n        /* \"contracts/5_ContratVente.sol\":1199:1225  payable(acheteur).transfer */\n      0xffffffffffffffffffffffffffffffffffffffff\n      and\n        /* \"contracts/5_ContratVente.sol\":1199:1231  payable(acheteur).transfer(prix) */\n      0x08fc\n        /* \"contracts/5_ContratVente.sol\":1226:1230  prix */\n      sload(0x02)\n        /* \"contracts/5_ContratVente.sol\":1199:1231  payable(acheteur).transfer(prix) */\n      swap1\n      dup2\n      iszero\n      mul\n      swap1\n      mload(0x40)\n      0x00\n      mload(0x40)\n      dup1\n      dup4\n      sub\n      dup2\n      dup6\n      dup9\n      dup9\n      call\n      swap4\n      pop\n      pop\n      pop\n      pop\n      iszero\n      dup1\n      iszero\n      tag_85\n      jumpi\n      returndatasize\n      0x00\n      dup1\n      returndatacopy\n      revert(0x00, returndatasize)\n    tag_85:\n      pop\n        /* \"contracts/5_ContratVente.sol\":1261:1262  0 */\n      0x00\n        /* \"contracts/5_ContratVente.sol\":1242:1250  acheteur */\n      0x01\n      0x00\n        /* \"contracts/5_ContratVente.sol\":1242:1263  acheteur = address(0) */\n      0x0100\n      exp\n      dup2\n      sload\n      dup2\n      0xffffffffffffffffffffffffffffffffffffffff\n      mul\n      not\n      and\n      swap1\n      dup4\n      0xffffffffffffffffffffffffffffffffffffffff\n      and\n      mul\n      or\n      swap1\n      sstore\n      pop\n        /* \"contracts/5_ContratVente.sol\":1281:1301  EtatVente.Disponible */\n      0x00\n        /* \"contracts/5_ContratVente.sol\":1274:1278  etat */\n      0x03\n      0x00\n        /* \"contracts/5_ContratVente.sol\":1274:1301  etat = EtatVente.Disponible */\n      0x0100\n      exp\n      dup2\n      sload\n      dup2\n      0xff\n      mul\n      not\n      and\n      swap1\n      dup4\n      0x02\n      dup2\n      gt\n      iszero\n      tag_86\n      jumpi\n      tag_87\n      tag_46\n      jump\t// in\n    tag_87:\n    tag_86:\n      mul\n      or\n      swap1\n      sstore\n      pop\n        /* \"contracts/5_ContratVente.sol\":992:1309  function rembourserAcheteur() public {... */\n      jump\t// out\n        /* \"#utility.yul\":7:187   */\n    tag_46:\n        /* \"#utility.yul\":55:132   */\n      0x4e487b7100000000000000000000000000000000000000000000000000000000\n        /* \"#utility.yul\":52:53   */\n      0x00\n        /* \"#utility.yul\":45:133   */\n      mstore\n        /* \"#utility.yul\":152:156   */\n      0x21\n        /* \"#utility.yul\":149:150   */\n      0x04\n        /* \"#utility.yul\":142:157   */\n      mstore\n        /* \"#utility.yul\":176:180   */\n      0x24\n        /* \"#utility.yul\":173:174   */\n      0x00\n        /* \"#utility.yul\":166:181   */\n      revert\n        /* \"#utility.yul\":193:310   */\n    tag_88:\n        /* \"#utility.yul\":278:279   */\n      0x03\n        /* \"#utility.yul\":271:276   */\n      dup2\n        /* \"#utility.yul\":268:280   */\n      lt\n        /* \"#utility.yul\":258:304   */\n      tag_115\n      jumpi\n        /* \"#utility.yul\":284:302   */\n      tag_116\n      tag_46\n      jump\t// in\n    tag_116:\n        /* \"#utility.yul\":258:304   */\n    tag_115:\n        /* \"#utility.yul\":193:310   */\n      pop\n      jump\t// out\n        /* \"#utility.yul\":316:451   */\n    tag_89:\n        /* \"#utility.yul\":365:372   */\n      0x00\n        /* \"#utility.yul\":394:399   */\n      dup2\n        /* \"#utility.yul\":383:399   */\n      swap1\n      pop\n        /* \"#utility.yul\":400:445   */\n      tag_118\n        /* \"#utility.yul\":439:444   */\n      dup3\n        /* \"#utility.yul\":400:445   */\n      tag_88\n      jump\t// in\n    tag_118:\n        /* \"#utility.yul\":316:451   */\n      swap2\n      swap1\n      pop\n      jump\t// out\n        /* \"#utility.yul\":457:592   */\n    tag_90:\n        /* \"#utility.yul\":517:526   */\n      0x00\n        /* \"#utility.yul\":550:586   */\n      tag_120\n        /* \"#utility.yul\":580:585   */\n      dup3\n        /* \"#utility.yul\":550:586   */\n      tag_89\n      jump\t// in\n    tag_120:\n        /* \"#utility.yul\":537:586   */\n      swap1\n      pop\n        /* \"#utility.yul\":457:592   */\n      swap2\n      swap1\n      pop\n      jump\t// out\n        /* \"#utility.yul\":598:749   */\n    tag_91:\n        /* \"#utility.yul\":695:742   */\n      tag_122\n        /* \"#utility.yul\":736:741   */\n      dup2\n        /* \"#utility.yul\":695:742   */\n      tag_90\n      jump\t// in\n    tag_122:\n        /* \"#utility.yul\":690:693   */\n      dup3\n        /* \"#utility.yul\":683:743   */\n      mstore\n        /* \"#utility.yul\":598:749   */\n      pop\n      pop\n      jump\t// out\n        /* \"#utility.yul\":755:997   */\n    tag_17:\n        /* \"#utility.yul\":858:862   */\n      0x00\n        /* \"#utility.yul\":896:898   */\n      0x20\n        /* \"#utility.yul\":885:894   */\n      dup3\n        /* \"#utility.yul\":881:899   */\n      add\n        /* \"#utility.yul\":873:899   */\n      swap1\n      pop\n        /* \"#utility.yul\":909:990   */\n      tag_124\n        /* \"#utility.yul\":987:988   */\n      0x00\n        /* \"#utility.yul\":976:985   */\n      dup4\n        /* \"#utility.yul\":972:989   */\n      add\n        /* \"#utility.yul\":963:969   */\n      dup5\n        /* \"#utility.yul\":909:990   */\n      tag_91\n      jump\t// in\n    tag_124:\n        /* \"#utility.yul\":755:997   */\n      swap3\n      swap2\n      pop\n      pop\n      jump\t// out\n        /* \"#utility.yul\":1003:1129   */\n    tag_92:\n        /* \"#utility.yul\":1040:1047   */\n      0x00\n        /* \"#utility.yul\":1080:1122   */\n      0xffffffffffffffffffffffffffffffffffffffff\n        /* \"#utility.yul\":1073:1078   */\n      dup3\n        /* \"#utility.yul\":1069:1123   */\n      and\n        /* \"#utility.yul\":1058:1123   */\n      swap1\n      pop\n        /* \"#utility.yul\":1003:1129   */\n      swap2\n      swap1\n      pop\n      jump\t// out\n        /* \"#utility.yul\":1135:1239   */\n    tag_93:\n        /* \"#utility.yul\":1180:1187   */\n      0x00\n        /* \"#utility.yul\":1209:1233   */\n      tag_127\n        /* \"#utility.yul\":1227:1232   */\n      dup3\n        /* \"#utility.yul\":1209:1233   */\n      tag_92\n      jump\t// in\n    tag_127:\n        /* \"#utility.yul\":1198:1233   */\n      swap1\n      pop\n        /* \"#utility.yul\":1135:1239   */\n      swap2\n      swap1\n      pop\n      jump\t// out\n        /* \"#utility.yul\":1245:1387   */\n    tag_94:\n        /* \"#utility.yul\":1348:1380   */\n      tag_129\n        /* \"#utility.yul\":1374:1379   */\n      dup2\n        /* \"#utility.yul\":1348:1380   */\n      tag_93\n      jump\t// in\n    tag_129:\n        /* \"#utility.yul\":1343:1346   */\n      dup3\n        /* \"#utility.yul\":1336:1381   */\n      mstore\n        /* \"#utility.yul\":1245:1387   */\n      pop\n      pop\n      jump\t// out\n        /* \"#utility.yul\":1393:1647   */\n    tag_25:\n        /* \"#utility.yul\":1502:1506   */\n      0x00\n        /* \"#utility.yul\":1540:1542   */\n      0x20\n        /* \"#utility.yul\":1529:1538   */\n      dup3\n        /* \"#utility.yul\":1525:1543   */\n      add\n        /* \"#utility.yul\":1517:1543   */\n      swap1\n      pop\n        /* \"#utility.yul\":1553:1640   */\n      tag_131\n        /* \"#utility.yul\":1637:1638   */\n      0x00\n        /* \"#utility.yul\":1626:1635   */\n      dup4\n        /* \"#utility.yul\":1622:1639   */\n      add\n        /* \"#utility.yul\":1613:1619   */\n      dup5\n        /* \"#utility.yul\":1553:1640   */\n      tag_94\n      jump\t// in\n    tag_131:\n        /* \"#utility.yul\":1393:1647   */\n      swap3\n      swap2\n      pop\n      pop\n      jump\t// out\n        /* \"#utility.yul\":1653:1749   */\n    tag_95:\n        /* \"#utility.yul\":1690:1697   */\n      0x00\n        /* \"#utility.yul\":1719:1743   */\n      tag_133\n        /* \"#utility.yul\":1737:1742   */\n      dup3\n        /* \"#utility.yul\":1719:1743   */\n      tag_92\n      jump\t// in\n    tag_133:\n        /* \"#utility.yul\":1708:1743   */\n      swap1\n      pop\n        /* \"#utility.yul\":1653:1749   */\n      swap2\n      swap1\n      pop\n      jump\t// out\n        /* \"#utility.yul\":1755:1873   */\n    tag_96:\n        /* \"#utility.yul\":1842:1866   */\n      tag_135\n        /* \"#utility.yul\":1860:1865   */\n      dup2\n        /* \"#utility.yul\":1842:1866   */\n      tag_95\n      jump\t// in\n    tag_135:\n        /* \"#utility.yul\":1837:1840   */\n      dup3\n        /* \"#utility.yul\":1830:1867   */\n      mstore\n        /* \"#utility.yul\":1755:1873   */\n      pop\n      pop\n      jump\t// out\n        /* \"#utility.yul\":1879:2101   */\n    tag_34:\n        /* \"#utility.yul\":1972:1976   */\n      0x00\n        /* \"#utility.yul\":2010:2012   */\n      0x20\n        /* \"#utility.yul\":1999:2008   */\n      dup3\n        /* \"#utility.yul\":1995:2013   */\n      add\n        /* \"#utility.yul\":1987:2013   */\n      swap1\n      pop\n        /* \"#utility.yul\":2023:2094   */\n      tag_137\n        /* \"#utility.yul\":2091:2092   */\n      0x00\n        /* \"#utility.yul\":2080:2089   */\n      dup4\n        /* \"#utility.yul\":2076:2093   */\n      add\n        /* \"#utility.yul\":2067:2073   */\n      dup5\n        /* \"#utility.yul\":2023:2094   */\n      tag_96\n      jump\t// in\n    tag_137:\n        /* \"#utility.yul\":1879:2101   */\n      swap3\n      swap2\n      pop\n      pop\n      jump\t// out\n        /* \"#utility.yul\":2107:2184   */\n    tag_97:\n        /* \"#utility.yul\":2144:2151   */\n      0x00\n        /* \"#utility.yul\":2173:2178   */\n      dup2\n        /* \"#utility.yul\":2162:2178   */\n      swap1\n      pop\n        /* \"#utility.yul\":2107:2184   */\n      swap2\n      swap1\n      pop\n      jump\t// out\n        /* \"#utility.yul\":2190:2308   */\n    tag_98:\n        /* \"#utility.yul\":2277:2301   */\n      tag_140\n        /* \"#utility.yul\":2295:2300   */\n      dup2\n        /* \"#utility.yul\":2277:2301   */\n      tag_97\n      jump\t// in\n    tag_140:\n        /* \"#utility.yul\":2272:2275   */\n      dup3\n        /* \"#utility.yul\":2265:2302   */\n      mstore\n        /* \"#utility.yul\":2190:2308   */\n      pop\n      pop\n      jump\t// out\n        /* \"#utility.yul\":2314:2536   */\n    tag_39:\n        /* \"#utility.yul\":2407:2411   */\n      0x00\n        /* \"#utility.yul\":2445:2447   */\n      0x20\n        /* \"#utility.yul\":2434:2443   */\n      dup3\n        /* \"#utility.yul\":2430:2448   */\n      add\n        /* \"#utility.yul\":2422:2448   */\n      swap1\n      pop\n        /* \"#utility.yul\":2458:2529   */\n      tag_142\n        /* \"#utility.yul\":2526:2527   */\n      0x00\n        /* \"#utility.yul\":2515:2524   */\n      dup4\n        /* \"#utility.yul\":2511:2528   */\n      add\n        /* \"#utility.yul\":2502:2508   */\n      dup5\n        /* \"#utility.yul\":2458:2529   */\n      tag_98\n      jump\t// in\n    tag_142:\n        /* \"#utility.yul\":2314:2536   */\n      swap3\n      swap2\n      pop\n      pop\n      jump\t// out\n        /* \"#utility.yul\":2542:2711   */\n    tag_99:\n        /* \"#utility.yul\":2626:2637   */\n      0x00\n        /* \"#utility.yul\":2660:2666   */\n      dup3\n        /* \"#utility.yul\":2655:2658   */\n      dup3\n        /* \"#utility.yul\":2648:2667   */\n      mstore\n        /* \"#utility.yul\":2700:2704   */\n      0x20\n        /* \"#utility.yul\":2695:2698   */\n      dup3\n        /* \"#utility.yul\":2691:2705   */\n      add\n        /* \"#utility.yul\":2676:2705   */\n      swap1\n      pop\n        /* \"#utility.yul\":2542:2711   */\n      swap3\n      swap2\n      pop\n      pop\n      jump\t// out\n        /* \"#utility.yul\":2717:2889   */\n    tag_100:\n        /* \"#utility.yul\":2857:2881   */\n      0x41727469636c65206e6f6e20646973706f6e69626c6500000000000000000000\n        /* \"#utility.yul\":2853:2854   */\n      0x00\n        /* \"#utility.yul\":2845:2851   */\n      dup3\n        /* \"#utility.yul\":2841:2855   */\n      add\n        /* \"#utility.yul\":2834:2882   */\n      mstore\n        /* \"#utility.yul\":2717:2889   */\n      pop\n      jump\t// out\n        /* \"#utility.yul\":2895:3261   */\n    tag_101:\n        /* \"#utility.yul\":3037:3040   */\n      0x00\n        /* \"#utility.yul\":3058:3125   */\n      tag_146\n        /* \"#utility.yul\":3122:3124   */\n      0x16\n        /* \"#utility.yul\":3117:3120   */\n      dup4\n        /* \"#utility.yul\":3058:3125   */\n      tag_99\n      jump\t// in\n    tag_146:\n        /* \"#utility.yul\":3051:3125   */\n      swap2\n      pop\n        /* \"#utility.yul\":3134:3227   */\n      tag_147\n        /* \"#utility.yul\":3223:3226   */\n      dup3\n        /* \"#utility.yul\":3134:3227   */\n      tag_100\n      jump\t// in\n    tag_147:\n        /* \"#utility.yul\":3252:3254   */\n      0x20\n        /* \"#utility.yul\":3247:3250   */\n      dup3\n        /* \"#utility.yul\":3243:3255   */\n      add\n        /* \"#utility.yul\":3236:3255   */\n      swap1\n      pop\n        /* \"#utility.yul\":2895:3261   */\n      swap2\n      swap1\n      pop\n      jump\t// out\n        /* \"#utility.yul\":3267:3686   */\n    tag_51:\n        /* \"#utility.yul\":3433:3437   */\n      0x00\n        /* \"#utility.yul\":3471:3473   */\n      0x20\n        /* \"#utility.yul\":3460:3469   */\n      dup3\n        /* \"#utility.yul\":3456:3474   */\n      add\n        /* \"#utility.yul\":3448:3474   */\n      swap1\n      pop\n        /* \"#utility.yul\":3520:3529   */\n      dup2\n        /* \"#utility.yul\":3514:3518   */\n      dup2\n        /* \"#utility.yul\":3510:3530   */\n      sub\n        /* \"#utility.yul\":3506:3507   */\n      0x00\n        /* \"#utility.yul\":3495:3504   */\n      dup4\n        /* \"#utility.yul\":3491:3508   */\n      add\n        /* \"#utility.yul\":3484:3531   */\n      mstore\n        /* \"#utility.yul\":3548:3679   */\n      tag_149\n        /* \"#utility.yul\":3674:3678   */\n      dup2\n        /* \"#utility.yul\":3548:3679   */\n      tag_101\n      jump\t// in\n    tag_149:\n        /* \"#utility.yul\":3540:3679   */\n      swap1\n      pop\n        /* \"#utility.yul\":3267:3686   */\n      swap2\n      swap1\n      pop\n      jump\t// out\n        /* \"#utility.yul\":3692:3859   */\n    tag_102:\n        /* \"#utility.yul\":3832:3851   */\n      0x4d6f6e74616e7420696e636f7272656374000000000000000000000000000000\n        /* \"#utility.yul\":3828:3829   */\n      0x00\n        /* \"#utility.yul\":3820:3826   */\n      dup3\n        /* \"#utility.yul\":3816:3830   */\n      add\n        /* \"#utility.yul\":3809:3852   */\n      mstore\n        /* \"#utility.yul\":3692:3859   */\n      pop\n      jump\t// out\n        /* \"#utility.yul\":3865:4231   */\n    tag_103:\n        /* \"#utility.yul\":4007:4010   */\n      0x00\n        /* \"#utility.yul\":4028:4095   */\n      tag_152\n        /* \"#utility.yul\":4092:4094   */\n      0x11\n        /* \"#utility.yul\":4087:4090   */\n      dup4\n        /* \"#utility.yul\":4028:4095   */\n      tag_99\n      jump\t// in\n    tag_152:\n        /* \"#utility.yul\":4021:4095   */\n      swap2\n      pop\n        /* \"#utility.yul\":4104:4197   */\n      tag_153\n        /* \"#utility.yul\":4193:4196   */\n      dup3\n        /* \"#utility.yul\":4104:4197   */\n      tag_102\n      jump\t// in\n    tag_153:\n        /* \"#utility.yul\":4222:4224   */\n      0x20\n        /* \"#utility.yul\":4217:4220   */\n      dup3\n        /* \"#utility.yul\":4213:4225   */\n      add\n        /* \"#utility.yul\":4206:4225   */\n      swap1\n      pop\n        /* \"#utility.yul\":3865:4231   */\n      swap2\n      swap1\n      pop\n      jump\t// out\n        /* \"#utility.yul\":4237:4656   */\n    tag_54:\n        /* \"#utility.yul\":4403:4407   */\n      0x00\n        /* \"#utility.yul\":4441:4443   */\n      0x20\n        /* \"#utility.yul\":4430:4439   */\n      dup3\n        /* \"#utility.yul\":4426:4444   */\n      add\n        /* \"#utility.yul\":4418:4444   */\n      swap1\n      pop\n        /* \"#utility.yul\":4490:4499   */\n      dup2\n        /* \"#utility.yul\":4484:4488   */\n      dup2\n        /* \"#utility.yul\":4480:4500   */\n      sub\n        /* \"#utility.yul\":4476:4477   */\n      0x00\n        /* \"#utility.yul\":4465:4474   */\n      dup4\n        /* \"#utility.yul\":4461:4478   */\n      add\n        /* \"#utility.yul\":4454:4501   */\n      mstore\n        /* \"#utility.yul\":4518:4649   */\n      tag_155\n        /* \"#utility.yul\":4644:4648   */\n      dup2\n        /* \"#utility.yul\":4518:4649   */\n      tag_103\n      jump\t// in\n    tag_155:\n        /* \"#utility.yul\":4510:4649   */\n      swap1\n      pop\n        /* \"#utility.yul\":4237:4656   */\n      swap2\n      swap1\n      pop\n      jump\t// out\n        /* \"#utility.yul\":4662:4892   */\n    tag_104:\n        /* \"#utility.yul\":4802:4836   */\n      0x5365756c206c652076656e64657572207065757420636f6e6669726d6572206c\n        /* \"#utility.yul\":4798:4799   */\n      0x00\n        /* \"#utility.yul\":4790:4796   */\n      dup3\n        /* \"#utility.yul\":4786:4800   */\n      add\n        /* \"#utility.yul\":4779:4837   */\n      mstore\n        /* \"#utility.yul\":4871:4884   */\n      0x61206c6976726169736f6e000000000000000000000000000000000000000000\n        /* \"#utility.yul\":4866:4868   */\n      0x20\n        /* \"#utility.yul\":4858:4864   */\n      dup3\n        /* \"#utility.yul\":4854:4869   */\n      add\n        /* \"#utility.yul\":4847:4885   */\n      mstore\n        /* \"#utility.yul\":4662:4892   */\n      pop\n      jump\t// out\n        /* \"#utility.yul\":4898:5264   */\n    tag_105:\n        /* \"#utility.yul\":5040:5043   */\n      0x00\n        /* \"#utility.yul\":5061:5128   */\n      tag_158\n        /* \"#utility.yul\":5125:5127   */\n      0x2b\n        /* \"#utility.yul\":5120:5123   */\n      dup4\n        /* \"#utility.yul\":5061:5128   */\n      tag_99\n      jump\t// in\n    tag_158:\n        /* \"#utility.yul\":5054:5128   */\n      swap2\n      pop\n        /* \"#utility.yul\":5137:5230   */\n      tag_159\n        /* \"#utility.yul\":5226:5229   */\n      dup3\n        /* \"#utility.yul\":5137:5230   */\n      tag_104\n      jump\t// in\n    tag_159:\n        /* \"#utility.yul\":5255:5257   */\n      0x40\n        /* \"#utility.yul\":5250:5253   */\n      dup3\n        /* \"#utility.yul\":5246:5258   */\n      add\n        /* \"#utility.yul\":5239:5258   */\n      swap1\n      pop\n        /* \"#utility.yul\":4898:5264   */\n      swap2\n      swap1\n      pop\n      jump\t// out\n        /* \"#utility.yul\":5270:5689   */\n    tag_61:\n        /* \"#utility.yul\":5436:5440   */\n      0x00\n        /* \"#utility.yul\":5474:5476   */\n      0x20\n        /* \"#utility.yul\":5463:5472   */\n      dup3\n        /* \"#utility.yul\":5459:5477   */\n      add\n        /* \"#utility.yul\":5451:5477   */\n      swap1\n      pop\n        /* \"#utility.yul\":5523:5532   */\n      dup2\n        /* \"#utility.yul\":5517:5521   */\n      dup2\n        /* \"#utility.yul\":5513:5533   */\n      sub\n        /* \"#utility.yul\":5509:5510   */\n      0x00\n        /* \"#utility.yul\":5498:5507   */\n      dup4\n        /* \"#utility.yul\":5494:5511   */\n      add\n        /* \"#utility.yul\":5487:5534   */\n      mstore\n        /* \"#utility.yul\":5551:5682   */\n      tag_161\n        /* \"#utility.yul\":5677:5681   */\n      dup2\n        /* \"#utility.yul\":5551:5682   */\n      tag_105\n      jump\t// in\n    tag_161:\n        /* \"#utility.yul\":5543:5682   */\n      swap1\n      pop\n        /* \"#utility.yul\":5270:5689   */\n      swap2\n      swap1\n      pop\n      jump\t// out\n        /* \"#utility.yul\":5695:5915   */\n    tag_106:\n        /* \"#utility.yul\":5835:5869   */\n      0x4c2761727469636c65206e27612070617320656e636f72652065746520706179\n        /* \"#utility.yul\":5831:5832   */\n      0x00\n        /* \"#utility.yul\":5823:5829   */\n      dup3\n        /* \"#utility.yul\":5819:5833   */\n      add\n        /* \"#utility.yul\":5812:5870   */\n      mstore\n        /* \"#utility.yul\":5904:5907   */\n      0x6500000000000000000000000000000000000000000000000000000000000000\n        /* \"#utility.yul\":5899:5901   */\n      0x20\n        /* \"#utility.yul\":5891:5897   */\n      dup3\n        /* \"#utility.yul\":5887:5902   */\n      add\n        /* \"#utility.yul\":5880:5908   */\n      mstore\n        /* \"#utility.yul\":5695:5915   */\n      pop\n      jump\t// out\n        /* \"#utility.yul\":5921:6287   */\n    tag_107:\n        /* \"#utility.yul\":6063:6066   */\n      0x00\n        /* \"#utility.yul\":6084:6151   */\n      tag_164\n        /* \"#utility.yul\":6148:6150   */\n      0x21\n        /* \"#utility.yul\":6143:6146   */\n      dup4\n        /* \"#utility.yul\":6084:6151   */\n      tag_99\n      jump\t// in\n    tag_164:\n        /* \"#utility.yul\":6077:6151   */\n      swap2\n      pop\n        /* \"#utility.yul\":6160:6253   */\n      tag_165\n        /* \"#utility.yul\":6249:6252   */\n      dup3\n        /* \"#utility.yul\":6160:6253   */\n      tag_106\n      jump\t// in\n    tag_165:\n        /* \"#utility.yul\":6278:6280   */\n      0x40\n        /* \"#utility.yul\":6273:6276   */\n      dup3\n        /* \"#utility.yul\":6269:6281   */\n      add\n        /* \"#utility.yul\":6262:6281   */\n      swap1\n      pop\n        /* \"#utility.yul\":5921:6287   */\n      swap2\n      swap1\n      pop\n      jump\t// out\n        /* \"#utility.yul\":6293:6712   */\n    tag_68:\n        /* \"#utility.yul\":6459:6463   */\n      0x00\n        /* \"#utility.yul\":6497:6499   */\n      0x20\n        /* \"#utility.yul\":6486:6495   */\n      dup3\n        /* \"#utility.yul\":6482:6500   */\n      add\n        /* \"#utility.yul\":6474:6500   */\n      swap1\n      pop\n        /* \"#utility.yul\":6546:6555   */\n      dup2\n        /* \"#utility.yul\":6540:6544   */\n      dup2\n        /* \"#utility.yul\":6536:6556   */\n      sub\n        /* \"#utility.yul\":6532:6533   */\n      0x00\n        /* \"#utility.yul\":6521:6530   */\n      dup4\n        /* \"#utility.yul\":6517:6534   */\n      add\n        /* \"#utility.yul\":6510:6557   */\n      mstore\n        /* \"#utility.yul\":6574:6705   */\n      tag_167\n        /* \"#utility.yul\":6700:6704   */\n      dup2\n        /* \"#utility.yul\":6574:6705   */\n      tag_107\n      jump\t// in\n    tag_167:\n        /* \"#utility.yul\":6566:6705   */\n      swap1\n      pop\n        /* \"#utility.yul\":6293:6712   */\n      swap2\n      swap1\n      pop\n      jump\t// out\n        /* \"#utility.yul\":6718:6899   */\n    tag_108:\n        /* \"#utility.yul\":6858:6891   */\n      0x5365756c206c652076656e6465757220706575742072656d626f757273657200\n        /* \"#utility.yul\":6854:6855   */\n      0x00\n        /* \"#utility.yul\":6846:6852   */\n      dup3\n        /* \"#utility.yul\":6842:6856   */\n      add\n        /* \"#utility.yul\":6835:6892   */\n      mstore\n        /* \"#utility.yul\":6718:6899   */\n      pop\n      jump\t// out\n        /* \"#utility.yul\":6905:7271   */\n    tag_109:\n        /* \"#utility.yul\":7047:7050   */\n      0x00\n        /* \"#utility.yul\":7068:7135   */\n      tag_170\n        /* \"#utility.yul\":7132:7134   */\n      0x1f\n        /* \"#utility.yul\":7127:7130   */\n      dup4\n        /* \"#utility.yul\":7068:7135   */\n      tag_99\n      jump\t// in\n    tag_170:\n        /* \"#utility.yul\":7061:7135   */\n      swap2\n      pop\n        /* \"#utility.yul\":7144:7237   */\n      tag_171\n        /* \"#utility.yul\":7233:7236   */\n      dup3\n        /* \"#utility.yul\":7144:7237   */\n      tag_108\n      jump\t// in\n    tag_171:\n        /* \"#utility.yul\":7262:7264   */\n      0x20\n        /* \"#utility.yul\":7257:7260   */\n      dup3\n        /* \"#utility.yul\":7253:7265   */\n      add\n        /* \"#utility.yul\":7246:7265   */\n      swap1\n      pop\n        /* \"#utility.yul\":6905:7271   */\n      swap2\n      swap1\n      pop\n      jump\t// out\n        /* \"#utility.yul\":7277:7696   */\n    tag_76:\n        /* \"#utility.yul\":7443:7447   */\n      0x00\n        /* \"#utility.yul\":7481:7483   */\n      0x20\n        /* \"#utility.yul\":7470:7479   */\n      dup3\n        /* \"#utility.yul\":7466:7484   */\n      add\n        /* \"#utility.yul\":7458:7484   */\n      swap1\n      pop\n        /* \"#utility.yul\":7530:7539   */\n      dup2\n        /* \"#utility.yul\":7524:7528   */\n      dup2\n        /* \"#utility.yul\":7520:7540   */\n      sub\n        /* \"#utility.yul\":7516:7517   */\n      0x00\n        /* \"#utility.yul\":7505:7514   */\n      dup4\n        /* \"#utility.yul\":7501:7518   */\n      add\n        /* \"#utility.yul\":7494:7541   */\n      mstore\n        /* \"#utility.yul\":7558:7689   */\n      tag_173\n        /* \"#utility.yul\":7684:7688   */\n      dup2\n        /* \"#utility.yul\":7558:7689   */\n      tag_109\n      jump\t// in\n    tag_173:\n        /* \"#utility.yul\":7550:7689   */\n      swap1\n      pop\n        /* \"#utility.yul\":7277:7696   */\n      swap2\n      swap1\n      pop\n      jump\t// out\n        /* \"#utility.yul\":7702:7879   */\n    tag_110:\n        /* \"#utility.yul\":7842:7871   */\n      0x417563756e20706169656d656e7420612072656d626f75727365720000000000\n        /* \"#utility.yul\":7838:7839   */\n      0x00\n        /* \"#utility.yul\":7830:7836   */\n      dup3\n        /* \"#utility.yul\":7826:7840   */\n      add\n        /* \"#utility.yul\":7819:7872   */\n      mstore\n        /* \"#utility.yul\":7702:7879   */\n      pop\n      jump\t// out\n        /* \"#utility.yul\":7885:8251   */\n    tag_111:\n        /* \"#utility.yul\":8027:8030   */\n      0x00\n        /* \"#utility.yul\":8048:8115   */\n      tag_176\n        /* \"#utility.yul\":8112:8114   */\n      0x1b\n        /* \"#utility.yul\":8107:8110   */\n      dup4\n        /* \"#utility.yul\":8048:8115   */\n      tag_99\n      jump\t// in\n    tag_176:\n        /* \"#utility.yul\":8041:8115   */\n      swap2\n      pop\n        /* \"#utility.yul\":8124:8217   */\n      tag_177\n        /* \"#utility.yul\":8213:8216   */\n      dup3\n        /* \"#utility.yul\":8124:8217   */\n      tag_110\n      jump\t// in\n    tag_177:\n        /* \"#utility.yul\":8242:8244   */\n      0x20\n        /* \"#utility.yul\":8237:8240   */\n      dup3\n        /* \"#utility.yul\":8233:8245   */\n      add\n        /* \"#utility.yul\":8226:8245   */\n      swap1\n      pop\n        /* \"#utility.yul\":7885:8251   */\n      swap2\n      swap1\n      pop\n      jump\t// out\n        /* \"#utility.yul\":8257:8676   */\n    tag_83:\n        /* \"#utility.yul\":8423:8427   */\n      0x00\n        /* \"#utility.yul\":8461:8463   */\n      0x20\n        /* \"#utility.yul\":8450:8459   */\n      dup3\n        /* \"#utility.yul\":8446:8464   */\n      add\n        /* \"#utility.yul\":8438:8464   */\n      swap1\n      pop\n        /* \"#utility.yul\":8510:8519   */\n      dup2\n        /* \"#utility.yul\":8504:8508   */\n      dup2\n        /* \"#utility.yul\":8500:8520   */\n      sub\n        /* \"#utility.yul\":8496:8497   */\n      0x00\n        /* \"#utility.yul\":8485:8494   */\n      dup4\n        /* \"#utility.yul\":8481:8498   */\n      add\n        /* \"#utility.yul\":8474:8521   */\n      mstore\n        /* \"#utility.yul\":8538:8669   */\n      tag_179\n        /* \"#utility.yul\":8664:8668   */\n      dup2\n        /* \"#utility.yul\":8538:8669   */\n      tag_111\n      jump\t// in\n    tag_179:\n        /* \"#utility.yul\":8530:8669   */\n      swap1\n      pop\n        /* \"#utility.yul\":8257:8676   */\n      swap2\n      swap1\n      pop\n      jump\t// out\n\n    auxdata: 0xa26469706673582212209b6ec8f4b9ce80f331f3254e6cac59a819bc675365646a4f64c551e10dacb98164736f6c634300081a0033\n}\n",
				"bytecode": {
					"linkReferences": {},
					"object": "608060405234801561000f575f80fd5b50604051610c18380380610c18833981810160405281019061003191906100dd565b335f806101000a81548173ffffffffffffffffffffffffffffffffffffffff021916908373ffffffffffffffffffffffffffffffffffffffff160217905550806002819055505f60035f6101000a81548160ff0219169083600281111561009b5761009a610108565b5b021790555050610135565b5f80fd5b5f819050919050565b6100bc816100aa565b81146100c6575f80fd5b50565b5f815190506100d7816100b3565b92915050565b5f602082840312156100f2576100f16100a6565b5b5f6100ff848285016100c9565b91505092915050565b7f4e487b71000000000000000000000000000000000000000000000000000000005f52602160045260245ffd5b610ad6806101425f395ff3fe60806040526004361061007a575f3560e01c8063a2287c861161004d578063a2287c86146100f2578063c28fda301461011c578063c65e9c7914610146578063c6aa7d5e146101705761007a565b80630d4faa051461007e5780636d717513146100885780636dc0e91c146100b25780639a2caedc146100c8575b5f80fd5b610086610186565b005b348015610093575f80fd5b5061009c6102aa565b6040516100a991906106f9565b60405180910390f35b3480156100bd575f80fd5b506100c66102bf565b005b3480156100d3575f80fd5b506100dc610452565b6040516100e99190610751565b60405180910390f35b3480156100fd575f80fd5b50610106610475565b60405161011391906106f9565b60405180910390f35b348015610127575f80fd5b50610130610487565b60405161013d919061078a565b60405180910390f35b348015610151575f80fd5b5061015a6104ac565b60405161016791906107bb565b60405180910390f35b34801561017b575f80fd5b506101846104b2565b005b5f600281111561019957610198610686565b5b60035f9054906101000a900460ff1660028111156101ba576101b9610686565b5b146101fa576040517f08c379a00000000000000000000000000000000000000000000000000000000081526004016101f19061082e565b60405180910390fd5b600254341461023e576040517f08c379a000000000000000000000000000000000000000000000000000000000815260040161023590610896565b60405180910390fd5b3360015f6101000a81548173ffffffffffffffffffffffffffffffffffffffff021916908373ffffffffffffffffffffffffffffffffffffffff160217905550600160035f6101000a81548160ff021916908360028111156102a3576102a2610686565b5b0217905550565b5f60035f9054906101000a900460ff16905090565b5f8054906101000a900473ffffffffffffffffffffffffffffffffffffffff1673ffffffffffffffffffffffffffffffffffffffff163373ffffffffffffffffffffffffffffffffffffffff161461034c576040517f08c379a000000000000000000000000000000000000000000000000000000000815260040161034390610924565b60405180910390fd5b600160028111156103605761035f610686565b5b60035f9054906101000a900460ff16600281111561038157610380610686565b5b146103c1576040517f08c379a00000000000000000000000000000000000000000000000000000000081526004016103b8906109b2565b60405180910390fd5b600260035f6101000a81548160ff021916908360028111156103e6576103e5610686565b5b02179055505f8054906101000a900473ffffffffffffffffffffffffffffffffffffffff1673ffffffffffffffffffffffffffffffffffffffff166108fc60025490811502906040515f60405180830381858888f1935050505015801561044f573d5f803e3d5ffd5b50565b5f8054906101000a900473ffffffffffffffffffffffffffffffffffffffff1681565b60035f9054906101000a900460ff1681565b60015f9054906101000a900473ffffffffffffffffffffffffffffffffffffffff1681565b60025481565b5f8054906101000a900473ffffffffffffffffffffffffffffffffffffffff1673ffffffffffffffffffffffffffffffffffffffff163373ffffffffffffffffffffffffffffffffffffffff161461053f576040517f08c379a000000000000000000000000000000000000000000000000000000000815260040161053690610a1a565b60405180910390fd5b6001600281111561055357610552610686565b5b60035f9054906101000a900460ff16600281111561057457610573610686565b5b146105b4576040517f08c379a00000000000000000000000000000000000000000000000000000000081526004016105ab90610a82565b60405180910390fd5b60015f9054906101000a900473ffffffffffffffffffffffffffffffffffffffff1673ffffffffffffffffffffffffffffffffffffffff166108fc60025490811502906040515f60405180830381858888f1935050505015801561061a573d5f803e3d5ffd5b505f60015f6101000a81548173ffffffffffffffffffffffffffffffffffffffff021916908373ffffffffffffffffffffffffffffffffffffffff1602179055505f60035f6101000a81548160ff0219169083600281111561067f5761067e610686565b5b0217905550565b7f4e487b71000000000000000000000000000000000000000000000000000000005f52602160045260245ffd5b600381106106c4576106c3610686565b5b50565b5f8190506106d4826106b3565b919050565b5f6106e3826106c7565b9050919050565b6106f3816106d9565b82525050565b5f60208201905061070c5f8301846106ea565b92915050565b5f73ffffffffffffffffffffffffffffffffffffffff82169050919050565b5f61073b82610712565b9050919050565b61074b81610731565b82525050565b5f6020820190506107645f830184610742565b92915050565b5f61077482610712565b9050919050565b6107848161076a565b82525050565b5f60208201905061079d5f83018461077b565b92915050565b5f819050919050565b6107b5816107a3565b82525050565b5f6020820190506107ce5f8301846107ac565b92915050565b5f82825260208201905092915050565b7f41727469636c65206e6f6e20646973706f6e69626c65000000000000000000005f82015250565b5f6108186016836107d4565b9150610823826107e4565b602082019050919050565b5f6020820190508181035f8301526108458161080c565b9050919050565b7f4d6f6e74616e7420696e636f72726563740000000000000000000000000000005f82015250565b5f6108806011836107d4565b915061088b8261084c565b602082019050919050565b5f6020820190508181035f8301526108ad81610874565b9050919050565b7f5365756c206c652076656e64657572207065757420636f6e6669726d6572206c5f8201527f61206c6976726169736f6e000000000000000000000000000000000000000000602082015250565b5f61090e602b836107d4565b9150610919826108b4565b604082019050919050565b5f6020820190508181035f83015261093b81610902565b9050919050565b7f4c2761727469636c65206e27612070617320656e636f726520657465207061795f8201527f6500000000000000000000000000000000000000000000000000000000000000602082015250565b5f61099c6021836107d4565b91506109a782610942565b604082019050919050565b5f6020820190508181035f8301526109c981610990565b9050919050565b7f5365756c206c652076656e6465757220706575742072656d626f7572736572005f82015250565b5f610a04601f836107d4565b9150610a0f826109d0565b602082019050919050565b5f6020820190508181035f830152610a31816109f8565b9050919050565b7f417563756e20706169656d656e7420612072656d626f757273657200000000005f82015250565b5f610a6c601b836107d4565b9150610a7782610a38565b602082019050919050565b5f6020820190508181035f830152610a9981610a60565b905091905056fea26469706673582212209b6ec8f4b9ce80f331f3254e6cac59a819bc675365646a4f64c551e10dacb98164736f6c634300081a0033",
					"opcodes": "PUSH1 0x80 PUSH1 0x40 MSTORE CALLVALUE DUP1 ISZERO PUSH2 0xF JUMPI PUSH0 DUP1 REVERT JUMPDEST POP PUSH1 0x40 MLOAD PUSH2 0xC18 CODESIZE SUB DUP1 PUSH2 0xC18 DUP4 CODECOPY DUP2 DUP2 ADD PUSH1 0x40 MSTORE DUP2 ADD SWAP1 PUSH2 0x31 SWAP2 SWAP1 PUSH2 0xDD JUMP JUMPDEST CALLER PUSH0 DUP1 PUSH2 0x100 EXP DUP2 SLOAD DUP2 PUSH20 0xFFFFFFFFFFFFFFFFFFFFFFFFFFFFFFFFFFFFFFFF MUL NOT AND SWAP1 DUP4 PUSH20 0xFFFFFFFFFFFFFFFFFFFFFFFFFFFFFFFFFFFFFFFF AND MUL OR SWAP1 SSTORE POP DUP1 PUSH1 0x2 DUP2 SWAP1 SSTORE POP PUSH0 PUSH1 0x3 PUSH0 PUSH2 0x100 EXP DUP2 SLOAD DUP2 PUSH1 0xFF MUL NOT AND SWAP1 DUP4 PUSH1 0x2 DUP2 GT ISZERO PUSH2 0x9B JUMPI PUSH2 0x9A PUSH2 0x108 JUMP JUMPDEST JUMPDEST MUL OR SWAP1 SSTORE POP POP PUSH2 0x135 JUMP JUMPDEST PUSH0 DUP1 REVERT JUMPDEST PUSH0 DUP2 SWAP1 POP SWAP2 SWAP1 POP JUMP JUMPDEST PUSH2 0xBC DUP2 PUSH2 0xAA JUMP JUMPDEST DUP2 EQ PUSH2 0xC6 JUMPI PUSH0 DUP1 REVERT JUMPDEST POP JUMP JUMPDEST PUSH0 DUP2 MLOAD SWAP1 POP PUSH2 0xD7 DUP2 PUSH2 0xB3 JUMP JUMPDEST SWAP3 SWAP2 POP POP JUMP JUMPDEST PUSH0 PUSH1 0x20 DUP3 DUP5 SUB SLT ISZERO PUSH2 0xF2 JUMPI PUSH2 0xF1 PUSH2 0xA6 JUMP JUMPDEST JUMPDEST PUSH0 PUSH2 0xFF DUP5 DUP3 DUP6 ADD PUSH2 0xC9 JUMP JUMPDEST SWAP2 POP POP SWAP3 SWAP2 POP POP JUMP JUMPDEST PUSH32 0x4E487B7100000000000000000000000000000000000000000000000000000000 PUSH0 MSTORE PUSH1 0x21 PUSH1 0x4 MSTORE PUSH1 0x24 PUSH0 REVERT JUMPDEST PUSH2 0xAD6 DUP1 PUSH2 0x142 PUSH0 CODECOPY PUSH0 RETURN INVALID PUSH1 0x80 PUSH1 0x40 MSTORE PUSH1 0x4 CALLDATASIZE LT PUSH2 0x7A JUMPI PUSH0 CALLDATALOAD PUSH1 0xE0 SHR DUP1 PUSH4 0xA2287C86 GT PUSH2 0x4D JUMPI DUP1 PUSH4 0xA2287C86 EQ PUSH2 0xF2 JUMPI DUP1 PUSH4 0xC28FDA30 EQ PUSH2 0x11C JUMPI DUP1 PUSH4 0xC65E9C79 EQ PUSH2 0x146 JUMPI DUP1 PUSH4 0xC6AA7D5E EQ PUSH2 0x170 JUMPI PUSH2 0x7A JUMP JUMPDEST DUP1 PUSH4 0xD4FAA05 EQ PUSH2 0x7E JUMPI DUP1 PUSH4 0x6D717513 EQ PUSH2 0x88 JUMPI DUP1 PUSH4 0x6DC0E91C EQ PUSH2 0xB2 JUMPI DUP1 PUSH4 0x9A2CAEDC EQ PUSH2 0xC8 JUMPI JUMPDEST PUSH0 DUP1 REVERT JUMPDEST PUSH2 0x86 PUSH2 0x186 JUMP JUMPDEST STOP JUMPDEST CALLVALUE DUP1 ISZERO PUSH2 0x93 JUMPI PUSH0 DUP1 REVERT JUMPDEST POP PUSH2 0x9C PUSH2 0x2AA JUMP JUMPDEST PUSH1 0x40 MLOAD PUSH2 0xA9 SWAP2 SWAP1 PUSH2 0x6F9 JUMP JUMPDEST PUSH1 0x40 MLOAD DUP1 SWAP2 SUB SWAP1 RETURN JUMPDEST CALLVALUE DUP1 ISZERO PUSH2 0xBD JUMPI PUSH0 DUP1 REVERT JUMPDEST POP PUSH2 0xC6 PUSH2 0x2BF JUMP JUMPDEST STOP JUMPDEST CALLVALUE DUP1 ISZERO PUSH2 0xD3 JUMPI PUSH0 DUP1 REVERT JUMPDEST POP PUSH2 0xDC PUSH2 0x452 JUMP JUMPDEST PUSH1 0x40 MLOAD PUSH2 0xE9 SWAP2 SWAP1 PUSH2 0x751 JUMP JUMPDEST PUSH1 0x40 MLOAD DUP1 SWAP2 SUB SWAP1 RETURN JUMPDEST CALLVALUE DUP1 ISZERO PUSH2 0xFD JUMPI PUSH0 DUP1 REVERT JUMPDEST POP PUSH2 0x106 PUSH2 0x475 JUMP JUMPDEST PUSH1 0x40 MLOAD PUSH2 0x113 SWAP2 SWAP1 PUSH2 0x6F9 JUMP JUMPDEST PUSH1 0x40 MLOAD DUP1 SWAP2 SUB SWAP1 RETURN JUMPDEST CALLVALUE DUP1 ISZERO PUSH2 0x127 JUMPI PUSH0 DUP1 REVERT JUMPDEST POP PUSH2 0x130 PUSH2 0x487 JUMP JUMPDEST PUSH1 0x40 MLOAD PUSH2 0x13D SWAP2 SWAP1 PUSH2 0x78A JUMP JUMPDEST PUSH1 0x40 MLOAD DUP1 SWAP2 SUB SWAP1 RETURN JUMPDEST CALLVALUE DUP1 ISZERO PUSH2 0x151 JUMPI PUSH0 DUP1 REVERT JUMPDEST POP PUSH2 0x15A PUSH2 0x4AC JUMP JUMPDEST PUSH1 0x40 MLOAD PUSH2 0x167 SWAP2 SWAP1 PUSH2 0x7BB JUMP JUMPDEST PUSH1 0x40 MLOAD DUP1 SWAP2 SUB SWAP1 RETURN JUMPDEST CALLVALUE DUP1 ISZERO PUSH2 0x17B JUMPI PUSH0 DUP1 REVERT JUMPDEST POP PUSH2 0x184 PUSH2 0x4B2 JUMP JUMPDEST STOP JUMPDEST PUSH0 PUSH1 0x2 DUP2 GT ISZERO PUSH2 0x199 JUMPI PUSH2 0x198 PUSH2 0x686 JUMP JUMPDEST JUMPDEST PUSH1 0x3 PUSH0 SWAP1 SLOAD SWAP1 PUSH2 0x100 EXP SWAP1 DIV PUSH1 0xFF AND PUSH1 0x2 DUP2 GT ISZERO PUSH2 0x1BA JUMPI PUSH2 0x1B9 PUSH2 0x686 JUMP JUMPDEST JUMPDEST EQ PUSH2 0x1FA JUMPI PUSH1 0x40 MLOAD PUSH32 0x8C379A000000000000000000000000000000000000000000000000000000000 DUP2 MSTORE PUSH1 0x4 ADD PUSH2 0x1F1 SWAP1 PUSH2 0x82E JUMP JUMPDEST PUSH1 0x40 MLOAD DUP1 SWAP2 SUB SWAP1 REVERT JUMPDEST PUSH1 0x2 SLOAD CALLVALUE EQ PUSH2 0x23E JUMPI PUSH1 0x40 MLOAD PUSH32 0x8C379A000000000000000000000000000000000000000000000000000000000 DUP2 MSTORE PUSH1 0x4 ADD PUSH2 0x235 SWAP1 PUSH2 0x896 JUMP JUMPDEST PUSH1 0x40 MLOAD DUP1 SWAP2 SUB SWAP1 REVERT JUMPDEST CALLER PUSH1 0x1 PUSH0 PUSH2 0x100 EXP DUP2 SLOAD DUP2 PUSH20 0xFFFFFFFFFFFFFFFFFFFFFFFFFFFFFFFFFFFFFFFF MUL NOT AND SWAP1 DUP4 PUSH20 0xFFFFFFFFFFFFFFFFFFFFFFFFFFFFFFFFFFFFFFFF AND MUL OR SWAP1 SSTORE POP PUSH1 0x1 PUSH1 0x3 PUSH0 PUSH2 0x100 EXP DUP2 SLOAD DUP2 PUSH1 0xFF MUL NOT AND SWAP1 DUP4 PUSH1 0x2 DUP2 GT ISZERO PUSH2 0x2A3 JUMPI PUSH2 0x2A2 PUSH2 0x686 JUMP JUMPDEST JUMPDEST MUL OR SWAP1 SSTORE POP JUMP JUMPDEST PUSH0 PUSH1 0x3 PUSH0 SWAP1 SLOAD SWAP1 PUSH2 0x100 EXP SWAP1 DIV PUSH1 0xFF AND SWAP1 POP SWAP1 JUMP JUMPDEST PUSH0 DUP1 SLOAD SWAP1 PUSH2 0x100 EXP SWAP1 DIV PUSH20 0xFFFFFFFFFFFFFFFFFFFFFFFFFFFFFFFFFFFFFFFF AND PUSH20 0xFFFFFFFFFFFFFFFFFFFFFFFFFFFFFFFFFFFFFFFF AND CALLER PUSH20 0xFFFFFFFFFFFFFFFFFFFFFFFFFFFFFFFFFFFFFFFF AND EQ PUSH2 0x34C JUMPI PUSH1 0x40 MLOAD PUSH32 0x8C379A000000000000000000000000000000000000000000000000000000000 DUP2 MSTORE PUSH1 0x4 ADD PUSH2 0x343 SWAP1 PUSH2 0x924 JUMP JUMPDEST PUSH1 0x40 MLOAD DUP1 SWAP2 SUB SWAP1 REVERT JUMPDEST PUSH1 0x1 PUSH1 0x2 DUP2 GT ISZERO PUSH2 0x360 JUMPI PUSH2 0x35F PUSH2 0x686 JUMP JUMPDEST JUMPDEST PUSH1 0x3 PUSH0 SWAP1 SLOAD SWAP1 PUSH2 0x100 EXP SWAP1 DIV PUSH1 0xFF AND PUSH1 0x2 DUP2 GT ISZERO PUSH2 0x381 JUMPI PUSH2 0x380 PUSH2 0x686 JUMP JUMPDEST JUMPDEST EQ PUSH2 0x3C1 JUMPI PUSH1 0x40 MLOAD PUSH32 0x8C379A000000000000000000000000000000000000000000000000000000000 DUP2 MSTORE PUSH1 0x4 ADD PUSH2 0x3B8 SWAP1 PUSH2 0x9B2 JUMP JUMPDEST PUSH1 0x40 MLOAD DUP1 SWAP2 SUB SWAP1 REVERT JUMPDEST PUSH1 0x2 PUSH1 0x3 PUSH0 PUSH2 0x100 EXP DUP2 SLOAD DUP2 PUSH1 0xFF MUL NOT AND SWAP1 DUP4 PUSH1 0x2 DUP2 GT ISZERO PUSH2 0x3E6 JUMPI PUSH2 0x3E5 PUSH2 0x686 JUMP JUMPDEST JUMPDEST MUL OR SWAP1 SSTORE POP PUSH0 DUP1 SLOAD SWAP1 PUSH2 0x100 EXP SWAP1 DIV PUSH20 0xFFFFFFFFFFFFFFFFFFFFFFFFFFFFFFFFFFFFFFFF AND PUSH20 0xFFFFFFFFFFFFFFFFFFFFFFFFFFFFFFFFFFFFFFFF AND PUSH2 0x8FC PUSH1 0x2 SLOAD SWAP1 DUP2 ISZERO MUL SWAP1 PUSH1 0x40 MLOAD PUSH0 PUSH1 0x40 MLOAD DUP1 DUP4 SUB DUP2 DUP6 DUP9 DUP9 CALL SWAP4 POP POP POP POP ISZERO DUP1 ISZERO PUSH2 0x44F JUMPI RETURNDATASIZE PUSH0 DUP1 RETURNDATACOPY RETURNDATASIZE PUSH0 REVERT JUMPDEST POP JUMP JUMPDEST PUSH0 DUP1 SLOAD SWAP1 PUSH2 0x100 EXP SWAP1 DIV PUSH20 0xFFFFFFFFFFFFFFFFFFFFFFFFFFFFFFFFFFFFFFFF AND DUP2 JUMP JUMPDEST PUSH1 0x3 PUSH0 SWAP1 SLOAD SWAP1 PUSH2 0x100 EXP SWAP1 DIV PUSH1 0xFF AND DUP2 JUMP JUMPDEST PUSH1 0x1 PUSH0 SWAP1 SLOAD SWAP1 PUSH2 0x100 EXP SWAP1 DIV PUSH20 0xFFFFFFFFFFFFFFFFFFFFFFFFFFFFFFFFFFFFFFFF AND DUP2 JUMP JUMPDEST PUSH1 0x2 SLOAD DUP2 JUMP JUMPDEST PUSH0 DUP1 SLOAD SWAP1 PUSH2 0x100 EXP SWAP1 DIV PUSH20 0xFFFFFFFFFFFFFFFFFFFFFFFFFFFFFFFFFFFFFFFF AND PUSH20 0xFFFFFFFFFFFFFFFFFFFFFFFFFFFFFFFFFFFFFFFF AND CALLER PUSH20 0xFFFFFFFFFFFFFFFFFFFFFFFFFFFFFFFFFFFFFFFF AND EQ PUSH2 0x53F JUMPI PUSH1 0x40 MLOAD PUSH32 0x8C379A000000000000000000000000000000000000000000000000000000000 DUP2 MSTORE PUSH1 0x4 ADD PUSH2 0x536 SWAP1 PUSH2 0xA1A JUMP JUMPDEST PUSH1 0x40 MLOAD DUP1 SWAP2 SUB SWAP1 REVERT JUMPDEST PUSH1 0x1 PUSH1 0x2 DUP2 GT ISZERO PUSH2 0x553 JUMPI PUSH2 0x552 PUSH2 0x686 JUMP JUMPDEST JUMPDEST PUSH1 0x3 PUSH0 SWAP1 SLOAD SWAP1 PUSH2 0x100 EXP SWAP1 DIV PUSH1 0xFF AND PUSH1 0x2 DUP2 GT ISZERO PUSH2 0x574 JUMPI PUSH2 0x573 PUSH2 0x686 JUMP JUMPDEST JUMPDEST EQ PUSH2 0x5B4 JUMPI PUSH1 0x40 MLOAD PUSH32 0x8C379A000000000000000000000000000000000000000000000000000000000 DUP2 MSTORE PUSH1 0x4 ADD PUSH2 0x5AB SWAP1 PUSH2 0xA82 JUMP JUMPDEST PUSH1 0x40 MLOAD DUP1 SWAP2 SUB SWAP1 REVERT JUMPDEST PUSH1 0x1 PUSH0 SWAP1 SLOAD SWAP1 PUSH2 0x100 EXP SWAP1 DIV PUSH20 0xFFFFFFFFFFFFFFFFFFFFFFFFFFFFFFFFFFFFFFFF AND PUSH20 0xFFFFFFFFFFFFFFFFFFFFFFFFFFFFFFFFFFFFFFFF AND PUSH2 0x8FC PUSH1 0x2 SLOAD SWAP1 DUP2 ISZERO MUL SWAP1 PUSH1 0x40 MLOAD PUSH0 PUSH1 0x40 MLOAD DUP1 DUP4 SUB DUP2 DUP6 DUP9 DUP9 CALL SWAP4 POP POP POP POP ISZERO DUP1 ISZERO PUSH2 0x61A JUMPI RETURNDATASIZE PUSH0 DUP1 RETURNDATACOPY RETURNDATASIZE PUSH0 REVERT JUMPDEST POP PUSH0 PUSH1 0x1 PUSH0 PUSH2 0x100 EXP DUP2 SLOAD DUP2 PUSH20 0xFFFFFFFFFFFFFFFFFFFFFFFFFFFFFFFFFFFFFFFF MUL NOT AND SWAP1 DUP4 PUSH20 0xFFFFFFFFFFFFFFFFFFFFFFFFFFFFFFFFFFFFFFFF AND MUL OR SWAP1 SSTORE POP PUSH0 PUSH1 0x3 PUSH0 PUSH2 0x100 EXP DUP2 SLOAD DUP2 PUSH1 0xFF MUL NOT AND SWAP1 DUP4 PUSH1 0x2 DUP2 GT ISZERO PUSH2 0x67F JUMPI PUSH2 0x67E PUSH2 0x686 JUMP JUMPDEST JUMPDEST MUL OR SWAP1 SSTORE POP JUMP JUMPDEST PUSH32 0x4E487B7100000000000000000000000000000000000000000000000000000000 PUSH0 MSTORE PUSH1 0x21 PUSH1 0x4 MSTORE PUSH1 0x24 PUSH0 REVERT JUMPDEST PUSH1 0x3 DUP2 LT PUSH2 0x6C4 JUMPI PUSH2 0x6C3 PUSH2 0x686 JUMP JUMPDEST JUMPDEST POP JUMP JUMPDEST PUSH0 DUP2 SWAP1 POP PUSH2 0x6D4 DUP3 PUSH2 0x6B3 JUMP JUMPDEST SWAP2 SWAP1 POP JUMP JUMPDEST PUSH0 PUSH2 0x6E3 DUP3 PUSH2 0x6C7 JUMP JUMPDEST SWAP1 POP SWAP2 SWAP1 POP JUMP JUMPDEST PUSH2 0x6F3 DUP2 PUSH2 0x6D9 JUMP JUMPDEST DUP3 MSTORE POP POP JUMP JUMPDEST PUSH0 PUSH1 0x20 DUP3 ADD SWAP1 POP PUSH2 0x70C PUSH0 DUP4 ADD DUP5 PUSH2 0x6EA JUMP JUMPDEST SWAP3 SWAP2 POP POP JUMP JUMPDEST PUSH0 PUSH20 0xFFFFFFFFFFFFFFFFFFFFFFFFFFFFFFFFFFFFFFFF DUP3 AND SWAP1 POP SWAP2 SWAP1 POP JUMP JUMPDEST PUSH0 PUSH2 0x73B DUP3 PUSH2 0x712 JUMP JUMPDEST SWAP1 POP SWAP2 SWAP1 POP JUMP JUMPDEST PUSH2 0x74B DUP2 PUSH2 0x731 JUMP JUMPDEST DUP3 MSTORE POP POP JUMP JUMPDEST PUSH0 PUSH1 0x20 DUP3 ADD SWAP1 POP PUSH2 0x764 PUSH0 DUP4 ADD DUP5 PUSH2 0x742 JUMP JUMPDEST SWAP3 SWAP2 POP POP JUMP JUMPDEST PUSH0 PUSH2 0x774 DUP3 PUSH2 0x712 JUMP JUMPDEST SWAP1 POP SWAP2 SWAP1 POP JUMP JUMPDEST PUSH2 0x784 DUP2 PUSH2 0x76A JUMP JUMPDEST DUP3 MSTORE POP POP JUMP JUMPDEST PUSH0 PUSH1 0x20 DUP3 ADD SWAP1 POP PUSH2 0x79D PUSH0 DUP4 ADD DUP5 PUSH2 0x77B JUMP JUMPDEST SWAP3 SWAP2 POP POP JUMP JUMPDEST PUSH0 DUP2 SWAP1 POP SWAP2 SWAP1 POP JUMP JUMPDEST PUSH2 0x7B5 DUP2 PUSH2 0x7A3 JUMP JUMPDEST DUP3 MSTORE POP POP JUMP JUMPDEST PUSH0 PUSH1 0x20 DUP3 ADD SWAP1 POP PUSH2 0x7CE PUSH0 DUP4 ADD DUP5 PUSH2 0x7AC JUMP JUMPDEST SWAP3 SWAP2 POP POP JUMP JUMPDEST PUSH0 DUP3 DUP3 MSTORE PUSH1 0x20 DUP3 ADD SWAP1 POP SWAP3 SWAP2 POP POP JUMP JUMPDEST PUSH32 0x41727469636C65206E6F6E20646973706F6E69626C6500000000000000000000 PUSH0 DUP3 ADD MSTORE POP JUMP JUMPDEST PUSH0 PUSH2 0x818 PUSH1 0x16 DUP4 PUSH2 0x7D4 JUMP JUMPDEST SWAP2 POP PUSH2 0x823 DUP3 PUSH2 0x7E4 JUMP JUMPDEST PUSH1 0x20 DUP3 ADD SWAP1 POP SWAP2 SWAP1 POP JUMP JUMPDEST PUSH0 PUSH1 0x20 DUP3 ADD SWAP1 POP DUP2 DUP2 SUB PUSH0 DUP4 ADD MSTORE PUSH2 0x845 DUP2 PUSH2 0x80C JUMP JUMPDEST SWAP1 POP SWAP2 SWAP1 POP JUMP JUMPDEST PUSH32 0x4D6F6E74616E7420696E636F7272656374000000000000000000000000000000 PUSH0 DUP3 ADD MSTORE POP JUMP JUMPDEST PUSH0 PUSH2 0x880 PUSH1 0x11 DUP4 PUSH2 0x7D4 JUMP JUMPDEST SWAP2 POP PUSH2 0x88B DUP3 PUSH2 0x84C JUMP JUMPDEST PUSH1 0x20 DUP3 ADD SWAP1 POP SWAP2 SWAP1 POP JUMP JUMPDEST PUSH0 PUSH1 0x20 DUP3 ADD SWAP1 POP DUP2 DUP2 SUB PUSH0 DUP4 ADD MSTORE PUSH2 0x8AD DUP2 PUSH2 0x874 JUMP JUMPDEST SWAP1 POP SWAP2 SWAP1 POP JUMP JUMPDEST PUSH32 0x5365756C206C652076656E64657572207065757420636F6E6669726D6572206C PUSH0 DUP3 ADD MSTORE PUSH32 0x61206C6976726169736F6E000000000000000000000000000000000000000000 PUSH1 0x20 DUP3 ADD MSTORE POP JUMP JUMPDEST PUSH0 PUSH2 0x90E PUSH1 0x2B DUP4 PUSH2 0x7D4 JUMP JUMPDEST SWAP2 POP PUSH2 0x919 DUP3 PUSH2 0x8B4 JUMP JUMPDEST PUSH1 0x40 DUP3 ADD SWAP1 POP SWAP2 SWAP1 POP JUMP JUMPDEST PUSH0 PUSH1 0x20 DUP3 ADD SWAP1 POP DUP2 DUP2 SUB PUSH0 DUP4 ADD MSTORE PUSH2 0x93B DUP2 PUSH2 0x902 JUMP JUMPDEST SWAP1 POP SWAP2 SWAP1 POP JUMP JUMPDEST PUSH32 0x4C2761727469636C65206E27612070617320656E636F72652065746520706179 PUSH0 DUP3 ADD MSTORE PUSH32 0x6500000000000000000000000000000000000000000000000000000000000000 PUSH1 0x20 DUP3 ADD MSTORE POP JUMP JUMPDEST PUSH0 PUSH2 0x99C PUSH1 0x21 DUP4 PUSH2 0x7D4 JUMP JUMPDEST SWAP2 POP PUSH2 0x9A7 DUP3 PUSH2 0x942 JUMP JUMPDEST PUSH1 0x40 DUP3 ADD SWAP1 POP SWAP2 SWAP1 POP JUMP JUMPDEST PUSH0 PUSH1 0x20 DUP3 ADD SWAP1 POP DUP2 DUP2 SUB PUSH0 DUP4 ADD MSTORE PUSH2 0x9C9 DUP2 PUSH2 0x990 JUMP JUMPDEST SWAP1 POP SWAP2 SWAP1 POP JUMP JUMPDEST PUSH32 0x5365756C206C652076656E6465757220706575742072656D626F757273657200 PUSH0 DUP3 ADD MSTORE POP JUMP JUMPDEST PUSH0 PUSH2 0xA04 PUSH1 0x1F DUP4 PUSH2 0x7D4 JUMP JUMPDEST SWAP2 POP PUSH2 0xA0F DUP3 PUSH2 0x9D0 JUMP JUMPDEST PUSH1 0x20 DUP3 ADD SWAP1 POP SWAP2 SWAP1 POP JUMP JUMPDEST PUSH0 PUSH1 0x20 DUP3 ADD SWAP1 POP DUP2 DUP2 SUB PUSH0 DUP4 ADD MSTORE PUSH2 0xA31 DUP2 PUSH2 0x9F8 JUMP JUMPDEST SWAP1 POP SWAP2 SWAP1 POP JUMP JUMPDEST PUSH32 0x417563756E20706169656D656E7420612072656D626F75727365720000000000 PUSH0 DUP3 ADD MSTORE POP JUMP JUMPDEST PUSH0 PUSH2 0xA6C PUSH1 0x1B DUP4 PUSH2 0x7D4 JUMP JUMPDEST SWAP2 POP PUSH2 0xA77 DUP3 PUSH2 0xA38 JUMP JUMPDEST PUSH1 0x20 DUP3 ADD SWAP1 POP SWAP2 SWAP1 POP JUMP JUMPDEST PUSH0 PUSH1 0x20 DUP3 ADD SWAP1 POP DUP2 DUP2 SUB PUSH0 DUP4 ADD MSTORE PUSH2 0xA99 DUP2 PUSH2 0xA60 JUMP JUMPDEST SWAP1 POP SWAP2 SWAP1 POP JUMP INVALID LOG2 PUSH5 0x6970667358 0x22 SLT KECCAK256 SWAP12 PUSH15 0xC8F4B9CE80F331F3254E6CAC59A819 0xBC PUSH8 0x5365646A4F64C551 0xE1 0xD 0xAC 0xB9 DUP2 PUSH5 0x736F6C6343 STOP ADDMOD BYTE STOP CALLER "
				},
				"gasEstimates": {
					"creation": {
						"codeDepositCost": "554800",
						"executionCost": "infinite",
						"totalCost": "infinite"
					},
					"external": {
						"acheter()": "53002",
						"acheteur()": "2530",
						"confirmerLivraison()": "infinite",
						"etat()": "2554",
						"getEtat()": "2584",
						"prix()": "2469",
						"rembourserAcheteur()": "infinite",
						"vendeur()": "2572"
					}
				},
				"methodIdentifiers": {
					"acheter()": "0d4faa05",
					"acheteur()": "c28fda30",
					"confirmerLivraison()": "6dc0e91c",
					"etat()": "a2287c86",
					"getEtat()": "6d717513",
					"prix()": "c65e9c79",
					"rembourserAcheteur()": "c6aa7d5e",
					"vendeur()": "9a2caedc"
				}
			},
			"storageLayout": {
				"storage": [
					{
						"astId": 3,
						"contract": "contracts/5_ContratVente.sol:ContratVente",
						"label": "vendeur",
						"offset": 0,
						"slot": "0",
						"type": "t_address_payable"
					},
					{
						"astId": 5,
						"contract": "contracts/5_ContratVente.sol:ContratVente",
						"label": "acheteur",
						"offset": 0,
						"slot": "1",
						"type": "t_address"
					},
					{
						"astId": 7,
						"contract": "contracts/5_ContratVente.sol:ContratVente",
						"label": "prix",
						"offset": 0,
						"slot": "2",
						"type": "t_uint256"
					},
					{
						"astId": 14,
						"contract": "contracts/5_ContratVente.sol:ContratVente",
						"label": "etat",
						"offset": 0,
						"slot": "3",
						"type": "t_enum(EtatVente)11"
					}
				],
				"types": {
					"t_address": {
						"encoding": "inplace",
						"label": "address",
						"numberOfBytes": "20"
					},
					"t_address_payable": {
						"encoding": "inplace",
						"label": "address payable",
						"numberOfBytes": "20"
					},
					"t_enum(EtatVente)11": {
						"encoding": "inplace",
						"label": "enum ContratVente.EtatVente",
						"numberOfBytes": "1"
					},
					"t_uint256": {
						"encoding": "inplace",
						"label": "uint256",
						"numberOfBytes": "32"
					}
				}
			},
			"userdoc": {
				"kind": "user",
				"methods": {},
				"version": 1
			}
		}
	}
}