{
	"contracts/6_MarcheDecentralise.sol": {
		"MarcheDecentralise": {
			"abi": [
				{
					"inputs": [],
					"stateMutability": "nonpayable",
					"type": "constructor"
				},
				{
					"anonymous": false,
					"inputs": [
						{
							"indexed": false,
							"internalType": "uint256",
							"name": "id",
							"type": "uint256"
						},
						{
							"indexed": false,
							"internalType": "string",
							"name": "name",
							"type": "string"
						}
					],
					"name": "ProductAdded",
					"type": "event"
				},
				{
					"anonymous": false,
					"inputs": [
						{
							"indexed": false,
							"internalType": "uint256",
							"name": "id",
							"type": "uint256"
						}
					],
					"name": "ProductDeleted",
					"type": "event"
				},
				{
					"anonymous": false,
					"inputs": [
						{
							"indexed": false,
							"internalType": "uint256",
							"name": "id",
							"type": "uint256"
						},
						{
							"indexed": false,
							"internalType": "string",
							"name": "name",
							"type": "string"
						}
					],
					"name": "ProductUpdated",
					"type": "event"
				},
				{
					"inputs": [
						{
							"internalType": "string",
							"name": "_name",
							"type": "string"
						},
						{
							"internalType": "uint256",
							"name": "_price",
							"type": "uint256"
						},
						{
							"internalType": "uint256",
							"name": "_stock",
							"type": "uint256"
						}
					],
					"name": "addProduct",
					"outputs": [],
					"stateMutability": "nonpayable",
					"type": "function"
				},
				{
					"inputs": [
						{
							"internalType": "uint256",
							"name": "_id",
							"type": "uint256"
						}
					],
					"name": "copyProduct",
					"outputs": [
						{
							"components": [
								{
									"internalType": "string",
									"name": "name",
									"type": "string"
								},
								{
									"internalType": "uint256",
									"name": "price",
									"type": "uint256"
								},
								{
									"internalType": "uint256",
									"name": "stock",
									"type": "uint256"
								}
							],
							"internalType": "struct MarcheDecentralise.Product",
							"name": "",
							"type": "tuple"
						}
					],
					"stateMutability": "view",
					"type": "function"
				},
				{
					"inputs": [
						{
							"internalType": "uint256",
							"name": "_id",
							"type": "uint256"
						}
					],
					"name": "deleteProduct",
					"outputs": [],
					"stateMutability": "nonpayable",
					"type": "function"
				},
				{
					"inputs": [
						{
							"internalType": "uint256",
							"name": "_id",
							"type": "uint256"
						}
					],
					"name": "getProduct",
					"outputs": [
						{
							"internalType": "string",
							"name": "",
							"type": "string"
						},
						{
							"internalType": "uint256",
							"name": "",
							"type": "uint256"
						},
						{
							"internalType": "uint256",
							"name": "",
							"type": "uint256"
						}
					],
					"stateMutability": "view",
					"type": "function"
				},
				{
					"inputs": [],
					"name": "owner",
					"outputs": [
						{
							"internalType": "address",
							"name": "",
							"type": "address"
						}
					],
					"stateMutability": "view",
					"type": "function"
				},
				{
					"inputs": [],
					"name": "productCount",
					"outputs": [
						{
							"internalType": "uint256",
							"name": "",
							"type": "uint256"
						}
					],
					"stateMutability": "view",
					"type": "function"
				},
				{
					"inputs": [
						{
							"internalType": "uint256",
							"name": "",
							"type": "uint256"
						}
					],
					"name": "products",
					"outputs": [
						{
							"internalType": "string",
							"name": "name",
							"type": "string"
						},
						{
							"internalType": "uint256",
							"name": "price",
							"type": "uint256"
						},
						{
							"internalType": "uint256",
							"name": "stock",
							"type": "uint256"
						}
					],
					"stateMutability": "view",
					"type": "function"
				},
				{
					"inputs": [
						{
							"internalType": "uint256",
							"name": "_id",
							"type": "uint256"
						},
						{
							"internalType": "string",
							"name": "_name",
							"type": "string"
						},
						{
							"internalType": "uint256",
							"name": "_price",
							"type": "uint256"
						},
						{
							"internalType": "uint256",
							"name": "_stock",
							"type": "uint256"
						}
					],
					"name": "updateProduct",
					"outputs": [],
					"stateMutability": "nonpayable",
					"type": "function"
				}
			],
			"devdoc": {
				"kind": "dev",
				"methods": {},
				"version": 1
			},
			"evm": {
				"assembly": "    /* \"contracts/6_MarcheDecentralise.sol\":74:1935  contract MarcheDecentralise {... */\n  mstore(0x40, 0x80)\n    /* \"contracts/6_MarcheDecentralise.sol\":585:636  constructor() {... */\n  callvalue\n  dup1\n  iszero\n  tag_1\n  jumpi\n  0x00\n  dup1\n  revert\ntag_1:\n  pop\n    /* \"contracts/6_MarcheDecentralise.sol\":618:628  msg.sender */\n  caller\n    /* \"contracts/6_MarcheDecentralise.sol\":610:615  owner */\n  0x02\n  0x00\n    /* \"contracts/6_MarcheDecentralise.sol\":610:628  owner = msg.sender */\n  0x0100\n  exp\n  dup2\n  sload\n  dup2\n  0xffffffffffffffffffffffffffffffffffffffff\n  mul\n  not\n  and\n  swap1\n  dup4\n  0xffffffffffffffffffffffffffffffffffffffff\n  and\n  mul\n  or\n  swap1\n  sstore\n  pop\n    /* \"contracts/6_MarcheDecentralise.sol\":74:1935  contract MarcheDecentralise {... */\n  dataSize(sub_0)\n  dup1\n  dataOffset(sub_0)\n  0x00\n  codecopy\n  0x00\n  return\nstop\n\nsub_0: assembly {\n        /* \"contracts/6_MarcheDecentralise.sol\":74:1935  contract MarcheDecentralise {... */\n      mstore(0x40, 0x80)\n      callvalue\n      dup1\n      iszero\n      tag_1\n      jumpi\n      0x00\n      dup1\n      revert\n    tag_1:\n      pop\n      jumpi(tag_2, lt(calldatasize, 0x04))\n      shr(0xe0, calldataload(0x00))\n      dup1\n      0x8da5cb5b\n      gt\n      tag_11\n      jumpi\n      dup1\n      0x8da5cb5b\n      eq\n      tag_7\n      jumpi\n      dup1\n      0xb9db15b4\n      eq\n      tag_8\n      jumpi\n      dup1\n      0xe0f6ef87\n      eq\n      tag_9\n      jumpi\n      dup1\n      0xed90c7b7\n      eq\n      tag_10\n      jumpi\n      jump(tag_2)\n    tag_11:\n      dup1\n      0x125b0b34\n      eq\n      tag_3\n      jumpi\n      dup1\n      0x2d561787\n      eq\n      tag_4\n      jumpi\n      dup1\n      0x7acc0b20\n      eq\n      tag_5\n      jumpi\n      dup1\n      0x8a7adee0\n      eq\n      tag_6\n      jumpi\n    tag_2:\n      0x00\n      dup1\n      revert\n        /* \"contracts/6_MarcheDecentralise.sol\":644:878  function addProduct(string memory _name, uint _price, uint _stock) external onlyOwner {... */\n    tag_3:\n      tag_12\n      0x04\n      dup1\n      calldatasize\n      sub\n      dup2\n      add\n      swap1\n      tag_13\n      swap2\n      swap1\n      tag_14\n      jump\t// in\n    tag_13:\n      tag_15\n      jump\t// in\n    tag_12:\n      stop\n        /* \"contracts/6_MarcheDecentralise.sol\":886:1256  function updateProduct(uint _id, string memory _name, uint _price, uint _stock) external onlyOwner {... */\n    tag_4:\n      tag_16\n      0x04\n      dup1\n      calldatasize\n      sub\n      dup2\n      add\n      swap1\n      tag_17\n      swap2\n      swap1\n      tag_18\n      jump\t// in\n    tag_17:\n      tag_19\n      jump\t// in\n    tag_16:\n      stop\n        /* \"contracts/6_MarcheDecentralise.sol\":204:244  mapping(uint => Product) public products */\n    tag_5:\n      tag_20\n      0x04\n      dup1\n      calldatasize\n      sub\n      dup2\n      add\n      swap1\n      tag_21\n      swap2\n      swap1\n      tag_22\n      jump\t// in\n    tag_21:\n      tag_23\n      jump\t// in\n    tag_20:\n      mload(0x40)\n      tag_24\n      swap4\n      swap3\n      swap2\n      swap1\n      tag_25\n      jump\t// in\n    tag_24:\n      mload(0x40)\n      dup1\n      swap2\n      sub\n      swap1\n      return\n        /* \"contracts/6_MarcheDecentralise.sol\":1751:1932  function copyProduct(uint _id) public view returns (Product memory) {... */\n    tag_6:\n      tag_26\n      0x04\n      dup1\n      calldatasize\n      sub\n      dup2\n      add\n      swap1\n      tag_27\n      swap2\n      swap1\n      tag_22\n      jump\t// in\n    tag_27:\n      tag_28\n      jump\t// in\n    tag_26:\n      mload(0x40)\n      tag_29\n      swap2\n      swap1\n      tag_30\n      jump\t// in\n    tag_29:\n      mload(0x40)\n      dup1\n      swap2\n      sub\n      swap1\n      return\n        /* \"contracts/6_MarcheDecentralise.sol\":282:302  address public owner */\n    tag_7:\n      tag_31\n      tag_32\n      jump\t// in\n    tag_31:\n      mload(0x40)\n      tag_33\n      swap2\n      swap1\n      tag_34\n      jump\t// in\n    tag_33:\n      mload(0x40)\n      dup1\n      swap2\n      sub\n      swap1\n      return\n        /* \"contracts/6_MarcheDecentralise.sol\":1472:1743  function getProduct(uint _id) public view returns (string memory, uint, uint) {... */\n    tag_8:\n      tag_35\n      0x04\n      dup1\n      calldatasize\n      sub\n      dup2\n      add\n      swap1\n      tag_36\n      swap2\n      swap1\n      tag_22\n      jump\t// in\n    tag_36:\n      tag_37\n      jump\t// in\n    tag_35:\n      mload(0x40)\n      tag_38\n      swap4\n      swap3\n      swap2\n      swap1\n      tag_25\n      jump\t// in\n    tag_38:\n      mload(0x40)\n      dup1\n      swap2\n      sub\n      swap1\n      return\n        /* \"contracts/6_MarcheDecentralise.sol\":251:275  uint public productCount */\n    tag_9:\n      tag_39\n      tag_40\n      jump\t// in\n    tag_39:\n      mload(0x40)\n      tag_41\n      swap2\n      swap1\n      tag_42\n      jump\t// in\n    tag_41:\n      mload(0x40)\n      dup1\n      swap2\n      sub\n      swap1\n      return\n        /* \"contracts/6_MarcheDecentralise.sol\":1264:1464  function deleteProduct(uint _id) external onlyOwner {... */\n    tag_10:\n      tag_43\n      0x04\n      dup1\n      calldatasize\n      sub\n      dup2\n      add\n      swap1\n      tag_44\n      swap2\n      swap1\n      tag_22\n      jump\t// in\n    tag_44:\n      tag_45\n      jump\t// in\n    tag_43:\n      stop\n        /* \"contracts/6_MarcheDecentralise.sol\":644:878  function addProduct(string memory _name, uint _price, uint _stock) external onlyOwner {... */\n    tag_15:\n        /* \"contracts/6_MarcheDecentralise.sol\":499:504  owner */\n      0x02\n      0x00\n      swap1\n      sload\n      swap1\n      0x0100\n      exp\n      swap1\n      div\n      0xffffffffffffffffffffffffffffffffffffffff\n      and\n        /* \"contracts/6_MarcheDecentralise.sol\":485:504  msg.sender == owner */\n      0xffffffffffffffffffffffffffffffffffffffff\n      and\n        /* \"contracts/6_MarcheDecentralise.sol\":485:495  msg.sender */\n      caller\n        /* \"contracts/6_MarcheDecentralise.sol\":485:504  msg.sender == owner */\n      0xffffffffffffffffffffffffffffffffffffffff\n      and\n      eq\n        /* \"contracts/6_MarcheDecentralise.sol\":477:557  require(msg.sender == owner, \"Seul le proprietaire peut effectuer cette action\") */\n      tag_47\n      jumpi\n      mload(0x40)\n      0x08c379a000000000000000000000000000000000000000000000000000000000\n      dup2\n      mstore\n      0x04\n      add\n      tag_48\n      swap1\n      tag_49\n      jump\t// in\n    tag_48:\n      mload(0x40)\n      dup1\n      swap2\n      sub\n      swap1\n      revert\n    tag_47:\n        /* \"contracts/6_MarcheDecentralise.sol\":741:753  productCount */\n      0x01\n      0x00\n        /* \"contracts/6_MarcheDecentralise.sol\":741:755  productCount++ */\n      dup2\n      sload\n      dup1\n      swap3\n      swap2\n      swap1\n      tag_51\n      swap1\n      tag_52\n      jump\t// in\n    tag_51:\n      swap2\n      swap1\n      pop\n      sstore\n      pop\n        /* \"contracts/6_MarcheDecentralise.sol\":791:821  Product(_name, _price, _stock) */\n      mload(0x40)\n      dup1\n      0x60\n      add\n      0x40\n      mstore\n      dup1\n        /* \"contracts/6_MarcheDecentralise.sol\":799:804  _name */\n      dup5\n        /* \"contracts/6_MarcheDecentralise.sol\":791:821  Product(_name, _price, _stock) */\n      dup2\n      mstore\n      0x20\n      add\n        /* \"contracts/6_MarcheDecentralise.sol\":806:812  _price */\n      dup4\n        /* \"contracts/6_MarcheDecentralise.sol\":791:821  Product(_name, _price, _stock) */\n      dup2\n      mstore\n      0x20\n      add\n        /* \"contracts/6_MarcheDecentralise.sol\":814:820  _stock */\n      dup3\n        /* \"contracts/6_MarcheDecentralise.sol\":791:821  Product(_name, _price, _stock) */\n      dup2\n      mstore\n      pop\n        /* \"contracts/6_MarcheDecentralise.sol\":766:774  products */\n      0x00\n        /* \"contracts/6_MarcheDecentralise.sol\":766:788  products[productCount] */\n      dup1\n        /* \"contracts/6_MarcheDecentralise.sol\":775:787  productCount */\n      sload(0x01)\n        /* \"contracts/6_MarcheDecentralise.sol\":766:788  products[productCount] */\n      dup2\n      mstore\n      0x20\n      add\n      swap1\n      dup2\n      mstore\n      0x20\n      add\n      0x00\n      keccak256\n        /* \"contracts/6_MarcheDecentralise.sol\":766:821  products[productCount] = Product(_name, _price, _stock) */\n      0x00\n      dup3\n      add\n      mload\n      dup2\n      0x00\n      add\n      swap1\n      dup2\n      tag_53\n      swap2\n      swap1\n      tag_54\n      jump\t// in\n    tag_53:\n      pop\n      0x20\n      dup3\n      add\n      mload\n      dup2\n      0x01\n      add\n      sstore\n      0x40\n      dup3\n      add\n      mload\n      dup2\n      0x02\n      add\n      sstore\n      swap1\n      pop\n      pop\n        /* \"contracts/6_MarcheDecentralise.sol\":837:870  ProductAdded(productCount, _name) */\n      0x259101de1f87b04b9ee0332ce5e3cc508014004bf283424aead6cd8692f5cf98\n        /* \"contracts/6_MarcheDecentralise.sol\":850:862  productCount */\n      sload(0x01)\n        /* \"contracts/6_MarcheDecentralise.sol\":864:869  _name */\n      dup5\n        /* \"contracts/6_MarcheDecentralise.sol\":837:870  ProductAdded(productCount, _name) */\n      mload(0x40)\n      tag_55\n      swap3\n      swap2\n      swap1\n      tag_56\n      jump\t// in\n    tag_55:\n      mload(0x40)\n      dup1\n      swap2\n      sub\n      swap1\n      log1\n        /* \"contracts/6_MarcheDecentralise.sol\":644:878  function addProduct(string memory _name, uint _price, uint _stock) external onlyOwner {... */\n      pop\n      pop\n      pop\n      jump\t// out\n        /* \"contracts/6_MarcheDecentralise.sol\":886:1256  function updateProduct(uint _id, string memory _name, uint _price, uint _stock) external onlyOwner {... */\n    tag_19:\n        /* \"contracts/6_MarcheDecentralise.sol\":499:504  owner */\n      0x02\n      0x00\n      swap1\n      sload\n      swap1\n      0x0100\n      exp\n      swap1\n      div\n      0xffffffffffffffffffffffffffffffffffffffff\n      and\n        /* \"contracts/6_MarcheDecentralise.sol\":485:504  msg.sender == owner */\n      0xffffffffffffffffffffffffffffffffffffffff\n      and\n        /* \"contracts/6_MarcheDecentralise.sol\":485:495  msg.sender */\n      caller\n        /* \"contracts/6_MarcheDecentralise.sol\":485:504  msg.sender == owner */\n      0xffffffffffffffffffffffffffffffffffffffff\n      and\n      eq\n        /* \"contracts/6_MarcheDecentralise.sol\":477:557  require(msg.sender == owner, \"Seul le proprietaire peut effectuer cette action\") */\n      tag_58\n      jumpi\n      mload(0x40)\n      0x08c379a000000000000000000000000000000000000000000000000000000000\n      dup2\n      mstore\n      0x04\n      add\n      tag_59\n      swap1\n      tag_49\n      jump\t// in\n    tag_59:\n      mload(0x40)\n      dup1\n      swap2\n      sub\n      swap1\n      revert\n    tag_58:\n        /* \"contracts/6_MarcheDecentralise.sol\":1010:1011  0 */\n      0x00\n        /* \"contracts/6_MarcheDecentralise.sol\":1004:1007  _id */\n      dup5\n        /* \"contracts/6_MarcheDecentralise.sol\":1004:1011  _id > 0 */\n      gt\n        /* \"contracts/6_MarcheDecentralise.sol\":1004:1034  _id > 0 && _id <= productCount */\n      dup1\n      iszero\n      tag_61\n      jumpi\n      pop\n        /* \"contracts/6_MarcheDecentralise.sol\":1022:1034  productCount */\n      sload(0x01)\n        /* \"contracts/6_MarcheDecentralise.sol\":1015:1018  _id */\n      dup5\n        /* \"contracts/6_MarcheDecentralise.sol\":1015:1034  _id <= productCount */\n      gt\n      iszero\n        /* \"contracts/6_MarcheDecentralise.sol\":1004:1034  _id > 0 && _id <= productCount */\n    tag_61:\n        /* \"contracts/6_MarcheDecentralise.sol\":996:1059  require(_id > 0 && _id <= productCount, \"Produit non existant\") */\n      tag_62\n      jumpi\n      mload(0x40)\n      0x08c379a000000000000000000000000000000000000000000000000000000000\n      dup2\n      mstore\n      0x04\n      add\n      tag_63\n      swap1\n      tag_64\n      jump\t// in\n    tag_63:\n      mload(0x40)\n      dup1\n      swap2\n      sub\n      swap1\n      revert\n    tag_62:\n        /* \"contracts/6_MarcheDecentralise.sol\":1070:1093  Product storage product */\n      0x00\n        /* \"contracts/6_MarcheDecentralise.sol\":1096:1104  products */\n      dup1\n        /* \"contracts/6_MarcheDecentralise.sol\":1096:1109  products[_id] */\n      0x00\n        /* \"contracts/6_MarcheDecentralise.sol\":1105:1108  _id */\n      dup7\n        /* \"contracts/6_MarcheDecentralise.sol\":1096:1109  products[_id] */\n      dup2\n      mstore\n      0x20\n      add\n      swap1\n      dup2\n      mstore\n      0x20\n      add\n      0x00\n      keccak256\n        /* \"contracts/6_MarcheDecentralise.sol\":1070:1109  Product storage product = products[_id] */\n      swap1\n      pop\n        /* \"contracts/6_MarcheDecentralise.sol\":1135:1140  _name */\n      dup4\n        /* \"contracts/6_MarcheDecentralise.sol\":1120:1127  product */\n      dup2\n        /* \"contracts/6_MarcheDecentralise.sol\":1120:1132  product.name */\n      0x00\n      add\n        /* \"contracts/6_MarcheDecentralise.sol\":1120:1140  product.name = _name */\n      swap1\n      dup2\n      tag_65\n      swap2\n      swap1\n      tag_54\n      jump\t// in\n    tag_65:\n      pop\n        /* \"contracts/6_MarcheDecentralise.sol\":1167:1173  _price */\n      dup3\n        /* \"contracts/6_MarcheDecentralise.sol\":1151:1158  product */\n      dup2\n        /* \"contracts/6_MarcheDecentralise.sol\":1151:1164  product.price */\n      0x01\n      add\n        /* \"contracts/6_MarcheDecentralise.sol\":1151:1173  product.price = _price */\n      dup2\n      swap1\n      sstore\n      pop\n        /* \"contracts/6_MarcheDecentralise.sol\":1200:1206  _stock */\n      dup2\n        /* \"contracts/6_MarcheDecentralise.sol\":1184:1191  product */\n      dup2\n        /* \"contracts/6_MarcheDecentralise.sol\":1184:1197  product.stock */\n      0x02\n      add\n        /* \"contracts/6_MarcheDecentralise.sol\":1184:1206  product.stock = _stock */\n      dup2\n      swap1\n      sstore\n      pop\n        /* \"contracts/6_MarcheDecentralise.sol\":1222:1248  ProductUpdated(_id, _name) */\n      0xdad7092ee1ca215307c34b5dd865bb1f9be7e1f0110d230eaefd78fa4742903e\n        /* \"contracts/6_MarcheDecentralise.sol\":1237:1240  _id */\n      dup6\n        /* \"contracts/6_MarcheDecentralise.sol\":1242:1247  _name */\n      dup6\n        /* \"contracts/6_MarcheDecentralise.sol\":1222:1248  ProductUpdated(_id, _name) */\n      mload(0x40)\n      tag_66\n      swap3\n      swap2\n      swap1\n      tag_56\n      jump\t// in\n    tag_66:\n      mload(0x40)\n      dup1\n      swap2\n      sub\n      swap1\n      log1\n        /* \"contracts/6_MarcheDecentralise.sol\":985:1256  {... */\n      pop\n        /* \"contracts/6_MarcheDecentralise.sol\":886:1256  function updateProduct(uint _id, string memory _name, uint _price, uint _stock) external onlyOwner {... */\n      pop\n      pop\n      pop\n      pop\n      jump\t// out\n        /* \"contracts/6_MarcheDecentralise.sol\":204:244  mapping(uint => Product) public products */\n    tag_23:\n      mstore(0x20, 0x00)\n      dup1\n      0x00\n      mstore\n      keccak256(0x00, 0x40)\n      0x00\n      swap2\n      pop\n      swap1\n      pop\n      dup1\n      0x00\n      add\n      dup1\n      sload\n      tag_67\n      swap1\n      tag_68\n      jump\t// in\n    tag_67:\n      dup1\n      0x1f\n      add\n      0x20\n      dup1\n      swap2\n      div\n      mul\n      0x20\n      add\n      mload(0x40)\n      swap1\n      dup2\n      add\n      0x40\n      mstore\n      dup1\n      swap3\n      swap2\n      swap1\n      dup2\n      dup2\n      mstore\n      0x20\n      add\n      dup3\n      dup1\n      sload\n      tag_69\n      swap1\n      tag_68\n      jump\t// in\n    tag_69:\n      dup1\n      iszero\n      tag_70\n      jumpi\n      dup1\n      0x1f\n      lt\n      tag_71\n      jumpi\n      0x0100\n      dup1\n      dup4\n      sload\n      div\n      mul\n      dup4\n      mstore\n      swap2\n      0x20\n      add\n      swap2\n      jump(tag_70)\n    tag_71:\n      dup3\n      add\n      swap2\n      swap1\n      0x00\n      mstore\n      keccak256(0x00, 0x20)\n      swap1\n    tag_72:\n      dup2\n      sload\n      dup2\n      mstore\n      swap1\n      0x01\n      add\n      swap1\n      0x20\n      add\n      dup1\n      dup4\n      gt\n      tag_72\n      jumpi\n      dup3\n      swap1\n      sub\n      0x1f\n      and\n      dup3\n      add\n      swap2\n    tag_70:\n      pop\n      pop\n      pop\n      pop\n      pop\n      swap1\n      dup1\n      0x01\n      add\n      sload\n      swap1\n      dup1\n      0x02\n      add\n      sload\n      swap1\n      pop\n      dup4\n      jump\t// out\n        /* \"contracts/6_MarcheDecentralise.sol\":1751:1932  function copyProduct(uint _id) public view returns (Product memory) {... */\n    tag_28:\n        /* \"contracts/6_MarcheDecentralise.sol\":1803:1817  Product memory */\n      tag_73\n      tag_74\n      jump\t// in\n    tag_73:\n        /* \"contracts/6_MarcheDecentralise.sol\":1844:1845  0 */\n      0x00\n        /* \"contracts/6_MarcheDecentralise.sol\":1838:1841  _id */\n      dup3\n        /* \"contracts/6_MarcheDecentralise.sol\":1838:1845  _id > 0 */\n      gt\n        /* \"contracts/6_MarcheDecentralise.sol\":1838:1868  _id > 0 && _id <= productCount */\n      dup1\n      iszero\n      tag_76\n      jumpi\n      pop\n        /* \"contracts/6_MarcheDecentralise.sol\":1856:1868  productCount */\n      sload(0x01)\n        /* \"contracts/6_MarcheDecentralise.sol\":1849:1852  _id */\n      dup3\n        /* \"contracts/6_MarcheDecentralise.sol\":1849:1868  _id <= productCount */\n      gt\n      iszero\n        /* \"contracts/6_MarcheDecentralise.sol\":1838:1868  _id > 0 && _id <= productCount */\n    tag_76:\n        /* \"contracts/6_MarcheDecentralise.sol\":1830:1893  require(_id > 0 && _id <= productCount, \"Produit non existant\") */\n      tag_77\n      jumpi\n      mload(0x40)\n      0x08c379a000000000000000000000000000000000000000000000000000000000\n      dup2\n      mstore\n      0x04\n      add\n      tag_78\n      swap1\n      tag_64\n      jump\t// in\n    tag_78:\n      mload(0x40)\n      dup1\n      swap2\n      sub\n      swap1\n      revert\n    tag_77:\n        /* \"contracts/6_MarcheDecentralise.sol\":1911:1919  products */\n      0x00\n        /* \"contracts/6_MarcheDecentralise.sol\":1911:1924  products[_id] */\n      dup1\n        /* \"contracts/6_MarcheDecentralise.sol\":1920:1923  _id */\n      dup4\n        /* \"contracts/6_MarcheDecentralise.sol\":1911:1924  products[_id] */\n      dup2\n      mstore\n      0x20\n      add\n      swap1\n      dup2\n      mstore\n      0x20\n      add\n      0x00\n      keccak256\n        /* \"contracts/6_MarcheDecentralise.sol\":1904:1924  return products[_id] */\n      mload(0x40)\n      dup1\n      0x60\n      add\n      0x40\n      mstore\n      swap1\n      dup2\n      0x00\n      dup3\n      add\n      dup1\n      sload\n      tag_79\n      swap1\n      tag_68\n      jump\t// in\n    tag_79:\n      dup1\n      0x1f\n      add\n      0x20\n      dup1\n      swap2\n      div\n      mul\n      0x20\n      add\n      mload(0x40)\n      swap1\n      dup2\n      add\n      0x40\n      mstore\n      dup1\n      swap3\n      swap2\n      swap1\n      dup2\n      dup2\n      mstore\n      0x20\n      add\n      dup3\n      dup1\n      sload\n      tag_80\n      swap1\n      tag_68\n      jump\t// in\n    tag_80:\n      dup1\n      iszero\n      tag_81\n      jumpi\n      dup1\n      0x1f\n      lt\n      tag_82\n      jumpi\n      0x0100\n      dup1\n      dup4\n      sload\n      div\n      mul\n      dup4\n      mstore\n      swap2\n      0x20\n      add\n      swap2\n      jump(tag_81)\n    tag_82:\n      dup3\n      add\n      swap2\n      swap1\n      0x00\n      mstore\n      keccak256(0x00, 0x20)\n      swap1\n    tag_83:\n      dup2\n      sload\n      dup2\n      mstore\n      swap1\n      0x01\n      add\n      swap1\n      0x20\n      add\n      dup1\n      dup4\n      gt\n      tag_83\n      jumpi\n      dup3\n      swap1\n      sub\n      0x1f\n      and\n      dup3\n      add\n      swap2\n    tag_81:\n      pop\n      pop\n      pop\n      pop\n      pop\n      dup2\n      mstore\n      0x20\n      add\n      0x01\n      dup3\n      add\n      sload\n      dup2\n      mstore\n      0x20\n      add\n      0x02\n      dup3\n      add\n      sload\n      dup2\n      mstore\n      pop\n      pop\n      swap1\n      pop\n        /* \"contracts/6_MarcheDecentralise.sol\":1751:1932  function copyProduct(uint _id) public view returns (Product memory) {... */\n      swap2\n      swap1\n      pop\n      jump\t// out\n        /* \"contracts/6_MarcheDecentralise.sol\":282:302  address public owner */\n    tag_32:\n      0x02\n      0x00\n      swap1\n      sload\n      swap1\n      0x0100\n      exp\n      swap1\n      div\n      0xffffffffffffffffffffffffffffffffffffffff\n      and\n      dup2\n      jump\t// out\n        /* \"contracts/6_MarcheDecentralise.sol\":1472:1743  function getProduct(uint _id) public view returns (string memory, uint, uint) {... */\n    tag_37:\n        /* \"contracts/6_MarcheDecentralise.sol\":1523:1536  string memory */\n      0x60\n        /* \"contracts/6_MarcheDecentralise.sol\":1538:1542  uint */\n      0x00\n        /* \"contracts/6_MarcheDecentralise.sol\":1544:1548  uint */\n      dup1\n        /* \"contracts/6_MarcheDecentralise.sol\":1575:1576  0 */\n      0x00\n        /* \"contracts/6_MarcheDecentralise.sol\":1569:1572  _id */\n      dup5\n        /* \"contracts/6_MarcheDecentralise.sol\":1569:1576  _id > 0 */\n      gt\n        /* \"contracts/6_MarcheDecentralise.sol\":1569:1599  _id > 0 && _id <= productCount */\n      dup1\n      iszero\n      tag_85\n      jumpi\n      pop\n        /* \"contracts/6_MarcheDecentralise.sol\":1587:1599  productCount */\n      sload(0x01)\n        /* \"contracts/6_MarcheDecentralise.sol\":1580:1583  _id */\n      dup5\n        /* \"contracts/6_MarcheDecentralise.sol\":1580:1599  _id <= productCount */\n      gt\n      iszero\n        /* \"contracts/6_MarcheDecentralise.sol\":1569:1599  _id > 0 && _id <= productCount */\n    tag_85:\n        /* \"contracts/6_MarcheDecentralise.sol\":1561:1624  require(_id > 0 && _id <= productCount, \"Produit non existant\") */\n      tag_86\n      jumpi\n      mload(0x40)\n      0x08c379a000000000000000000000000000000000000000000000000000000000\n      dup2\n      mstore\n      0x04\n      add\n      tag_87\n      swap1\n      tag_64\n      jump\t// in\n    tag_87:\n      mload(0x40)\n      dup1\n      swap2\n      sub\n      swap1\n      revert\n    tag_86:\n        /* \"contracts/6_MarcheDecentralise.sol\":1635:1657  Product memory product */\n      0x00\n        /* \"contracts/6_MarcheDecentralise.sol\":1660:1668  products */\n      dup1\n        /* \"contracts/6_MarcheDecentralise.sol\":1660:1673  products[_id] */\n      0x00\n        /* \"contracts/6_MarcheDecentralise.sol\":1669:1672  _id */\n      dup7\n        /* \"contracts/6_MarcheDecentralise.sol\":1660:1673  products[_id] */\n      dup2\n      mstore\n      0x20\n      add\n      swap1\n      dup2\n      mstore\n      0x20\n      add\n      0x00\n      keccak256\n        /* \"contracts/6_MarcheDecentralise.sol\":1635:1673  Product memory product = products[_id] */\n      mload(0x40)\n      dup1\n      0x60\n      add\n      0x40\n      mstore\n      swap1\n      dup2\n      0x00\n      dup3\n      add\n      dup1\n      sload\n      tag_88\n      swap1\n      tag_68\n      jump\t// in\n    tag_88:\n      dup1\n      0x1f\n      add\n      0x20\n      dup1\n      swap2\n      div\n      mul\n      0x20\n      add\n      mload(0x40)\n      swap1\n      dup2\n      add\n      0x40\n      mstore\n      dup1\n      swap3\n      swap2\n      swap1\n      dup2\n      dup2\n      mstore\n      0x20\n      add\n      dup3\n      dup1\n      sload\n      tag_89\n      swap1\n      tag_68\n      jump\t// in\n    tag_89:\n      dup1\n      iszero\n      tag_90\n      jumpi\n      dup1\n      0x1f\n      lt\n      tag_91\n      jumpi\n      0x0100\n      dup1\n      dup4\n      sload\n      div\n      mul\n      dup4\n      mstore\n      swap2\n      0x20\n      add\n      swap2\n      jump(tag_90)\n    tag_91:\n      dup3\n      add\n      swap2\n      swap1\n      0x00\n      mstore\n      keccak256(0x00, 0x20)\n      swap1\n    tag_92:\n      dup2\n      sload\n      dup2\n      mstore\n      swap1\n      0x01\n      add\n      swap1\n      0x20\n      add\n      dup1\n      dup4\n      gt\n      tag_92\n      jumpi\n      dup3\n      swap1\n      sub\n      0x1f\n      and\n      dup3\n      add\n      swap2\n    tag_90:\n      pop\n      pop\n      pop\n      pop\n      pop\n      dup2\n      mstore\n      0x20\n      add\n      0x01\n      dup3\n      add\n      sload\n      dup2\n      mstore\n      0x20\n      add\n      0x02\n      dup3\n      add\n      sload\n      dup2\n      mstore\n      pop\n      pop\n      swap1\n      pop\n        /* \"contracts/6_MarcheDecentralise.sol\":1692:1699  product */\n      dup1\n        /* \"contracts/6_MarcheDecentralise.sol\":1692:1704  product.name */\n      0x00\n      add\n      mload\n        /* \"contracts/6_MarcheDecentralise.sol\":1706:1713  product */\n      dup2\n        /* \"contracts/6_MarcheDecentralise.sol\":1706:1719  product.price */\n      0x20\n      add\n      mload\n        /* \"contracts/6_MarcheDecentralise.sol\":1721:1728  product */\n      dup3\n        /* \"contracts/6_MarcheDecentralise.sol\":1721:1734  product.stock */\n      0x40\n      add\n      mload\n        /* \"contracts/6_MarcheDecentralise.sol\":1684:1735  return (product.name, product.price, product.stock) */\n      swap4\n      pop\n      swap4\n      pop\n      swap4\n      pop\n      pop\n        /* \"contracts/6_MarcheDecentralise.sol\":1472:1743  function getProduct(uint _id) public view returns (string memory, uint, uint) {... */\n      swap2\n      swap4\n      swap1\n      swap3\n      pop\n      jump\t// out\n        /* \"contracts/6_MarcheDecentralise.sol\":251:275  uint public productCount */\n    tag_40:\n      sload(0x01)\n      dup2\n      jump\t// out\n        /* \"contracts/6_MarcheDecentralise.sol\":1264:1464  function deleteProduct(uint _id) external onlyOwner {... */\n    tag_45:\n        /* \"contracts/6_MarcheDecentralise.sol\":499:504  owner */\n      0x02\n      0x00\n      swap1\n      sload\n      swap1\n      0x0100\n      exp\n      swap1\n      div\n      0xffffffffffffffffffffffffffffffffffffffff\n      and\n        /* \"contracts/6_MarcheDecentralise.sol\":485:504  msg.sender == owner */\n      0xffffffffffffffffffffffffffffffffffffffff\n      and\n        /* \"contracts/6_MarcheDecentralise.sol\":485:495  msg.sender */\n      caller\n        /* \"contracts/6_MarcheDecentralise.sol\":485:504  msg.sender == owner */\n      0xffffffffffffffffffffffffffffffffffffffff\n      and\n      eq\n        /* \"contracts/6_MarcheDecentralise.sol\":477:557  require(msg.sender == owner, \"Seul le proprietaire peut effectuer cette action\") */\n      tag_94\n      jumpi\n      mload(0x40)\n      0x08c379a000000000000000000000000000000000000000000000000000000000\n      dup2\n      mstore\n      0x04\n      add\n      tag_95\n      swap1\n      tag_49\n      jump\t// in\n    tag_95:\n      mload(0x40)\n      dup1\n      swap2\n      sub\n      swap1\n      revert\n    tag_94:\n        /* \"contracts/6_MarcheDecentralise.sol\":1341:1342  0 */\n      0x00\n        /* \"contracts/6_MarcheDecentralise.sol\":1335:1338  _id */\n      dup2\n        /* \"contracts/6_MarcheDecentralise.sol\":1335:1342  _id > 0 */\n      gt\n        /* \"contracts/6_MarcheDecentralise.sol\":1335:1365  _id > 0 && _id <= productCount */\n      dup1\n      iszero\n      tag_97\n      jumpi\n      pop\n        /* \"contracts/6_MarcheDecentralise.sol\":1353:1365  productCount */\n      sload(0x01)\n        /* \"contracts/6_MarcheDecentralise.sol\":1346:1349  _id */\n      dup2\n        /* \"contracts/6_MarcheDecentralise.sol\":1346:1365  _id <= productCount */\n      gt\n      iszero\n        /* \"contracts/6_MarcheDecentralise.sol\":1335:1365  _id > 0 && _id <= productCount */\n    tag_97:\n        /* \"contracts/6_MarcheDecentralise.sol\":1327:1390  require(_id > 0 && _id <= productCount, \"Produit non existant\") */\n      tag_98\n      jumpi\n      mload(0x40)\n      0x08c379a000000000000000000000000000000000000000000000000000000000\n      dup2\n      mstore\n      0x04\n      add\n      tag_99\n      swap1\n      tag_64\n      jump\t// in\n    tag_99:\n      mload(0x40)\n      dup1\n      swap2\n      sub\n      swap1\n      revert\n    tag_98:\n        /* \"contracts/6_MarcheDecentralise.sol\":1408:1416  products */\n      0x00\n        /* \"contracts/6_MarcheDecentralise.sol\":1408:1421  products[_id] */\n      dup1\n        /* \"contracts/6_MarcheDecentralise.sol\":1417:1420  _id */\n      dup3\n        /* \"contracts/6_MarcheDecentralise.sol\":1408:1421  products[_id] */\n      dup2\n      mstore\n      0x20\n      add\n      swap1\n      dup2\n      mstore\n      0x20\n      add\n      0x00\n      keccak256\n      0x00\n        /* \"contracts/6_MarcheDecentralise.sol\":1401:1421  delete products[_id] */\n      dup1\n      dup3\n      add\n      0x00\n      tag_100\n      swap2\n      swap1\n      tag_101\n      jump\t// in\n    tag_100:\n      0x01\n      dup3\n      add\n      0x00\n      swap1\n      sstore\n      0x02\n      dup3\n      add\n      0x00\n      swap1\n      sstore\n      pop\n      pop\n        /* \"contracts/6_MarcheDecentralise.sol\":1437:1456  ProductDeleted(_id) */\n      0xc341cf326465fe622f86c468249e8c0cb03ed23ba376a6a34863a1374ac7d769\n        /* \"contracts/6_MarcheDecentralise.sol\":1452:1455  _id */\n      dup2\n        /* \"contracts/6_MarcheDecentralise.sol\":1437:1456  ProductDeleted(_id) */\n      mload(0x40)\n      tag_102\n      swap2\n      swap1\n      tag_42\n      jump\t// in\n    tag_102:\n      mload(0x40)\n      dup1\n      swap2\n      sub\n      swap1\n      log1\n        /* \"contracts/6_MarcheDecentralise.sol\":1264:1464  function deleteProduct(uint _id) external onlyOwner {... */\n      pop\n      jump\t// out\n    tag_74:\n      mload(0x40)\n      dup1\n      0x60\n      add\n      0x40\n      mstore\n      dup1\n      0x60\n      dup2\n      mstore\n      0x20\n      add\n      0x00\n      dup2\n      mstore\n      0x20\n      add\n      0x00\n      dup2\n      mstore\n      pop\n      swap1\n      jump\t// out\n    tag_101:\n      pop\n      dup1\n      sload\n      tag_103\n      swap1\n      tag_68\n      jump\t// in\n    tag_103:\n      0x00\n      dup3\n      sstore\n      dup1\n      0x1f\n      lt\n      tag_105\n      jumpi\n      pop\n      jump(tag_104)\n    tag_105:\n      0x1f\n      add\n      0x20\n      swap1\n      div\n      swap1\n      0x00\n      mstore\n      keccak256(0x00, 0x20)\n      swap1\n      dup2\n      add\n      swap1\n      tag_106\n      swap2\n      swap1\n      tag_107\n      jump\t// in\n    tag_106:\n    tag_104:\n      pop\n      jump\t// out\n    tag_107:\n    tag_108:\n      dup1\n      dup3\n      gt\n      iszero\n      tag_109\n      jumpi\n      0x00\n      dup2\n      0x00\n      swap1\n      sstore\n      pop\n      0x01\n      add\n      jump(tag_108)\n    tag_109:\n      pop\n      swap1\n      jump\t// out\n        /* \"#utility.yul\":7:82   */\n    tag_110:\n        /* \"#utility.yul\":40:46   */\n      0x00\n        /* \"#utility.yul\":73:75   */\n      0x40\n        /* \"#utility.yul\":67:76   */\n      mload\n        /* \"#utility.yul\":57:76   */\n      swap1\n      pop\n        /* \"#utility.yul\":7:82   */\n      swap1\n      jump\t// out\n        /* \"#utility.yul\":88:205   */\n    tag_111:\n        /* \"#utility.yul\":197:198   */\n      0x00\n        /* \"#utility.yul\":194:195   */\n      dup1\n        /* \"#utility.yul\":187:199   */\n      revert\n        /* \"#utility.yul\":211:328   */\n    tag_112:\n        /* \"#utility.yul\":320:321   */\n      0x00\n        /* \"#utility.yul\":317:318   */\n      dup1\n        /* \"#utility.yul\":310:322   */\n      revert\n        /* \"#utility.yul\":334:451   */\n    tag_113:\n        /* \"#utility.yul\":443:444   */\n      0x00\n        /* \"#utility.yul\":440:441   */\n      dup1\n        /* \"#utility.yul\":433:445   */\n      revert\n        /* \"#utility.yul\":457:574   */\n    tag_114:\n        /* \"#utility.yul\":566:567   */\n      0x00\n        /* \"#utility.yul\":563:564   */\n      dup1\n        /* \"#utility.yul\":556:568   */\n      revert\n        /* \"#utility.yul\":580:682   */\n    tag_115:\n        /* \"#utility.yul\":621:627   */\n      0x00\n        /* \"#utility.yul\":672:674   */\n      0x1f\n        /* \"#utility.yul\":668:675   */\n      not\n        /* \"#utility.yul\":663:665   */\n      0x1f\n        /* \"#utility.yul\":656:661   */\n      dup4\n        /* \"#utility.yul\":652:666   */\n      add\n        /* \"#utility.yul\":648:676   */\n      and\n        /* \"#utility.yul\":638:676   */\n      swap1\n      pop\n        /* \"#utility.yul\":580:682   */\n      swap2\n      swap1\n      pop\n      jump\t// out\n        /* \"#utility.yul\":688:868   */\n    tag_116:\n        /* \"#utility.yul\":736:813   */\n      0x4e487b7100000000000000000000000000000000000000000000000000000000\n        /* \"#utility.yul\":733:734   */\n      0x00\n        /* \"#utility.yul\":726:814   */\n      mstore\n        /* \"#utility.yul\":833:837   */\n      0x41\n        /* \"#utility.yul\":830:831   */\n      0x04\n        /* \"#utility.yul\":823:838   */\n      mstore\n        /* \"#utility.yul\":857:861   */\n      0x24\n        /* \"#utility.yul\":854:855   */\n      0x00\n        /* \"#utility.yul\":847:862   */\n      revert\n        /* \"#utility.yul\":874:1155   */\n    tag_117:\n        /* \"#utility.yul\":957:984   */\n      tag_168\n        /* \"#utility.yul\":979:983   */\n      dup3\n        /* \"#utility.yul\":957:984   */\n      tag_115\n      jump\t// in\n    tag_168:\n        /* \"#utility.yul\":949:955   */\n      dup2\n        /* \"#utility.yul\":945:985   */\n      add\n        /* \"#utility.yul\":1087:1093   */\n      dup2\n        /* \"#utility.yul\":1075:1085   */\n      dup2\n        /* \"#utility.yul\":1072:1094   */\n      lt\n        /* \"#utility.yul\":1051:1069   */\n      0xffffffffffffffff\n        /* \"#utility.yul\":1039:1049   */\n      dup3\n        /* \"#utility.yul\":1036:1070   */\n      gt\n        /* \"#utility.yul\":1033:1095   */\n      or\n        /* \"#utility.yul\":1030:1118   */\n      iszero\n      tag_169\n      jumpi\n        /* \"#utility.yul\":1098:1116   */\n      tag_170\n      tag_116\n      jump\t// in\n    tag_170:\n        /* \"#utility.yul\":1030:1118   */\n    tag_169:\n        /* \"#utility.yul\":1138:1148   */\n      dup1\n        /* \"#utility.yul\":1134:1136   */\n      0x40\n        /* \"#utility.yul\":1127:1149   */\n      mstore\n        /* \"#utility.yul\":917:1155   */\n      pop\n        /* \"#utility.yul\":874:1155   */\n      pop\n      pop\n      jump\t// out\n        /* \"#utility.yul\":1161:1290   */\n    tag_118:\n        /* \"#utility.yul\":1195:1201   */\n      0x00\n        /* \"#utility.yul\":1222:1242   */\n      tag_172\n      tag_110\n      jump\t// in\n    tag_172:\n        /* \"#utility.yul\":1212:1242   */\n      swap1\n      pop\n        /* \"#utility.yul\":1251:1284   */\n      tag_173\n        /* \"#utility.yul\":1279:1283   */\n      dup3\n        /* \"#utility.yul\":1271:1277   */\n      dup3\n        /* \"#utility.yul\":1251:1284   */\n      tag_117\n      jump\t// in\n    tag_173:\n        /* \"#utility.yul\":1161:1290   */\n      swap2\n      swap1\n      pop\n      jump\t// out\n        /* \"#utility.yul\":1296:1604   */\n    tag_119:\n        /* \"#utility.yul\":1358:1362   */\n      0x00\n        /* \"#utility.yul\":1448:1466   */\n      0xffffffffffffffff\n        /* \"#utility.yul\":1440:1446   */\n      dup3\n        /* \"#utility.yul\":1437:1467   */\n      gt\n        /* \"#utility.yul\":1434:1490   */\n      iszero\n      tag_175\n      jumpi\n        /* \"#utility.yul\":1470:1488   */\n      tag_176\n      tag_116\n      jump\t// in\n    tag_176:\n        /* \"#utility.yul\":1434:1490   */\n    tag_175:\n        /* \"#utility.yul\":1508:1537   */\n      tag_177\n        /* \"#utility.yul\":1530:1536   */\n      dup3\n        /* \"#utility.yul\":1508:1537   */\n      tag_115\n      jump\t// in\n    tag_177:\n        /* \"#utility.yul\":1500:1537   */\n      swap1\n      pop\n        /* \"#utility.yul\":1592:1596   */\n      0x20\n        /* \"#utility.yul\":1586:1590   */\n      dup2\n        /* \"#utility.yul\":1582:1597   */\n      add\n        /* \"#utility.yul\":1574:1597   */\n      swap1\n      pop\n        /* \"#utility.yul\":1296:1604   */\n      swap2\n      swap1\n      pop\n      jump\t// out\n        /* \"#utility.yul\":1610:1758   */\n    tag_120:\n        /* \"#utility.yul\":1708:1714   */\n      dup3\n        /* \"#utility.yul\":1703:1706   */\n      dup2\n        /* \"#utility.yul\":1698:1701   */\n      dup4\n        /* \"#utility.yul\":1685:1715   */\n      calldatacopy\n        /* \"#utility.yul\":1749:1750   */\n      0x00\n        /* \"#utility.yul\":1740:1746   */\n      dup4\n        /* \"#utility.yul\":1735:1738   */\n      dup4\n        /* \"#utility.yul\":1731:1747   */\n      add\n        /* \"#utility.yul\":1724:1751   */\n      mstore\n        /* \"#utility.yul\":1610:1758   */\n      pop\n      pop\n      pop\n      jump\t// out\n        /* \"#utility.yul\":1764:2189   */\n    tag_121:\n        /* \"#utility.yul\":1842:1847   */\n      0x00\n        /* \"#utility.yul\":1867:1933   */\n      tag_180\n        /* \"#utility.yul\":1883:1932   */\n      tag_181\n        /* \"#utility.yul\":1925:1931   */\n      dup5\n        /* \"#utility.yul\":1883:1932   */\n      tag_119\n      jump\t// in\n    tag_181:\n        /* \"#utility.yul\":1867:1933   */\n      tag_118\n      jump\t// in\n    tag_180:\n        /* \"#utility.yul\":1858:1933   */\n      swap1\n      pop\n        /* \"#utility.yul\":1956:1962   */\n      dup3\n        /* \"#utility.yul\":1949:1954   */\n      dup2\n        /* \"#utility.yul\":1942:1963   */\n      mstore\n        /* \"#utility.yul\":1994:1998   */\n      0x20\n        /* \"#utility.yul\":1987:1992   */\n      dup2\n        /* \"#utility.yul\":1983:1999   */\n      add\n        /* \"#utility.yul\":2032:2035   */\n      dup5\n        /* \"#utility.yul\":2023:2029   */\n      dup5\n        /* \"#utility.yul\":2018:2021   */\n      dup5\n        /* \"#utility.yul\":2014:2030   */\n      add\n        /* \"#utility.yul\":2011:2036   */\n      gt\n        /* \"#utility.yul\":2008:2120   */\n      iszero\n      tag_182\n      jumpi\n        /* \"#utility.yul\":2039:2118   */\n      tag_183\n      tag_114\n      jump\t// in\n    tag_183:\n        /* \"#utility.yul\":2008:2120   */\n    tag_182:\n        /* \"#utility.yul\":2129:2183   */\n      tag_184\n        /* \"#utility.yul\":2176:2182   */\n      dup5\n        /* \"#utility.yul\":2171:2174   */\n      dup3\n        /* \"#utility.yul\":2166:2169   */\n      dup6\n        /* \"#utility.yul\":2129:2183   */\n      tag_120\n      jump\t// in\n    tag_184:\n        /* \"#utility.yul\":1848:2189   */\n      pop\n        /* \"#utility.yul\":1764:2189   */\n      swap4\n      swap3\n      pop\n      pop\n      pop\n      jump\t// out\n        /* \"#utility.yul\":2209:2549   */\n    tag_122:\n        /* \"#utility.yul\":2265:2270   */\n      0x00\n        /* \"#utility.yul\":2314:2317   */\n      dup3\n        /* \"#utility.yul\":2307:2311   */\n      0x1f\n        /* \"#utility.yul\":2299:2305   */\n      dup4\n        /* \"#utility.yul\":2295:2312   */\n      add\n        /* \"#utility.yul\":2291:2318   */\n      slt\n        /* \"#utility.yul\":2281:2403   */\n      tag_186\n      jumpi\n        /* \"#utility.yul\":2322:2401   */\n      tag_187\n      tag_113\n      jump\t// in\n    tag_187:\n        /* \"#utility.yul\":2281:2403   */\n    tag_186:\n        /* \"#utility.yul\":2439:2445   */\n      dup2\n        /* \"#utility.yul\":2426:2446   */\n      calldataload\n        /* \"#utility.yul\":2464:2543   */\n      tag_188\n        /* \"#utility.yul\":2539:2542   */\n      dup5\n        /* \"#utility.yul\":2531:2537   */\n      dup3\n        /* \"#utility.yul\":2524:2528   */\n      0x20\n        /* \"#utility.yul\":2516:2522   */\n      dup7\n        /* \"#utility.yul\":2512:2529   */\n      add\n        /* \"#utility.yul\":2464:2543   */\n      tag_121\n      jump\t// in\n    tag_188:\n        /* \"#utility.yul\":2455:2543   */\n      swap2\n      pop\n        /* \"#utility.yul\":2271:2549   */\n      pop\n        /* \"#utility.yul\":2209:2549   */\n      swap3\n      swap2\n      pop\n      pop\n      jump\t// out\n        /* \"#utility.yul\":2555:2632   */\n    tag_123:\n        /* \"#utility.yul\":2592:2599   */\n      0x00\n        /* \"#utility.yul\":2621:2626   */\n      dup2\n        /* \"#utility.yul\":2610:2626   */\n      swap1\n      pop\n        /* \"#utility.yul\":2555:2632   */\n      swap2\n      swap1\n      pop\n      jump\t// out\n        /* \"#utility.yul\":2638:2760   */\n    tag_124:\n        /* \"#utility.yul\":2711:2735   */\n      tag_191\n        /* \"#utility.yul\":2729:2734   */\n      dup2\n        /* \"#utility.yul\":2711:2735   */\n      tag_123\n      jump\t// in\n    tag_191:\n        /* \"#utility.yul\":2704:2709   */\n      dup2\n        /* \"#utility.yul\":2701:2736   */\n      eq\n        /* \"#utility.yul\":2691:2754   */\n      tag_192\n      jumpi\n        /* \"#utility.yul\":2750:2751   */\n      0x00\n        /* \"#utility.yul\":2747:2748   */\n      dup1\n        /* \"#utility.yul\":2740:2752   */\n      revert\n        /* \"#utility.yul\":2691:2754   */\n    tag_192:\n        /* \"#utility.yul\":2638:2760   */\n      pop\n      jump\t// out\n        /* \"#utility.yul\":2766:2905   */\n    tag_125:\n        /* \"#utility.yul\":2812:2817   */\n      0x00\n        /* \"#utility.yul\":2850:2856   */\n      dup2\n        /* \"#utility.yul\":2837:2857   */\n      calldataload\n        /* \"#utility.yul\":2828:2857   */\n      swap1\n      pop\n        /* \"#utility.yul\":2866:2899   */\n      tag_194\n        /* \"#utility.yul\":2893:2898   */\n      dup2\n        /* \"#utility.yul\":2866:2899   */\n      tag_124\n      jump\t// in\n    tag_194:\n        /* \"#utility.yul\":2766:2905   */\n      swap3\n      swap2\n      pop\n      pop\n      jump\t// out\n        /* \"#utility.yul\":2911:3710   */\n    tag_14:\n        /* \"#utility.yul\":2998:3004   */\n      0x00\n        /* \"#utility.yul\":3006:3012   */\n      dup1\n        /* \"#utility.yul\":3014:3020   */\n      0x00\n        /* \"#utility.yul\":3063:3065   */\n      0x60\n        /* \"#utility.yul\":3051:3060   */\n      dup5\n        /* \"#utility.yul\":3042:3049   */\n      dup7\n        /* \"#utility.yul\":3038:3061   */\n      sub\n        /* \"#utility.yul\":3034:3066   */\n      slt\n        /* \"#utility.yul\":3031:3150   */\n      iszero\n      tag_196\n      jumpi\n        /* \"#utility.yul\":3069:3148   */\n      tag_197\n      tag_111\n      jump\t// in\n    tag_197:\n        /* \"#utility.yul\":3031:3150   */\n    tag_196:\n        /* \"#utility.yul\":3217:3218   */\n      0x00\n        /* \"#utility.yul\":3206:3215   */\n      dup5\n        /* \"#utility.yul\":3202:3219   */\n      add\n        /* \"#utility.yul\":3189:3220   */\n      calldataload\n        /* \"#utility.yul\":3247:3265   */\n      0xffffffffffffffff\n        /* \"#utility.yul\":3239:3245   */\n      dup2\n        /* \"#utility.yul\":3236:3266   */\n      gt\n        /* \"#utility.yul\":3233:3350   */\n      iszero\n      tag_198\n      jumpi\n        /* \"#utility.yul\":3269:3348   */\n      tag_199\n      tag_112\n      jump\t// in\n    tag_199:\n        /* \"#utility.yul\":3233:3350   */\n    tag_198:\n        /* \"#utility.yul\":3374:3437   */\n      tag_200\n        /* \"#utility.yul\":3429:3436   */\n      dup7\n        /* \"#utility.yul\":3420:3426   */\n      dup3\n        /* \"#utility.yul\":3409:3418   */\n      dup8\n        /* \"#utility.yul\":3405:3427   */\n      add\n        /* \"#utility.yul\":3374:3437   */\n      tag_122\n      jump\t// in\n    tag_200:\n        /* \"#utility.yul\":3364:3437   */\n      swap4\n      pop\n        /* \"#utility.yul\":3160:3447   */\n      pop\n        /* \"#utility.yul\":3486:3488   */\n      0x20\n        /* \"#utility.yul\":3512:3565   */\n      tag_201\n        /* \"#utility.yul\":3557:3564   */\n      dup7\n        /* \"#utility.yul\":3548:3554   */\n      dup3\n        /* \"#utility.yul\":3537:3546   */\n      dup8\n        /* \"#utility.yul\":3533:3555   */\n      add\n        /* \"#utility.yul\":3512:3565   */\n      tag_125\n      jump\t// in\n    tag_201:\n        /* \"#utility.yul\":3502:3565   */\n      swap3\n      pop\n        /* \"#utility.yul\":3457:3575   */\n      pop\n        /* \"#utility.yul\":3614:3616   */\n      0x40\n        /* \"#utility.yul\":3640:3693   */\n      tag_202\n        /* \"#utility.yul\":3685:3692   */\n      dup7\n        /* \"#utility.yul\":3676:3682   */\n      dup3\n        /* \"#utility.yul\":3665:3674   */\n      dup8\n        /* \"#utility.yul\":3661:3683   */\n      add\n        /* \"#utility.yul\":3640:3693   */\n      tag_125\n      jump\t// in\n    tag_202:\n        /* \"#utility.yul\":3630:3693   */\n      swap2\n      pop\n        /* \"#utility.yul\":3585:3703   */\n      pop\n        /* \"#utility.yul\":2911:3710   */\n      swap3\n      pop\n      swap3\n      pop\n      swap3\n      jump\t// out\n        /* \"#utility.yul\":3716:4661   */\n    tag_18:\n        /* \"#utility.yul\":3812:3818   */\n      0x00\n        /* \"#utility.yul\":3820:3826   */\n      dup1\n        /* \"#utility.yul\":3828:3834   */\n      0x00\n        /* \"#utility.yul\":3836:3842   */\n      dup1\n        /* \"#utility.yul\":3885:3888   */\n      0x80\n        /* \"#utility.yul\":3873:3882   */\n      dup6\n        /* \"#utility.yul\":3864:3871   */\n      dup8\n        /* \"#utility.yul\":3860:3883   */\n      sub\n        /* \"#utility.yul\":3856:3889   */\n      slt\n        /* \"#utility.yul\":3853:3973   */\n      iszero\n      tag_204\n      jumpi\n        /* \"#utility.yul\":3892:3971   */\n      tag_205\n      tag_111\n      jump\t// in\n    tag_205:\n        /* \"#utility.yul\":3853:3973   */\n    tag_204:\n        /* \"#utility.yul\":4012:4013   */\n      0x00\n        /* \"#utility.yul\":4037:4090   */\n      tag_206\n        /* \"#utility.yul\":4082:4089   */\n      dup8\n        /* \"#utility.yul\":4073:4079   */\n      dup3\n        /* \"#utility.yul\":4062:4071   */\n      dup9\n        /* \"#utility.yul\":4058:4080   */\n      add\n        /* \"#utility.yul\":4037:4090   */\n      tag_125\n      jump\t// in\n    tag_206:\n        /* \"#utility.yul\":4027:4090   */\n      swap5\n      pop\n        /* \"#utility.yul\":3983:4100   */\n      pop\n        /* \"#utility.yul\":4167:4169   */\n      0x20\n        /* \"#utility.yul\":4156:4165   */\n      dup6\n        /* \"#utility.yul\":4152:4170   */\n      add\n        /* \"#utility.yul\":4139:4171   */\n      calldataload\n        /* \"#utility.yul\":4198:4216   */\n      0xffffffffffffffff\n        /* \"#utility.yul\":4190:4196   */\n      dup2\n        /* \"#utility.yul\":4187:4217   */\n      gt\n        /* \"#utility.yul\":4184:4301   */\n      iszero\n      tag_207\n      jumpi\n        /* \"#utility.yul\":4220:4299   */\n      tag_208\n      tag_112\n      jump\t// in\n    tag_208:\n        /* \"#utility.yul\":4184:4301   */\n    tag_207:\n        /* \"#utility.yul\":4325:4388   */\n      tag_209\n        /* \"#utility.yul\":4380:4387   */\n      dup8\n        /* \"#utility.yul\":4371:4377   */\n      dup3\n        /* \"#utility.yul\":4360:4369   */\n      dup9\n        /* \"#utility.yul\":4356:4378   */\n      add\n        /* \"#utility.yul\":4325:4388   */\n      tag_122\n      jump\t// in\n    tag_209:\n        /* \"#utility.yul\":4315:4388   */\n      swap4\n      pop\n        /* \"#utility.yul\":4110:4398   */\n      pop\n        /* \"#utility.yul\":4437:4439   */\n      0x40\n        /* \"#utility.yul\":4463:4516   */\n      tag_210\n        /* \"#utility.yul\":4508:4515   */\n      dup8\n        /* \"#utility.yul\":4499:4505   */\n      dup3\n        /* \"#utility.yul\":4488:4497   */\n      dup9\n        /* \"#utility.yul\":4484:4506   */\n      add\n        /* \"#utility.yul\":4463:4516   */\n      tag_125\n      jump\t// in\n    tag_210:\n        /* \"#utility.yul\":4453:4516   */\n      swap3\n      pop\n        /* \"#utility.yul\":4408:4526   */\n      pop\n        /* \"#utility.yul\":4565:4567   */\n      0x60\n        /* \"#utility.yul\":4591:4644   */\n      tag_211\n        /* \"#utility.yul\":4636:4643   */\n      dup8\n        /* \"#utility.yul\":4627:4633   */\n      dup3\n        /* \"#utility.yul\":4616:4625   */\n      dup9\n        /* \"#utility.yul\":4612:4634   */\n      add\n        /* \"#utility.yul\":4591:4644   */\n      tag_125\n      jump\t// in\n    tag_211:\n        /* \"#utility.yul\":4581:4644   */\n      swap2\n      pop\n        /* \"#utility.yul\":4536:4654   */\n      pop\n        /* \"#utility.yul\":3716:4661   */\n      swap3\n      swap6\n      swap2\n      swap5\n      pop\n      swap3\n      pop\n      jump\t// out\n        /* \"#utility.yul\":4667:4996   */\n    tag_22:\n        /* \"#utility.yul\":4726:4732   */\n      0x00\n        /* \"#utility.yul\":4775:4777   */\n      0x20\n        /* \"#utility.yul\":4763:4772   */\n      dup3\n        /* \"#utility.yul\":4754:4761   */\n      dup5\n        /* \"#utility.yul\":4750:4773   */\n      sub\n        /* \"#utility.yul\":4746:4778   */\n      slt\n        /* \"#utility.yul\":4743:4862   */\n      iszero\n      tag_213\n      jumpi\n        /* \"#utility.yul\":4781:4860   */\n      tag_214\n      tag_111\n      jump\t// in\n    tag_214:\n        /* \"#utility.yul\":4743:4862   */\n    tag_213:\n        /* \"#utility.yul\":4901:4902   */\n      0x00\n        /* \"#utility.yul\":4926:4979   */\n      tag_215\n        /* \"#utility.yul\":4971:4978   */\n      dup5\n        /* \"#utility.yul\":4962:4968   */\n      dup3\n        /* \"#utility.yul\":4951:4960   */\n      dup6\n        /* \"#utility.yul\":4947:4969   */\n      add\n        /* \"#utility.yul\":4926:4979   */\n      tag_125\n      jump\t// in\n    tag_215:\n        /* \"#utility.yul\":4916:4979   */\n      swap2\n      pop\n        /* \"#utility.yul\":4872:4989   */\n      pop\n        /* \"#utility.yul\":4667:4996   */\n      swap3\n      swap2\n      pop\n      pop\n      jump\t// out\n        /* \"#utility.yul\":5002:5101   */\n    tag_126:\n        /* \"#utility.yul\":5054:5060   */\n      0x00\n        /* \"#utility.yul\":5088:5093   */\n      dup2\n        /* \"#utility.yul\":5082:5094   */\n      mload\n        /* \"#utility.yul\":5072:5094   */\n      swap1\n      pop\n        /* \"#utility.yul\":5002:5101   */\n      swap2\n      swap1\n      pop\n      jump\t// out\n        /* \"#utility.yul\":5107:5276   */\n    tag_127:\n        /* \"#utility.yul\":5191:5202   */\n      0x00\n        /* \"#utility.yul\":5225:5231   */\n      dup3\n        /* \"#utility.yul\":5220:5223   */\n      dup3\n        /* \"#utility.yul\":5213:5232   */\n      mstore\n        /* \"#utility.yul\":5265:5269   */\n      0x20\n        /* \"#utility.yul\":5260:5263   */\n      dup3\n        /* \"#utility.yul\":5256:5270   */\n      add\n        /* \"#utility.yul\":5241:5270   */\n      swap1\n      pop\n        /* \"#utility.yul\":5107:5276   */\n      swap3\n      swap2\n      pop\n      pop\n      jump\t// out\n        /* \"#utility.yul\":5282:5421   */\n    tag_128:\n        /* \"#utility.yul\":5371:5377   */\n      dup3\n        /* \"#utility.yul\":5366:5369   */\n      dup2\n        /* \"#utility.yul\":5361:5364   */\n      dup4\n        /* \"#utility.yul\":5355:5378   */\n      mcopy\n        /* \"#utility.yul\":5412:5413   */\n      0x00\n        /* \"#utility.yul\":5403:5409   */\n      dup4\n        /* \"#utility.yul\":5398:5401   */\n      dup4\n        /* \"#utility.yul\":5394:5410   */\n      add\n        /* \"#utility.yul\":5387:5414   */\n      mstore\n        /* \"#utility.yul\":5282:5421   */\n      pop\n      pop\n      pop\n      jump\t// out\n        /* \"#utility.yul\":5427:5804   */\n    tag_129:\n        /* \"#utility.yul\":5515:5518   */\n      0x00\n        /* \"#utility.yul\":5543:5582   */\n      tag_220\n        /* \"#utility.yul\":5576:5581   */\n      dup3\n        /* \"#utility.yul\":5543:5582   */\n      tag_126\n      jump\t// in\n    tag_220:\n        /* \"#utility.yul\":5598:5669   */\n      tag_221\n        /* \"#utility.yul\":5662:5668   */\n      dup2\n        /* \"#utility.yul\":5657:5660   */\n      dup6\n        /* \"#utility.yul\":5598:5669   */\n      tag_127\n      jump\t// in\n    tag_221:\n        /* \"#utility.yul\":5591:5669   */\n      swap4\n      pop\n        /* \"#utility.yul\":5678:5743   */\n      tag_222\n        /* \"#utility.yul\":5736:5742   */\n      dup2\n        /* \"#utility.yul\":5731:5734   */\n      dup6\n        /* \"#utility.yul\":5724:5728   */\n      0x20\n        /* \"#utility.yul\":5717:5722   */\n      dup7\n        /* \"#utility.yul\":5713:5729   */\n      add\n        /* \"#utility.yul\":5678:5743   */\n      tag_128\n      jump\t// in\n    tag_222:\n        /* \"#utility.yul\":5768:5797   */\n      tag_223\n        /* \"#utility.yul\":5790:5796   */\n      dup2\n        /* \"#utility.yul\":5768:5797   */\n      tag_115\n      jump\t// in\n    tag_223:\n        /* \"#utility.yul\":5763:5766   */\n      dup5\n        /* \"#utility.yul\":5759:5798   */\n      add\n        /* \"#utility.yul\":5752:5798   */\n      swap2\n      pop\n        /* \"#utility.yul\":5519:5804   */\n      pop\n        /* \"#utility.yul\":5427:5804   */\n      swap3\n      swap2\n      pop\n      pop\n      jump\t// out\n        /* \"#utility.yul\":5810:5928   */\n    tag_130:\n        /* \"#utility.yul\":5897:5921   */\n      tag_225\n        /* \"#utility.yul\":5915:5920   */\n      dup2\n        /* \"#utility.yul\":5897:5921   */\n      tag_123\n      jump\t// in\n    tag_225:\n        /* \"#utility.yul\":5892:5895   */\n      dup3\n        /* \"#utility.yul\":5885:5922   */\n      mstore\n        /* \"#utility.yul\":5810:5928   */\n      pop\n      pop\n      jump\t// out\n        /* \"#utility.yul\":5934:6467   */\n    tag_25:\n        /* \"#utility.yul\":6103:6107   */\n      0x00\n        /* \"#utility.yul\":6141:6143   */\n      0x60\n        /* \"#utility.yul\":6130:6139   */\n      dup3\n        /* \"#utility.yul\":6126:6144   */\n      add\n        /* \"#utility.yul\":6118:6144   */\n      swap1\n      pop\n        /* \"#utility.yul\":6190:6199   */\n      dup2\n        /* \"#utility.yul\":6184:6188   */\n      dup2\n        /* \"#utility.yul\":6180:6200   */\n      sub\n        /* \"#utility.yul\":6176:6177   */\n      0x00\n        /* \"#utility.yul\":6165:6174   */\n      dup4\n        /* \"#utility.yul\":6161:6178   */\n      add\n        /* \"#utility.yul\":6154:6201   */\n      mstore\n        /* \"#utility.yul\":6218:6296   */\n      tag_227\n        /* \"#utility.yul\":6291:6295   */\n      dup2\n        /* \"#utility.yul\":6282:6288   */\n      dup7\n        /* \"#utility.yul\":6218:6296   */\n      tag_129\n      jump\t// in\n    tag_227:\n        /* \"#utility.yul\":6210:6296   */\n      swap1\n      pop\n        /* \"#utility.yul\":6306:6378   */\n      tag_228\n        /* \"#utility.yul\":6374:6376   */\n      0x20\n        /* \"#utility.yul\":6363:6372   */\n      dup4\n        /* \"#utility.yul\":6359:6377   */\n      add\n        /* \"#utility.yul\":6350:6356   */\n      dup6\n        /* \"#utility.yul\":6306:6378   */\n      tag_130\n      jump\t// in\n    tag_228:\n        /* \"#utility.yul\":6388:6460   */\n      tag_229\n        /* \"#utility.yul\":6456:6458   */\n      0x40\n        /* \"#utility.yul\":6445:6454   */\n      dup4\n        /* \"#utility.yul\":6441:6459   */\n      add\n        /* \"#utility.yul\":6432:6438   */\n      dup5\n        /* \"#utility.yul\":6388:6460   */\n      tag_130\n      jump\t// in\n    tag_229:\n        /* \"#utility.yul\":5934:6467   */\n      swap5\n      swap4\n      pop\n      pop\n      pop\n      pop\n      jump\t// out\n        /* \"#utility.yul\":6473:6632   */\n    tag_131:\n        /* \"#utility.yul\":6547:6558   */\n      0x00\n        /* \"#utility.yul\":6581:6587   */\n      dup3\n        /* \"#utility.yul\":6576:6579   */\n      dup3\n        /* \"#utility.yul\":6569:6588   */\n      mstore\n        /* \"#utility.yul\":6621:6625   */\n      0x20\n        /* \"#utility.yul\":6616:6619   */\n      dup3\n        /* \"#utility.yul\":6612:6626   */\n      add\n        /* \"#utility.yul\":6597:6626   */\n      swap1\n      pop\n        /* \"#utility.yul\":6473:6632   */\n      swap3\n      swap2\n      pop\n      pop\n      jump\t// out\n        /* \"#utility.yul\":6638:6995   */\n    tag_132:\n        /* \"#utility.yul\":6716:6719   */\n      0x00\n        /* \"#utility.yul\":6744:6783   */\n      tag_232\n        /* \"#utility.yul\":6777:6782   */\n      dup3\n        /* \"#utility.yul\":6744:6783   */\n      tag_126\n      jump\t// in\n    tag_232:\n        /* \"#utility.yul\":6799:6860   */\n      tag_233\n        /* \"#utility.yul\":6853:6859   */\n      dup2\n        /* \"#utility.yul\":6848:6851   */\n      dup6\n        /* \"#utility.yul\":6799:6860   */\n      tag_131\n      jump\t// in\n    tag_233:\n        /* \"#utility.yul\":6792:6860   */\n      swap4\n      pop\n        /* \"#utility.yul\":6869:6934   */\n      tag_234\n        /* \"#utility.yul\":6927:6933   */\n      dup2\n        /* \"#utility.yul\":6922:6925   */\n      dup6\n        /* \"#utility.yul\":6915:6919   */\n      0x20\n        /* \"#utility.yul\":6908:6913   */\n      dup7\n        /* \"#utility.yul\":6904:6920   */\n      add\n        /* \"#utility.yul\":6869:6934   */\n      tag_128\n      jump\t// in\n    tag_234:\n        /* \"#utility.yul\":6959:6988   */\n      tag_235\n        /* \"#utility.yul\":6981:6987   */\n      dup2\n        /* \"#utility.yul\":6959:6988   */\n      tag_115\n      jump\t// in\n    tag_235:\n        /* \"#utility.yul\":6954:6957   */\n      dup5\n        /* \"#utility.yul\":6950:6989   */\n      add\n        /* \"#utility.yul\":6943:6989   */\n      swap2\n      pop\n        /* \"#utility.yul\":6720:6995   */\n      pop\n        /* \"#utility.yul\":6638:6995   */\n      swap3\n      swap2\n      pop\n      pop\n      jump\t// out\n        /* \"#utility.yul\":7001:7109   */\n    tag_133:\n        /* \"#utility.yul\":7078:7102   */\n      tag_237\n        /* \"#utility.yul\":7096:7101   */\n      dup2\n        /* \"#utility.yul\":7078:7102   */\n      tag_123\n      jump\t// in\n    tag_237:\n        /* \"#utility.yul\":7073:7076   */\n      dup3\n        /* \"#utility.yul\":7066:7103   */\n      mstore\n        /* \"#utility.yul\":7001:7109   */\n      pop\n      pop\n      jump\t// out\n        /* \"#utility.yul\":7193:7969   */\n    tag_134:\n        /* \"#utility.yul\":7306:7309   */\n      0x00\n        /* \"#utility.yul\":7342:7346   */\n      0x60\n        /* \"#utility.yul\":7337:7340   */\n      dup4\n        /* \"#utility.yul\":7333:7347   */\n      add\n        /* \"#utility.yul\":7429:7433   */\n      0x00\n        /* \"#utility.yul\":7422:7427   */\n      dup4\n        /* \"#utility.yul\":7418:7434   */\n      add\n        /* \"#utility.yul\":7412:7435   */\n      mload\n        /* \"#utility.yul\":7482:7485   */\n      dup5\n        /* \"#utility.yul\":7476:7480   */\n      dup3\n        /* \"#utility.yul\":7472:7486   */\n      sub\n        /* \"#utility.yul\":7465:7469   */\n      0x00\n        /* \"#utility.yul\":7460:7463   */\n      dup7\n        /* \"#utility.yul\":7456:7470   */\n      add\n        /* \"#utility.yul\":7449:7487   */\n      mstore\n        /* \"#utility.yul\":7508:7581   */\n      tag_239\n        /* \"#utility.yul\":7576:7580   */\n      dup3\n        /* \"#utility.yul\":7562:7574   */\n      dup3\n        /* \"#utility.yul\":7508:7581   */\n      tag_132\n      jump\t// in\n    tag_239:\n        /* \"#utility.yul\":7500:7581   */\n      swap2\n      pop\n        /* \"#utility.yul\":7357:7592   */\n      pop\n        /* \"#utility.yul\":7675:7679   */\n      0x20\n        /* \"#utility.yul\":7668:7673   */\n      dup4\n        /* \"#utility.yul\":7664:7680   */\n      add\n        /* \"#utility.yul\":7658:7681   */\n      mload\n        /* \"#utility.yul\":7694:7757   */\n      tag_240\n        /* \"#utility.yul\":7751:7755   */\n      0x20\n        /* \"#utility.yul\":7746:7749   */\n      dup7\n        /* \"#utility.yul\":7742:7756   */\n      add\n        /* \"#utility.yul\":7728:7740   */\n      dup3\n        /* \"#utility.yul\":7694:7757   */\n      tag_133\n      jump\t// in\n    tag_240:\n        /* \"#utility.yul\":7602:7767   */\n      pop\n        /* \"#utility.yul\":7850:7854   */\n      0x40\n        /* \"#utility.yul\":7843:7848   */\n      dup4\n        /* \"#utility.yul\":7839:7855   */\n      add\n        /* \"#utility.yul\":7833:7856   */\n      mload\n        /* \"#utility.yul\":7869:7932   */\n      tag_241\n        /* \"#utility.yul\":7926:7930   */\n      0x40\n        /* \"#utility.yul\":7921:7924   */\n      dup7\n        /* \"#utility.yul\":7917:7931   */\n      add\n        /* \"#utility.yul\":7903:7915   */\n      dup3\n        /* \"#utility.yul\":7869:7932   */\n      tag_133\n      jump\t// in\n    tag_241:\n        /* \"#utility.yul\":7777:7942   */\n      pop\n        /* \"#utility.yul\":7959:7963   */\n      dup1\n        /* \"#utility.yul\":7952:7963   */\n      swap2\n      pop\n        /* \"#utility.yul\":7311:7969   */\n      pop\n        /* \"#utility.yul\":7193:7969   */\n      swap3\n      swap2\n      pop\n      pop\n      jump\t// out\n        /* \"#utility.yul\":7975:8336   */\n    tag_30:\n        /* \"#utility.yul\":8112:8116   */\n      0x00\n        /* \"#utility.yul\":8150:8152   */\n      0x20\n        /* \"#utility.yul\":8139:8148   */\n      dup3\n        /* \"#utility.yul\":8135:8153   */\n      add\n        /* \"#utility.yul\":8127:8153   */\n      swap1\n      pop\n        /* \"#utility.yul\":8199:8208   */\n      dup2\n        /* \"#utility.yul\":8193:8197   */\n      dup2\n        /* \"#utility.yul\":8189:8209   */\n      sub\n        /* \"#utility.yul\":8185:8186   */\n      0x00\n        /* \"#utility.yul\":8174:8183   */\n      dup4\n        /* \"#utility.yul\":8170:8187   */\n      add\n        /* \"#utility.yul\":8163:8210   */\n      mstore\n        /* \"#utility.yul\":8227:8329   */\n      tag_243\n        /* \"#utility.yul\":8324:8328   */\n      dup2\n        /* \"#utility.yul\":8315:8321   */\n      dup5\n        /* \"#utility.yul\":8227:8329   */\n      tag_134\n      jump\t// in\n    tag_243:\n        /* \"#utility.yul\":8219:8329   */\n      swap1\n      pop\n        /* \"#utility.yul\":7975:8336   */\n      swap3\n      swap2\n      pop\n      pop\n      jump\t// out\n        /* \"#utility.yul\":8342:8468   */\n    tag_135:\n        /* \"#utility.yul\":8379:8386   */\n      0x00\n        /* \"#utility.yul\":8419:8461   */\n      0xffffffffffffffffffffffffffffffffffffffff\n        /* \"#utility.yul\":8412:8417   */\n      dup3\n        /* \"#utility.yul\":8408:8462   */\n      and\n        /* \"#utility.yul\":8397:8462   */\n      swap1\n      pop\n        /* \"#utility.yul\":8342:8468   */\n      swap2\n      swap1\n      pop\n      jump\t// out\n        /* \"#utility.yul\":8474:8570   */\n    tag_136:\n        /* \"#utility.yul\":8511:8518   */\n      0x00\n        /* \"#utility.yul\":8540:8564   */\n      tag_246\n        /* \"#utility.yul\":8558:8563   */\n      dup3\n        /* \"#utility.yul\":8540:8564   */\n      tag_135\n      jump\t// in\n    tag_246:\n        /* \"#utility.yul\":8529:8564   */\n      swap1\n      pop\n        /* \"#utility.yul\":8474:8570   */\n      swap2\n      swap1\n      pop\n      jump\t// out\n        /* \"#utility.yul\":8576:8694   */\n    tag_137:\n        /* \"#utility.yul\":8663:8687   */\n      tag_248\n        /* \"#utility.yul\":8681:8686   */\n      dup2\n        /* \"#utility.yul\":8663:8687   */\n      tag_136\n      jump\t// in\n    tag_248:\n        /* \"#utility.yul\":8658:8661   */\n      dup3\n        /* \"#utility.yul\":8651:8688   */\n      mstore\n        /* \"#utility.yul\":8576:8694   */\n      pop\n      pop\n      jump\t// out\n        /* \"#utility.yul\":8700:8922   */\n    tag_34:\n        /* \"#utility.yul\":8793:8797   */\n      0x00\n        /* \"#utility.yul\":8831:8833   */\n      0x20\n        /* \"#utility.yul\":8820:8829   */\n      dup3\n        /* \"#utility.yul\":8816:8834   */\n      add\n        /* \"#utility.yul\":8808:8834   */\n      swap1\n      pop\n        /* \"#utility.yul\":8844:8915   */\n      tag_250\n        /* \"#utility.yul\":8912:8913   */\n      0x00\n        /* \"#utility.yul\":8901:8910   */\n      dup4\n        /* \"#utility.yul\":8897:8914   */\n      add\n        /* \"#utility.yul\":8888:8894   */\n      dup5\n        /* \"#utility.yul\":8844:8915   */\n      tag_137\n      jump\t// in\n    tag_250:\n        /* \"#utility.yul\":8700:8922   */\n      swap3\n      swap2\n      pop\n      pop\n      jump\t// out\n        /* \"#utility.yul\":8928:9150   */\n    tag_42:\n        /* \"#utility.yul\":9021:9025   */\n      0x00\n        /* \"#utility.yul\":9059:9061   */\n      0x20\n        /* \"#utility.yul\":9048:9057   */\n      dup3\n        /* \"#utility.yul\":9044:9062   */\n      add\n        /* \"#utility.yul\":9036:9062   */\n      swap1\n      pop\n        /* \"#utility.yul\":9072:9143   */\n      tag_252\n        /* \"#utility.yul\":9140:9141   */\n      0x00\n        /* \"#utility.yul\":9129:9138   */\n      dup4\n        /* \"#utility.yul\":9125:9142   */\n      add\n        /* \"#utility.yul\":9116:9122   */\n      dup5\n        /* \"#utility.yul\":9072:9143   */\n      tag_130\n      jump\t// in\n    tag_252:\n        /* \"#utility.yul\":8928:9150   */\n      swap3\n      swap2\n      pop\n      pop\n      jump\t// out\n        /* \"#utility.yul\":9156:9391   */\n    tag_138:\n        /* \"#utility.yul\":9296:9330   */\n      0x5365756c206c652070726f707269657461697265207065757420656666656374\n        /* \"#utility.yul\":9292:9293   */\n      0x00\n        /* \"#utility.yul\":9284:9290   */\n      dup3\n        /* \"#utility.yul\":9280:9294   */\n      add\n        /* \"#utility.yul\":9273:9331   */\n      mstore\n        /* \"#utility.yul\":9365:9383   */\n      0x75657220636574746520616374696f6e00000000000000000000000000000000\n        /* \"#utility.yul\":9360:9362   */\n      0x20\n        /* \"#utility.yul\":9352:9358   */\n      dup3\n        /* \"#utility.yul\":9348:9363   */\n      add\n        /* \"#utility.yul\":9341:9384   */\n      mstore\n        /* \"#utility.yul\":9156:9391   */\n      pop\n      jump\t// out\n        /* \"#utility.yul\":9397:9763   */\n    tag_139:\n        /* \"#utility.yul\":9539:9542   */\n      0x00\n        /* \"#utility.yul\":9560:9627   */\n      tag_255\n        /* \"#utility.yul\":9624:9626   */\n      0x30\n        /* \"#utility.yul\":9619:9622   */\n      dup4\n        /* \"#utility.yul\":9560:9627   */\n      tag_127\n      jump\t// in\n    tag_255:\n        /* \"#utility.yul\":9553:9627   */\n      swap2\n      pop\n        /* \"#utility.yul\":9636:9729   */\n      tag_256\n        /* \"#utility.yul\":9725:9728   */\n      dup3\n        /* \"#utility.yul\":9636:9729   */\n      tag_138\n      jump\t// in\n    tag_256:\n        /* \"#utility.yul\":9754:9756   */\n      0x40\n        /* \"#utility.yul\":9749:9752   */\n      dup3\n        /* \"#utility.yul\":9745:9757   */\n      add\n        /* \"#utility.yul\":9738:9757   */\n      swap1\n      pop\n        /* \"#utility.yul\":9397:9763   */\n      swap2\n      swap1\n      pop\n      jump\t// out\n        /* \"#utility.yul\":9769:10188   */\n    tag_49:\n        /* \"#utility.yul\":9935:9939   */\n      0x00\n        /* \"#utility.yul\":9973:9975   */\n      0x20\n        /* \"#utility.yul\":9962:9971   */\n      dup3\n        /* \"#utility.yul\":9958:9976   */\n      add\n        /* \"#utility.yul\":9950:9976   */\n      swap1\n      pop\n        /* \"#utility.yul\":10022:10031   */\n      dup2\n        /* \"#utility.yul\":10016:10020   */\n      dup2\n        /* \"#utility.yul\":10012:10032   */\n      sub\n        /* \"#utility.yul\":10008:10009   */\n      0x00\n        /* \"#utility.yul\":9997:10006   */\n      dup4\n        /* \"#utility.yul\":9993:10010   */\n      add\n        /* \"#utility.yul\":9986:10033   */\n      mstore\n        /* \"#utility.yul\":10050:10181   */\n      tag_258\n        /* \"#utility.yul\":10176:10180   */\n      dup2\n        /* \"#utility.yul\":10050:10181   */\n      tag_139\n      jump\t// in\n    tag_258:\n        /* \"#utility.yul\":10042:10181   */\n      swap1\n      pop\n        /* \"#utility.yul\":9769:10188   */\n      swap2\n      swap1\n      pop\n      jump\t// out\n        /* \"#utility.yul\":10194:10374   */\n    tag_140:\n        /* \"#utility.yul\":10242:10319   */\n      0x4e487b7100000000000000000000000000000000000000000000000000000000\n        /* \"#utility.yul\":10239:10240   */\n      0x00\n        /* \"#utility.yul\":10232:10320   */\n      mstore\n        /* \"#utility.yul\":10339:10343   */\n      0x11\n        /* \"#utility.yul\":10336:10337   */\n      0x04\n        /* \"#utility.yul\":10329:10344   */\n      mstore\n        /* \"#utility.yul\":10363:10367   */\n      0x24\n        /* \"#utility.yul\":10360:10361   */\n      0x00\n        /* \"#utility.yul\":10353:10368   */\n      revert\n        /* \"#utility.yul\":10380:10613   */\n    tag_52:\n        /* \"#utility.yul\":10419:10422   */\n      0x00\n        /* \"#utility.yul\":10442:10466   */\n      tag_261\n        /* \"#utility.yul\":10460:10465   */\n      dup3\n        /* \"#utility.yul\":10442:10466   */\n      tag_123\n      jump\t// in\n    tag_261:\n        /* \"#utility.yul\":10433:10466   */\n      swap2\n      pop\n        /* \"#utility.yul\":10488:10554   */\n      0xffffffffffffffffffffffffffffffffffffffffffffffffffffffffffffffff\n        /* \"#utility.yul\":10481:10486   */\n      dup3\n        /* \"#utility.yul\":10478:10555   */\n      sub\n        /* \"#utility.yul\":10475:10578   */\n      tag_262\n      jumpi\n        /* \"#utility.yul\":10558:10576   */\n      tag_263\n      tag_140\n      jump\t// in\n    tag_263:\n        /* \"#utility.yul\":10475:10578   */\n    tag_262:\n        /* \"#utility.yul\":10605:10606   */\n      0x01\n        /* \"#utility.yul\":10598:10603   */\n      dup3\n        /* \"#utility.yul\":10594:10607   */\n      add\n        /* \"#utility.yul\":10587:10607   */\n      swap1\n      pop\n        /* \"#utility.yul\":10380:10613   */\n      swap2\n      swap1\n      pop\n      jump\t// out\n        /* \"#utility.yul\":10619:10799   */\n    tag_141:\n        /* \"#utility.yul\":10667:10744   */\n      0x4e487b7100000000000000000000000000000000000000000000000000000000\n        /* \"#utility.yul\":10664:10665   */\n      0x00\n        /* \"#utility.yul\":10657:10745   */\n      mstore\n        /* \"#utility.yul\":10764:10768   */\n      0x22\n        /* \"#utility.yul\":10761:10762   */\n      0x04\n        /* \"#utility.yul\":10754:10769   */\n      mstore\n        /* \"#utility.yul\":10788:10792   */\n      0x24\n        /* \"#utility.yul\":10785:10786   */\n      0x00\n        /* \"#utility.yul\":10778:10793   */\n      revert\n        /* \"#utility.yul\":10805:11125   */\n    tag_68:\n        /* \"#utility.yul\":10849:10855   */\n      0x00\n        /* \"#utility.yul\":10886:10887   */\n      0x02\n        /* \"#utility.yul\":10880:10884   */\n      dup3\n        /* \"#utility.yul\":10876:10888   */\n      div\n        /* \"#utility.yul\":10866:10888   */\n      swap1\n      pop\n        /* \"#utility.yul\":10933:10934   */\n      0x01\n        /* \"#utility.yul\":10927:10931   */\n      dup3\n        /* \"#utility.yul\":10923:10935   */\n      and\n        /* \"#utility.yul\":10954:10972   */\n      dup1\n        /* \"#utility.yul\":10944:11025   */\n      tag_266\n      jumpi\n        /* \"#utility.yul\":11010:11014   */\n      0x7f\n        /* \"#utility.yul\":11002:11008   */\n      dup3\n        /* \"#utility.yul\":10998:11015   */\n      and\n        /* \"#utility.yul\":10988:11015   */\n      swap2\n      pop\n        /* \"#utility.yul\":10944:11025   */\n    tag_266:\n        /* \"#utility.yul\":11072:11074   */\n      0x20\n        /* \"#utility.yul\":11064:11070   */\n      dup3\n        /* \"#utility.yul\":11061:11075   */\n      lt\n        /* \"#utility.yul\":11041:11059   */\n      dup2\n        /* \"#utility.yul\":11038:11076   */\n      sub\n        /* \"#utility.yul\":11035:11119   */\n      tag_267\n      jumpi\n        /* \"#utility.yul\":11091:11109   */\n      tag_268\n      tag_141\n      jump\t// in\n    tag_268:\n        /* \"#utility.yul\":11035:11119   */\n    tag_267:\n        /* \"#utility.yul\":10856:11125   */\n      pop\n        /* \"#utility.yul\":10805:11125   */\n      swap2\n      swap1\n      pop\n      jump\t// out\n        /* \"#utility.yul\":11131:11272   */\n    tag_142:\n        /* \"#utility.yul\":11180:11184   */\n      0x00\n        /* \"#utility.yul\":11203:11206   */\n      dup2\n        /* \"#utility.yul\":11195:11206   */\n      swap1\n      pop\n        /* \"#utility.yul\":11226:11229   */\n      dup2\n        /* \"#utility.yul\":11223:11224   */\n      0x00\n        /* \"#utility.yul\":11216:11230   */\n      mstore\n        /* \"#utility.yul\":11260:11264   */\n      0x20\n        /* \"#utility.yul\":11257:11258   */\n      0x00\n        /* \"#utility.yul\":11247:11265   */\n      keccak256\n        /* \"#utility.yul\":11239:11265   */\n      swap1\n      pop\n        /* \"#utility.yul\":11131:11272   */\n      swap2\n      swap1\n      pop\n      jump\t// out\n        /* \"#utility.yul\":11278:11371   */\n    tag_143:\n        /* \"#utility.yul\":11315:11321   */\n      0x00\n        /* \"#utility.yul\":11362:11364   */\n      0x20\n        /* \"#utility.yul\":11357:11359   */\n      0x1f\n        /* \"#utility.yul\":11350:11355   */\n      dup4\n        /* \"#utility.yul\":11346:11360   */\n      add\n        /* \"#utility.yul\":11342:11365   */\n      div\n        /* \"#utility.yul\":11332:11365   */\n      swap1\n      pop\n        /* \"#utility.yul\":11278:11371   */\n      swap2\n      swap1\n      pop\n      jump\t// out\n        /* \"#utility.yul\":11377:11484   */\n    tag_144:\n        /* \"#utility.yul\":11421:11429   */\n      0x00\n        /* \"#utility.yul\":11471:11476   */\n      dup3\n        /* \"#utility.yul\":11465:11469   */\n      dup3\n        /* \"#utility.yul\":11461:11477   */\n      shl\n        /* \"#utility.yul\":11440:11477   */\n      swap1\n      pop\n        /* \"#utility.yul\":11377:11484   */\n      swap3\n      swap2\n      pop\n      pop\n      jump\t// out\n        /* \"#utility.yul\":11490:11883   */\n    tag_145:\n        /* \"#utility.yul\":11559:11565   */\n      0x00\n        /* \"#utility.yul\":11609:11610   */\n      0x08\n        /* \"#utility.yul\":11597:11607   */\n      dup4\n        /* \"#utility.yul\":11593:11611   */\n      mul\n        /* \"#utility.yul\":11632:11729   */\n      tag_273\n        /* \"#utility.yul\":11662:11728   */\n      0xffffffffffffffffffffffffffffffffffffffffffffffffffffffffffffffff\n        /* \"#utility.yul\":11651:11660   */\n      dup3\n        /* \"#utility.yul\":11632:11729   */\n      tag_144\n      jump\t// in\n    tag_273:\n        /* \"#utility.yul\":11750:11789   */\n      tag_274\n        /* \"#utility.yul\":11780:11788   */\n      dup7\n        /* \"#utility.yul\":11769:11778   */\n      dup4\n        /* \"#utility.yul\":11750:11789   */\n      tag_144\n      jump\t// in\n    tag_274:\n        /* \"#utility.yul\":11738:11789   */\n      swap6\n      pop\n        /* \"#utility.yul\":11822:11826   */\n      dup1\n        /* \"#utility.yul\":11818:11827   */\n      not\n        /* \"#utility.yul\":11811:11816   */\n      dup5\n        /* \"#utility.yul\":11807:11828   */\n      and\n        /* \"#utility.yul\":11798:11828   */\n      swap4\n      pop\n        /* \"#utility.yul\":11871:11875   */\n      dup1\n        /* \"#utility.yul\":11861:11869   */\n      dup7\n        /* \"#utility.yul\":11857:11876   */\n      and\n        /* \"#utility.yul\":11850:11855   */\n      dup5\n        /* \"#utility.yul\":11847:11877   */\n      or\n        /* \"#utility.yul\":11837:11877   */\n      swap3\n      pop\n        /* \"#utility.yul\":11566:11883   */\n      pop\n      pop\n        /* \"#utility.yul\":11490:11883   */\n      swap4\n      swap3\n      pop\n      pop\n      pop\n      jump\t// out\n        /* \"#utility.yul\":11889:11949   */\n    tag_146:\n        /* \"#utility.yul\":11917:11920   */\n      0x00\n        /* \"#utility.yul\":11938:11943   */\n      dup2\n        /* \"#utility.yul\":11931:11943   */\n      swap1\n      pop\n        /* \"#utility.yul\":11889:11949   */\n      swap2\n      swap1\n      pop\n      jump\t// out\n        /* \"#utility.yul\":11955:12097   */\n    tag_147:\n        /* \"#utility.yul\":12005:12014   */\n      0x00\n        /* \"#utility.yul\":12038:12091   */\n      tag_277\n        /* \"#utility.yul\":12056:12090   */\n      tag_278\n        /* \"#utility.yul\":12065:12089   */\n      tag_279\n        /* \"#utility.yul\":12083:12088   */\n      dup5\n        /* \"#utility.yul\":12065:12089   */\n      tag_123\n      jump\t// in\n    tag_279:\n        /* \"#utility.yul\":12056:12090   */\n      tag_146\n      jump\t// in\n    tag_278:\n        /* \"#utility.yul\":12038:12091   */\n      tag_123\n      jump\t// in\n    tag_277:\n        /* \"#utility.yul\":12025:12091   */\n      swap1\n      pop\n        /* \"#utility.yul\":11955:12097   */\n      swap2\n      swap1\n      pop\n      jump\t// out\n        /* \"#utility.yul\":12103:12178   */\n    tag_148:\n        /* \"#utility.yul\":12146:12149   */\n      0x00\n        /* \"#utility.yul\":12167:12172   */\n      dup2\n        /* \"#utility.yul\":12160:12172   */\n      swap1\n      pop\n        /* \"#utility.yul\":12103:12178   */\n      swap2\n      swap1\n      pop\n      jump\t// out\n        /* \"#utility.yul\":12184:12453   */\n    tag_149:\n        /* \"#utility.yul\":12294:12333   */\n      tag_282\n        /* \"#utility.yul\":12325:12332   */\n      dup4\n        /* \"#utility.yul\":12294:12333   */\n      tag_147\n      jump\t// in\n    tag_282:\n        /* \"#utility.yul\":12355:12446   */\n      tag_283\n        /* \"#utility.yul\":12404:12445   */\n      tag_284\n        /* \"#utility.yul\":12428:12444   */\n      dup3\n        /* \"#utility.yul\":12404:12445   */\n      tag_148\n      jump\t// in\n    tag_284:\n        /* \"#utility.yul\":12396:12402   */\n      dup5\n        /* \"#utility.yul\":12389:12393   */\n      dup5\n        /* \"#utility.yul\":12383:12394   */\n      sload\n        /* \"#utility.yul\":12355:12446   */\n      tag_145\n      jump\t// in\n    tag_283:\n        /* \"#utility.yul\":12349:12353   */\n      dup3\n        /* \"#utility.yul\":12342:12447   */\n      sstore\n        /* \"#utility.yul\":12260:12453   */\n      pop\n        /* \"#utility.yul\":12184:12453   */\n      pop\n      pop\n      pop\n      jump\t// out\n        /* \"#utility.yul\":12459:12532   */\n    tag_150:\n        /* \"#utility.yul\":12504:12507   */\n      0x00\n        /* \"#utility.yul\":12459:12532   */\n      swap1\n      jump\t// out\n        /* \"#utility.yul\":12538:12727   */\n    tag_151:\n        /* \"#utility.yul\":12615:12647   */\n      tag_287\n      tag_150\n      jump\t// in\n    tag_287:\n        /* \"#utility.yul\":12656:12721   */\n      tag_288\n        /* \"#utility.yul\":12714:12720   */\n      dup2\n        /* \"#utility.yul\":12706:12712   */\n      dup5\n        /* \"#utility.yul\":12700:12704   */\n      dup5\n        /* \"#utility.yul\":12656:12721   */\n      tag_149\n      jump\t// in\n    tag_288:\n        /* \"#utility.yul\":12591:12727   */\n      pop\n        /* \"#utility.yul\":12538:12727   */\n      pop\n      pop\n      jump\t// out\n        /* \"#utility.yul\":12733:12919   */\n    tag_152:\n        /* \"#utility.yul\":12793:12913   */\n    tag_290:\n        /* \"#utility.yul\":12810:12813   */\n      dup2\n        /* \"#utility.yul\":12803:12808   */\n      dup2\n        /* \"#utility.yul\":12800:12814   */\n      lt\n        /* \"#utility.yul\":12793:12913   */\n      iszero\n      tag_292\n      jumpi\n        /* \"#utility.yul\":12864:12903   */\n      tag_293\n        /* \"#utility.yul\":12901:12902   */\n      0x00\n        /* \"#utility.yul\":12894:12899   */\n      dup3\n        /* \"#utility.yul\":12864:12903   */\n      tag_151\n      jump\t// in\n    tag_293:\n        /* \"#utility.yul\":12837:12838   */\n      0x01\n        /* \"#utility.yul\":12830:12835   */\n      dup2\n        /* \"#utility.yul\":12826:12839   */\n      add\n        /* \"#utility.yul\":12817:12839   */\n      swap1\n      pop\n        /* \"#utility.yul\":12793:12913   */\n      jump(tag_290)\n    tag_292:\n        /* \"#utility.yul\":12733:12919   */\n      pop\n      pop\n      jump\t// out\n        /* \"#utility.yul\":12925:13468   */\n    tag_153:\n        /* \"#utility.yul\":13026:13028   */\n      0x1f\n        /* \"#utility.yul\":13021:13024   */\n      dup3\n        /* \"#utility.yul\":13018:13029   */\n      gt\n        /* \"#utility.yul\":13015:13461   */\n      iszero\n      tag_295\n      jumpi\n        /* \"#utility.yul\":13060:13098   */\n      tag_296\n        /* \"#utility.yul\":13092:13097   */\n      dup2\n        /* \"#utility.yul\":13060:13098   */\n      tag_142\n      jump\t// in\n    tag_296:\n        /* \"#utility.yul\":13144:13173   */\n      tag_297\n        /* \"#utility.yul\":13162:13172   */\n      dup5\n        /* \"#utility.yul\":13144:13173   */\n      tag_143\n      jump\t// in\n    tag_297:\n        /* \"#utility.yul\":13134:13142   */\n      dup2\n        /* \"#utility.yul\":13130:13174   */\n      add\n        /* \"#utility.yul\":13327:13329   */\n      0x20\n        /* \"#utility.yul\":13315:13325   */\n      dup6\n        /* \"#utility.yul\":13312:13330   */\n      lt\n        /* \"#utility.yul\":13309:13358   */\n      iszero\n      tag_298\n      jumpi\n        /* \"#utility.yul\":13348:13356   */\n      dup2\n        /* \"#utility.yul\":13333:13356   */\n      swap1\n      pop\n        /* \"#utility.yul\":13309:13358   */\n    tag_298:\n        /* \"#utility.yul\":13371:13451   */\n      tag_299\n        /* \"#utility.yul\":13427:13449   */\n      tag_300\n        /* \"#utility.yul\":13445:13448   */\n      dup6\n        /* \"#utility.yul\":13427:13449   */\n      tag_143\n      jump\t// in\n    tag_300:\n        /* \"#utility.yul\":13417:13425   */\n      dup4\n        /* \"#utility.yul\":13413:13450   */\n      add\n        /* \"#utility.yul\":13400:13411   */\n      dup3\n        /* \"#utility.yul\":13371:13451   */\n      tag_152\n      jump\t// in\n    tag_299:\n        /* \"#utility.yul\":13030:13461   */\n      pop\n      pop\n        /* \"#utility.yul\":13015:13461   */\n    tag_295:\n        /* \"#utility.yul\":12925:13468   */\n      pop\n      pop\n      pop\n      jump\t// out\n        /* \"#utility.yul\":13474:13591   */\n    tag_154:\n        /* \"#utility.yul\":13528:13536   */\n      0x00\n        /* \"#utility.yul\":13578:13583   */\n      dup3\n        /* \"#utility.yul\":13572:13576   */\n      dup3\n        /* \"#utility.yul\":13568:13584   */\n      shr\n        /* \"#utility.yul\":13547:13584   */\n      swap1\n      pop\n        /* \"#utility.yul\":13474:13591   */\n      swap3\n      swap2\n      pop\n      pop\n      jump\t// out\n        /* \"#utility.yul\":13597:13766   */\n    tag_155:\n        /* \"#utility.yul\":13641:13647   */\n      0x00\n        /* \"#utility.yul\":13674:13725   */\n      tag_303\n        /* \"#utility.yul\":13722:13723   */\n      0x00\n        /* \"#utility.yul\":13718:13724   */\n      not\n        /* \"#utility.yul\":13710:13715   */\n      dup5\n        /* \"#utility.yul\":13707:13708   */\n      0x08\n        /* \"#utility.yul\":13703:13716   */\n      mul\n        /* \"#utility.yul\":13674:13725   */\n      tag_154\n      jump\t// in\n    tag_303:\n        /* \"#utility.yul\":13670:13726   */\n      not\n        /* \"#utility.yul\":13755:13759   */\n      dup1\n        /* \"#utility.yul\":13749:13753   */\n      dup4\n        /* \"#utility.yul\":13745:13760   */\n      and\n        /* \"#utility.yul\":13735:13760   */\n      swap2\n      pop\n        /* \"#utility.yul\":13648:13766   */\n      pop\n        /* \"#utility.yul\":13597:13766   */\n      swap3\n      swap2\n      pop\n      pop\n      jump\t// out\n        /* \"#utility.yul\":13771:14066   */\n    tag_156:\n        /* \"#utility.yul\":13847:13851   */\n      0x00\n        /* \"#utility.yul\":13993:14022   */\n      tag_305\n        /* \"#utility.yul\":14018:14021   */\n      dup4\n        /* \"#utility.yul\":14012:14016   */\n      dup4\n        /* \"#utility.yul\":13993:14022   */\n      tag_155\n      jump\t// in\n    tag_305:\n        /* \"#utility.yul\":13985:14022   */\n      swap2\n      pop\n        /* \"#utility.yul\":14055:14058   */\n      dup3\n        /* \"#utility.yul\":14052:14053   */\n      0x02\n        /* \"#utility.yul\":14048:14059   */\n      mul\n        /* \"#utility.yul\":14042:14046   */\n      dup3\n        /* \"#utility.yul\":14039:14060   */\n      or\n        /* \"#utility.yul\":14031:14060   */\n      swap1\n      pop\n        /* \"#utility.yul\":13771:14066   */\n      swap3\n      swap2\n      pop\n      pop\n      jump\t// out\n        /* \"#utility.yul\":14071:15466   */\n    tag_54:\n        /* \"#utility.yul\":14188:14225   */\n      tag_307\n        /* \"#utility.yul\":14221:14224   */\n      dup3\n        /* \"#utility.yul\":14188:14225   */\n      tag_126\n      jump\t// in\n    tag_307:\n        /* \"#utility.yul\":14290:14308   */\n      0xffffffffffffffff\n        /* \"#utility.yul\":14282:14288   */\n      dup2\n        /* \"#utility.yul\":14279:14309   */\n      gt\n        /* \"#utility.yul\":14276:14332   */\n      iszero\n      tag_308\n      jumpi\n        /* \"#utility.yul\":14312:14330   */\n      tag_309\n      tag_116\n      jump\t// in\n    tag_309:\n        /* \"#utility.yul\":14276:14332   */\n    tag_308:\n        /* \"#utility.yul\":14356:14394   */\n      tag_310\n        /* \"#utility.yul\":14388:14392   */\n      dup3\n        /* \"#utility.yul\":14382:14393   */\n      sload\n        /* \"#utility.yul\":14356:14394   */\n      tag_68\n      jump\t// in\n    tag_310:\n        /* \"#utility.yul\":14441:14508   */\n      tag_311\n        /* \"#utility.yul\":14501:14507   */\n      dup3\n        /* \"#utility.yul\":14493:14499   */\n      dup3\n        /* \"#utility.yul\":14487:14491   */\n      dup6\n        /* \"#utility.yul\":14441:14508   */\n      tag_153\n      jump\t// in\n    tag_311:\n        /* \"#utility.yul\":14535:14536   */\n      0x00\n        /* \"#utility.yul\":14559:14563   */\n      0x20\n        /* \"#utility.yul\":14546:14563   */\n      swap1\n      pop\n        /* \"#utility.yul\":14591:14593   */\n      0x1f\n        /* \"#utility.yul\":14583:14589   */\n      dup4\n        /* \"#utility.yul\":14580:14594   */\n      gt\n        /* \"#utility.yul\":14608:14609   */\n      0x01\n        /* \"#utility.yul\":14603:15221   */\n      dup2\n      eq\n      tag_313\n      jumpi\n        /* \"#utility.yul\":15265:15266   */\n      0x00\n        /* \"#utility.yul\":15282:15288   */\n      dup5\n        /* \"#utility.yul\":15279:15356   */\n      iszero\n      tag_314\n      jumpi\n        /* \"#utility.yul\":15331:15340   */\n      dup3\n        /* \"#utility.yul\":15326:15329   */\n      dup8\n        /* \"#utility.yul\":15322:15341   */\n      add\n        /* \"#utility.yul\":15316:15342   */\n      mload\n        /* \"#utility.yul\":15307:15342   */\n      swap1\n      pop\n        /* \"#utility.yul\":15279:15356   */\n    tag_314:\n        /* \"#utility.yul\":15382:15449   */\n      tag_315\n        /* \"#utility.yul\":15442:15448   */\n      dup6\n        /* \"#utility.yul\":15435:15440   */\n      dup3\n        /* \"#utility.yul\":15382:15449   */\n      tag_156\n      jump\t// in\n    tag_315:\n        /* \"#utility.yul\":15376:15380   */\n      dup7\n        /* \"#utility.yul\":15369:15450   */\n      sstore\n        /* \"#utility.yul\":15238:15460   */\n      pop\n        /* \"#utility.yul\":14573:15460   */\n      jump(tag_312)\n        /* \"#utility.yul\":14603:15221   */\n    tag_313:\n        /* \"#utility.yul\":14655:14659   */\n      0x1f\n        /* \"#utility.yul\":14651:14660   */\n      not\n        /* \"#utility.yul\":14643:14649   */\n      dup5\n        /* \"#utility.yul\":14639:14661   */\n      and\n        /* \"#utility.yul\":14689:14726   */\n      tag_316\n        /* \"#utility.yul\":14721:14725   */\n      dup7\n        /* \"#utility.yul\":14689:14726   */\n      tag_142\n      jump\t// in\n    tag_316:\n        /* \"#utility.yul\":14748:14749   */\n      0x00\n        /* \"#utility.yul\":14762:14970   */\n    tag_317:\n        /* \"#utility.yul\":14776:14783   */\n      dup3\n        /* \"#utility.yul\":14773:14774   */\n      dup2\n        /* \"#utility.yul\":14770:14784   */\n      lt\n        /* \"#utility.yul\":14762:14970   */\n      iszero\n      tag_319\n      jumpi\n        /* \"#utility.yul\":14855:14864   */\n      dup5\n        /* \"#utility.yul\":14850:14853   */\n      dup10\n        /* \"#utility.yul\":14846:14865   */\n      add\n        /* \"#utility.yul\":14840:14866   */\n      mload\n        /* \"#utility.yul\":14832:14838   */\n      dup3\n        /* \"#utility.yul\":14825:14867   */\n      sstore\n        /* \"#utility.yul\":14906:14907   */\n      0x01\n        /* \"#utility.yul\":14898:14904   */\n      dup3\n        /* \"#utility.yul\":14894:14908   */\n      add\n        /* \"#utility.yul\":14884:14908   */\n      swap2\n      pop\n        /* \"#utility.yul\":14953:14955   */\n      0x20\n        /* \"#utility.yul\":14942:14951   */\n      dup6\n        /* \"#utility.yul\":14938:14956   */\n      add\n        /* \"#utility.yul\":14925:14956   */\n      swap5\n      pop\n        /* \"#utility.yul\":14799:14803   */\n      0x20\n        /* \"#utility.yul\":14796:14797   */\n      dup2\n        /* \"#utility.yul\":14792:14804   */\n      add\n        /* \"#utility.yul\":14787:14804   */\n      swap1\n      pop\n        /* \"#utility.yul\":14762:14970   */\n      jump(tag_317)\n    tag_319:\n        /* \"#utility.yul\":14998:15004   */\n      dup7\n        /* \"#utility.yul\":14989:14996   */\n      dup4\n        /* \"#utility.yul\":14986:15005   */\n      lt\n        /* \"#utility.yul\":14983:15162   */\n      iszero\n      tag_320\n      jumpi\n        /* \"#utility.yul\":15056:15065   */\n      dup5\n        /* \"#utility.yul\":15051:15054   */\n      dup10\n        /* \"#utility.yul\":15047:15066   */\n      add\n        /* \"#utility.yul\":15041:15067   */\n      mload\n        /* \"#utility.yul\":15099:15147   */\n      tag_321\n        /* \"#utility.yul\":15141:15145   */\n      0x1f\n        /* \"#utility.yul\":15133:15139   */\n      dup10\n        /* \"#utility.yul\":15129:15146   */\n      and\n        /* \"#utility.yul\":15118:15127   */\n      dup3\n        /* \"#utility.yul\":15099:15147   */\n      tag_155\n      jump\t// in\n    tag_321:\n        /* \"#utility.yul\":15091:15097   */\n      dup4\n        /* \"#utility.yul\":15084:15148   */\n      sstore\n        /* \"#utility.yul\":15006:15162   */\n      pop\n        /* \"#utility.yul\":14983:15162   */\n    tag_320:\n        /* \"#utility.yul\":15208:15209   */\n      0x01\n        /* \"#utility.yul\":15204:15205   */\n      0x02\n        /* \"#utility.yul\":15196:15202   */\n      dup9\n        /* \"#utility.yul\":15192:15206   */\n      mul\n        /* \"#utility.yul\":15188:15210   */\n      add\n        /* \"#utility.yul\":15182:15186   */\n      dup9\n        /* \"#utility.yul\":15175:15211   */\n      sstore\n        /* \"#utility.yul\":14610:15221   */\n      pop\n      pop\n      pop\n        /* \"#utility.yul\":14573:15460   */\n    tag_312:\n      pop\n        /* \"#utility.yul\":14163:15466   */\n      pop\n      pop\n      pop\n        /* \"#utility.yul\":14071:15466   */\n      pop\n      pop\n      jump\t// out\n        /* \"#utility.yul\":15472:15895   */\n    tag_56:\n        /* \"#utility.yul\":15613:15617   */\n      0x00\n        /* \"#utility.yul\":15651:15653   */\n      0x40\n        /* \"#utility.yul\":15640:15649   */\n      dup3\n        /* \"#utility.yul\":15636:15654   */\n      add\n        /* \"#utility.yul\":15628:15654   */\n      swap1\n      pop\n        /* \"#utility.yul\":15664:15735   */\n      tag_323\n        /* \"#utility.yul\":15732:15733   */\n      0x00\n        /* \"#utility.yul\":15721:15730   */\n      dup4\n        /* \"#utility.yul\":15717:15734   */\n      add\n        /* \"#utility.yul\":15708:15714   */\n      dup6\n        /* \"#utility.yul\":15664:15735   */\n      tag_130\n      jump\t// in\n    tag_323:\n        /* \"#utility.yul\":15782:15791   */\n      dup2\n        /* \"#utility.yul\":15776:15780   */\n      dup2\n        /* \"#utility.yul\":15772:15792   */\n      sub\n        /* \"#utility.yul\":15767:15769   */\n      0x20\n        /* \"#utility.yul\":15756:15765   */\n      dup4\n        /* \"#utility.yul\":15752:15770   */\n      add\n        /* \"#utility.yul\":15745:15793   */\n      mstore\n        /* \"#utility.yul\":15810:15888   */\n      tag_324\n        /* \"#utility.yul\":15883:15887   */\n      dup2\n        /* \"#utility.yul\":15874:15880   */\n      dup5\n        /* \"#utility.yul\":15810:15888   */\n      tag_129\n      jump\t// in\n    tag_324:\n        /* \"#utility.yul\":15802:15888   */\n      swap1\n      pop\n        /* \"#utility.yul\":15472:15895   */\n      swap4\n      swap3\n      pop\n      pop\n      pop\n      jump\t// out\n        /* \"#utility.yul\":15901:16071   */\n    tag_157:\n        /* \"#utility.yul\":16041:16063   */\n      0x50726f64756974206e6f6e206578697374616e74000000000000000000000000\n        /* \"#utility.yul\":16037:16038   */\n      0x00\n        /* \"#utility.yul\":16029:16035   */\n      dup3\n        /* \"#utility.yul\":16025:16039   */\n      add\n        /* \"#utility.yul\":16018:16064   */\n      mstore\n        /* \"#utility.yul\":15901:16071   */\n      pop\n      jump\t// out\n        /* \"#utility.yul\":16077:16443   */\n    tag_158:\n        /* \"#utility.yul\":16219:16222   */\n      0x00\n        /* \"#utility.yul\":16240:16307   */\n      tag_327\n        /* \"#utility.yul\":16304:16306   */\n      0x14\n        /* \"#utility.yul\":16299:16302   */\n      dup4\n        /* \"#utility.yul\":16240:16307   */\n      tag_127\n      jump\t// in\n    tag_327:\n        /* \"#utility.yul\":16233:16307   */\n      swap2\n      pop\n        /* \"#utility.yul\":16316:16409   */\n      tag_328\n        /* \"#utility.yul\":16405:16408   */\n      dup3\n        /* \"#utility.yul\":16316:16409   */\n      tag_157\n      jump\t// in\n    tag_328:\n        /* \"#utility.yul\":16434:16436   */\n      0x20\n        /* \"#utility.yul\":16429:16432   */\n      dup3\n        /* \"#utility.yul\":16425:16437   */\n      add\n        /* \"#utility.yul\":16418:16437   */\n      swap1\n      pop\n        /* \"#utility.yul\":16077:16443   */\n      swap2\n      swap1\n      pop\n      jump\t// out\n        /* \"#utility.yul\":16449:16868   */\n    tag_64:\n        /* \"#utility.yul\":16615:16619   */\n      0x00\n        /* \"#utility.yul\":16653:16655   */\n      0x20\n        /* \"#utility.yul\":16642:16651   */\n      dup3\n        /* \"#utility.yul\":16638:16656   */\n      add\n        /* \"#utility.yul\":16630:16656   */\n      swap1\n      pop\n        /* \"#utility.yul\":16702:16711   */\n      dup2\n        /* \"#utility.yul\":16696:16700   */\n      dup2\n        /* \"#utility.yul\":16692:16712   */\n      sub\n        /* \"#utility.yul\":16688:16689   */\n      0x00\n        /* \"#utility.yul\":16677:16686   */\n      dup4\n        /* \"#utility.yul\":16673:16690   */\n      add\n        /* \"#utility.yul\":16666:16713   */\n      mstore\n        /* \"#utility.yul\":16730:16861   */\n      tag_330\n        /* \"#utility.yul\":16856:16860   */\n      dup2\n        /* \"#utility.yul\":16730:16861   */\n      tag_158\n      jump\t// in\n    tag_330:\n        /* \"#utility.yul\":16722:16861   */\n      swap1\n      pop\n        /* \"#utility.yul\":16449:16868   */\n      swap2\n      swap1\n      pop\n      jump\t// out\n\n    auxdata: 0xa2646970667358221220079d77abf4d4927767fd6a94526c2d2c641b5a87091e1e2eea4bfd29b7854ff164736f6c634300081a0033\n}\n",
				"bytecode": {
					"linkReferences": {},
					"object": "6080604052348015600e575f80fd5b503360025f6101000a81548173ffffffffffffffffffffffffffffffffffffffff021916908373ffffffffffffffffffffffffffffffffffffffff1602179055506112328061005c5f395ff3fe608060405234801561000f575f80fd5b5060043610610086575f3560e01c80638da5cb5b116100595780638da5cb5b14610124578063b9db15b414610142578063e0f6ef8714610174578063ed90c7b71461019257610086565b8063125b0b341461008a5780632d561787146100a65780637acc0b20146100c25780638a7adee0146100f4575b5f80fd5b6100a4600480360381019061009f9190610aa4565b6101ae565b005b6100c060048036038101906100bb9190610b10565b6102ec565b005b6100dc60048036038101906100d79190610b90565b610441565b6040516100eb93929190610c2a565b60405180910390f35b61010e60048036038101906101099190610b90565b6104ec565b60405161011b9190610d0a565b60405180910390f35b61012c610609565b6040516101399190610d69565b60405180910390f35b61015c60048036038101906101579190610b90565b61062e565b60405161016b93929190610c2a565b60405180910390f35b61017c61075f565b6040516101899190610d82565b60405180910390f35b6101ac60048036038101906101a79190610b90565b610765565b005b60025f9054906101000a900473ffffffffffffffffffffffffffffffffffffffff1673ffffffffffffffffffffffffffffffffffffffff163373ffffffffffffffffffffffffffffffffffffffff161461023d576040517f08c379a000000000000000000000000000000000000000000000000000000000815260040161023490610e0b565b60405180910390fd5b60015f81548092919061024f90610e56565b91905055506040518060600160405280848152602001838152602001828152505f8060015481526020019081526020015f205f820151815f0190816102949190611097565b5060208201518160010155604082015181600201559050507f259101de1f87b04b9ee0332ce5e3cc508014004bf283424aead6cd8692f5cf98600154846040516102df929190611166565b60405180910390a1505050565b60025f9054906101000a900473ffffffffffffffffffffffffffffffffffffffff1673ffffffffffffffffffffffffffffffffffffffff163373ffffffffffffffffffffffffffffffffffffffff161461037b576040517f08c379a000000000000000000000000000000000000000000000000000000000815260040161037290610e0b565b60405180910390fd5b5f8411801561038c57506001548411155b6103cb576040517f08c379a00000000000000000000000000000000000000000000000000000000081526004016103c2906111de565b60405180910390fd5b5f805f8681526020019081526020015f20905083815f0190816103ee9190611097565b508281600101819055508181600201819055507fdad7092ee1ca215307c34b5dd865bb1f9be7e1f0110d230eaefd78fa4742903e8585604051610432929190611166565b60405180910390a15050505050565b5f602052805f5260405f205f91509050805f01805461045f90610eca565b80601f016020809104026020016040519081016040528092919081815260200182805461048b90610eca565b80156104d65780601f106104ad576101008083540402835291602001916104d6565b820191905f5260205f20905b8154815290600101906020018083116104b957829003601f168201915b5050505050908060010154908060020154905083565b6104f46108ad565b5f8211801561050557506001548211155b610544576040517f08c379a000000000000000000000000000000000000000000000000000000000815260040161053b906111de565b60405180910390fd5b5f808381526020019081526020015f206040518060600160405290815f8201805461056e90610eca565b80601f016020809104026020016040519081016040528092919081815260200182805461059a90610eca565b80156105e55780601f106105bc576101008083540402835291602001916105e5565b820191905f5260205f20905b8154815290600101906020018083116105c857829003601f168201915b50505050508152602001600182015481526020016002820154815250509050919050565b60025f9054906101000a900473ffffffffffffffffffffffffffffffffffffffff1681565b60605f805f8411801561064357506001548411155b610682576040517f08c379a0000000000000000000000000000000000000000000000000000000008152600401610679906111de565b60405180910390fd5b5f805f8681526020019081526020015f206040518060600160405290815f820180546106ad90610eca565b80601f01602080910402602001604051908101604052809291908181526020018280546106d990610eca565b80156107245780601f106106fb57610100808354040283529160200191610724565b820191905f5260205f20905b81548152906001019060200180831161070757829003601f168201915b50505050508152602001600182015481526020016002820154815250509050805f015181602001518260400151935093509350509193909250565b60015481565b60025f9054906101000a900473ffffffffffffffffffffffffffffffffffffffff1673ffffffffffffffffffffffffffffffffffffffff163373ffffffffffffffffffffffffffffffffffffffff16146107f4576040517f08c379a00000000000000000000000000000000000000000000000000000000081526004016107eb90610e0b565b60405180910390fd5b5f8111801561080557506001548111155b610844576040517f08c379a000000000000000000000000000000000000000000000000000000000815260040161083b906111de565b60405180910390fd5b5f808281526020019081526020015f205f8082015f61086391906108cc565b600182015f9055600282015f905550507fc341cf326465fe622f86c468249e8c0cb03ed23ba376a6a34863a1374ac7d769816040516108a29190610d82565b60405180910390a150565b6040518060600160405280606081526020015f81526020015f81525090565b5080546108d890610eca565b5f825580601f106108e95750610906565b601f0160209004905f5260205f20908101906109059190610909565b5b50565b5b80821115610920575f815f90555060010161090a565b5090565b5f604051905090565b5f80fd5b5f80fd5b5f80fd5b5f80fd5b5f601f19601f8301169050919050565b7f4e487b71000000000000000000000000000000000000000000000000000000005f52604160045260245ffd5b6109838261093d565b810181811067ffffffffffffffff821117156109a2576109a161094d565b5b80604052505050565b5f6109b4610924565b90506109c0828261097a565b919050565b5f67ffffffffffffffff8211156109df576109de61094d565b5b6109e88261093d565b9050602081019050919050565b828183375f83830152505050565b5f610a15610a10846109c5565b6109ab565b905082815260208101848484011115610a3157610a30610939565b5b610a3c8482856109f5565b509392505050565b5f82601f830112610a5857610a57610935565b5b8135610a68848260208601610a03565b91505092915050565b5f819050919050565b610a8381610a71565b8114610a8d575f80fd5b50565b5f81359050610a9e81610a7a565b92915050565b5f805f60608486031215610abb57610aba61092d565b5b5f84013567ffffffffffffffff811115610ad857610ad7610931565b5b610ae486828701610a44565b9350506020610af586828701610a90565b9250506040610b0686828701610a90565b9150509250925092565b5f805f8060808587031215610b2857610b2761092d565b5b5f610b3587828801610a90565b945050602085013567ffffffffffffffff811115610b5657610b55610931565b5b610b6287828801610a44565b9350506040610b7387828801610a90565b9250506060610b8487828801610a90565b91505092959194509250565b5f60208284031215610ba557610ba461092d565b5b5f610bb284828501610a90565b91505092915050565b5f81519050919050565b5f82825260208201905092915050565b8281835e5f83830152505050565b5f610bed82610bbb565b610bf78185610bc5565b9350610c07818560208601610bd5565b610c108161093d565b840191505092915050565b610c2481610a71565b82525050565b5f6060820190508181035f830152610c428186610be3565b9050610c516020830185610c1b565b610c5e6040830184610c1b565b949350505050565b5f82825260208201905092915050565b5f610c8082610bbb565b610c8a8185610c66565b9350610c9a818560208601610bd5565b610ca38161093d565b840191505092915050565b610cb781610a71565b82525050565b5f606083015f8301518482035f860152610cd78282610c76565b9150506020830151610cec6020860182610cae565b506040830151610cff6040860182610cae565b508091505092915050565b5f6020820190508181035f830152610d228184610cbd565b905092915050565b5f73ffffffffffffffffffffffffffffffffffffffff82169050919050565b5f610d5382610d2a565b9050919050565b610d6381610d49565b82525050565b5f602082019050610d7c5f830184610d5a565b92915050565b5f602082019050610d955f830184610c1b565b92915050565b7f5365756c206c652070726f7072696574616972652070657574206566666563745f8201527f75657220636574746520616374696f6e00000000000000000000000000000000602082015250565b5f610df5603083610bc5565b9150610e0082610d9b565b604082019050919050565b5f6020820190508181035f830152610e2281610de9565b9050919050565b7f4e487b71000000000000000000000000000000000000000000000000000000005f52601160045260245ffd5b5f610e6082610a71565b91507fffffffffffffffffffffffffffffffffffffffffffffffffffffffffffffffff8203610e9257610e91610e29565b5b600182019050919050565b7f4e487b71000000000000000000000000000000000000000000000000000000005f52602260045260245ffd5b5f6002820490506001821680610ee157607f821691505b602082108103610ef457610ef3610e9d565b5b50919050565b5f819050815f5260205f209050919050565b5f6020601f8301049050919050565b5f82821b905092915050565b5f60088302610f567fffffffffffffffffffffffffffffffffffffffffffffffffffffffffffffffff82610f1b565b610f608683610f1b565b95508019841693508086168417925050509392505050565b5f819050919050565b5f610f9b610f96610f9184610a71565b610f78565b610a71565b9050919050565b5f819050919050565b610fb483610f81565b610fc8610fc082610fa2565b848454610f27565b825550505050565b5f90565b610fdc610fd0565b610fe7818484610fab565b505050565b5b8181101561100a57610fff5f82610fd4565b600181019050610fed565b5050565b601f82111561104f5761102081610efa565b61102984610f0c565b81016020851015611038578190505b61104c61104485610f0c565b830182610fec565b50505b505050565b5f82821c905092915050565b5f61106f5f1984600802611054565b1980831691505092915050565b5f6110878383611060565b9150826002028217905092915050565b6110a082610bbb565b67ffffffffffffffff8111156110b9576110b861094d565b5b6110c38254610eca565b6110ce82828561100e565b5f60209050601f8311600181146110ff575f84156110ed578287015190505b6110f7858261107c565b86555061115e565b601f19841661110d86610efa565b5f5b828110156111345784890151825560018201915060208501945060208101905061110f565b86831015611151578489015161114d601f891682611060565b8355505b6001600288020188555050505b505050505050565b5f6040820190506111795f830185610c1b565b818103602083015261118b8184610be3565b90509392505050565b7f50726f64756974206e6f6e206578697374616e740000000000000000000000005f82015250565b5f6111c8601483610bc5565b91506111d382611194565b602082019050919050565b5f6020820190508181035f8301526111f5816111bc565b905091905056fea2646970667358221220079d77abf4d4927767fd6a94526c2d2c641b5a87091e1e2eea4bfd29b7854ff164736f6c634300081a0033",
					"opcodes": "PUSH1 0x80 PUSH1 0x40 MSTORE CALLVALUE DUP1 ISZERO PUSH1 0xE JUMPI PUSH0 DUP1 REVERT JUMPDEST POP CALLER PUSH1 0x2 PUSH0 PUSH2 0x100 EXP DUP2 SLOAD DUP2 PUSH20 0xFFFFFFFFFFFFFFFFFFFFFFFFFFFFFFFFFFFFFFFF MUL NOT AND SWAP1 DUP4 PUSH20 0xFFFFFFFFFFFFFFFFFFFFFFFFFFFFFFFFFFFFFFFF AND MUL OR SWAP1 SSTORE POP PUSH2 0x1232 DUP1 PUSH2 0x5C PUSH0 CODECOPY PUSH0 RETURN INVALID PUSH1 0x80 PUSH1 0x40 MSTORE CALLVALUE DUP1 ISZERO PUSH2 0xF JUMPI PUSH0 DUP1 REVERT JUMPDEST POP PUSH1 0x4 CALLDATASIZE LT PUSH2 0x86 JUMPI PUSH0 CALLDATALOAD PUSH1 0xE0 SHR DUP1 PUSH4 0x8DA5CB5B GT PUSH2 0x59 JUMPI DUP1 PUSH4 0x8DA5CB5B EQ PUSH2 0x124 JUMPI DUP1 PUSH4 0xB9DB15B4 EQ PUSH2 0x142 JUMPI DUP1 PUSH4 0xE0F6EF87 EQ PUSH2 0x174 JUMPI DUP1 PUSH4 0xED90C7B7 EQ PUSH2 0x192 JUMPI PUSH2 0x86 JUMP JUMPDEST DUP1 PUSH4 0x125B0B34 EQ PUSH2 0x8A JUMPI DUP1 PUSH4 0x2D561787 EQ PUSH2 0xA6 JUMPI DUP1 PUSH4 0x7ACC0B20 EQ PUSH2 0xC2 JUMPI DUP1 PUSH4 0x8A7ADEE0 EQ PUSH2 0xF4 JUMPI JUMPDEST PUSH0 DUP1 REVERT JUMPDEST PUSH2 0xA4 PUSH1 0x4 DUP1 CALLDATASIZE SUB DUP2 ADD SWAP1 PUSH2 0x9F SWAP2 SWAP1 PUSH2 0xAA4 JUMP JUMPDEST PUSH2 0x1AE JUMP JUMPDEST STOP JUMPDEST PUSH2 0xC0 PUSH1 0x4 DUP1 CALLDATASIZE SUB DUP2 ADD SWAP1 PUSH2 0xBB SWAP2 SWAP1 PUSH2 0xB10 JUMP JUMPDEST PUSH2 0x2EC JUMP JUMPDEST STOP JUMPDEST PUSH2 0xDC PUSH1 0x4 DUP1 CALLDATASIZE SUB DUP2 ADD SWAP1 PUSH2 0xD7 SWAP2 SWAP1 PUSH2 0xB90 JUMP JUMPDEST PUSH2 0x441 JUMP JUMPDEST PUSH1 0x40 MLOAD PUSH2 0xEB SWAP4 SWAP3 SWAP2 SWAP1 PUSH2 0xC2A JUMP JUMPDEST PUSH1 0x40 MLOAD DUP1 SWAP2 SUB SWAP1 RETURN JUMPDEST PUSH2 0x10E PUSH1 0x4 DUP1 CALLDATASIZE SUB DUP2 ADD SWAP1 PUSH2 0x109 SWAP2 SWAP1 PUSH2 0xB90 JUMP JUMPDEST PUSH2 0x4EC JUMP JUMPDEST PUSH1 0x40 MLOAD PUSH2 0x11B SWAP2 SWAP1 PUSH2 0xD0A JUMP JUMPDEST PUSH1 0x40 MLOAD DUP1 SWAP2 SUB SWAP1 RETURN JUMPDEST PUSH2 0x12C PUSH2 0x609 JUMP JUMPDEST PUSH1 0x40 MLOAD PUSH2 0x139 SWAP2 SWAP1 PUSH2 0xD69 JUMP JUMPDEST PUSH1 0x40 MLOAD DUP1 SWAP2 SUB SWAP1 RETURN JUMPDEST PUSH2 0x15C PUSH1 0x4 DUP1 CALLDATASIZE SUB DUP2 ADD SWAP1 PUSH2 0x157 SWAP2 SWAP1 PUSH2 0xB90 JUMP JUMPDEST PUSH2 0x62E JUMP JUMPDEST PUSH1 0x40 MLOAD PUSH2 0x16B SWAP4 SWAP3 SWAP2 SWAP1 PUSH2 0xC2A JUMP JUMPDEST PUSH1 0x40 MLOAD DUP1 SWAP2 SUB SWAP1 RETURN JUMPDEST PUSH2 0x17C PUSH2 0x75F JUMP JUMPDEST PUSH1 0x40 MLOAD PUSH2 0x189 SWAP2 SWAP1 PUSH2 0xD82 JUMP JUMPDEST PUSH1 0x40 MLOAD DUP1 SWAP2 SUB SWAP1 RETURN JUMPDEST PUSH2 0x1AC PUSH1 0x4 DUP1 CALLDATASIZE SUB DUP2 ADD SWAP1 PUSH2 0x1A7 SWAP2 SWAP1 PUSH2 0xB90 JUMP JUMPDEST PUSH2 0x765 JUMP JUMPDEST STOP JUMPDEST PUSH1 0x2 PUSH0 SWAP1 SLOAD SWAP1 PUSH2 0x100 EXP SWAP1 DIV PUSH20 0xFFFFFFFFFFFFFFFFFFFFFFFFFFFFFFFFFFFFFFFF AND PUSH20 0xFFFFFFFFFFFFFFFFFFFFFFFFFFFFFFFFFFFFFFFF AND CALLER PUSH20 0xFFFFFFFFFFFFFFFFFFFFFFFFFFFFFFFFFFFFFFFF AND EQ PUSH2 0x23D JUMPI PUSH1 0x40 MLOAD PUSH32 0x8C379A000000000000000000000000000000000000000000000000000000000 DUP2 MSTORE PUSH1 0x4 ADD PUSH2 0x234 SWAP1 PUSH2 0xE0B JUMP JUMPDEST PUSH1 0x40 MLOAD DUP1 SWAP2 SUB SWAP1 REVERT JUMPDEST PUSH1 0x1 PUSH0 DUP2 SLOAD DUP1 SWAP3 SWAP2 SWAP1 PUSH2 0x24F SWAP1 PUSH2 0xE56 JUMP JUMPDEST SWAP2 SWAP1 POP SSTORE POP PUSH1 0x40 MLOAD DUP1 PUSH1 0x60 ADD PUSH1 0x40 MSTORE DUP1 DUP5 DUP2 MSTORE PUSH1 0x20 ADD DUP4 DUP2 MSTORE PUSH1 0x20 ADD DUP3 DUP2 MSTORE POP PUSH0 DUP1 PUSH1 0x1 SLOAD DUP2 MSTORE PUSH1 0x20 ADD SWAP1 DUP2 MSTORE PUSH1 0x20 ADD PUSH0 KECCAK256 PUSH0 DUP3 ADD MLOAD DUP2 PUSH0 ADD SWAP1 DUP2 PUSH2 0x294 SWAP2 SWAP1 PUSH2 0x1097 JUMP JUMPDEST POP PUSH1 0x20 DUP3 ADD MLOAD DUP2 PUSH1 0x1 ADD SSTORE PUSH1 0x40 DUP3 ADD MLOAD DUP2 PUSH1 0x2 ADD SSTORE SWAP1 POP POP PUSH32 0x259101DE1F87B04B9EE0332CE5E3CC508014004BF283424AEAD6CD8692F5CF98 PUSH1 0x1 SLOAD DUP5 PUSH1 0x40 MLOAD PUSH2 0x2DF SWAP3 SWAP2 SWAP1 PUSH2 0x1166 JUMP JUMPDEST PUSH1 0x40 MLOAD DUP1 SWAP2 SUB SWAP1 LOG1 POP POP POP JUMP JUMPDEST PUSH1 0x2 PUSH0 SWAP1 SLOAD SWAP1 PUSH2 0x100 EXP SWAP1 DIV PUSH20 0xFFFFFFFFFFFFFFFFFFFFFFFFFFFFFFFFFFFFFFFF AND PUSH20 0xFFFFFFFFFFFFFFFFFFFFFFFFFFFFFFFFFFFFFFFF AND CALLER PUSH20 0xFFFFFFFFFFFFFFFFFFFFFFFFFFFFFFFFFFFFFFFF AND EQ PUSH2 0x37B JUMPI PUSH1 0x40 MLOAD PUSH32 0x8C379A000000000000000000000000000000000000000000000000000000000 DUP2 MSTORE PUSH1 0x4 ADD PUSH2 0x372 SWAP1 PUSH2 0xE0B JUMP JUMPDEST PUSH1 0x40 MLOAD DUP1 SWAP2 SUB SWAP1 REVERT JUMPDEST PUSH0 DUP5 GT DUP1 ISZERO PUSH2 0x38C JUMPI POP PUSH1 0x1 SLOAD DUP5 GT ISZERO JUMPDEST PUSH2 0x3CB JUMPI PUSH1 0x40 MLOAD PUSH32 0x8C379A000000000000000000000000000000000000000000000000000000000 DUP2 MSTORE PUSH1 0x4 ADD PUSH2 0x3C2 SWAP1 PUSH2 0x11DE JUMP JUMPDEST PUSH1 0x40 MLOAD DUP1 SWAP2 SUB SWAP1 REVERT JUMPDEST PUSH0 DUP1 PUSH0 DUP7 DUP2 MSTORE PUSH1 0x20 ADD SWAP1 DUP2 MSTORE PUSH1 0x20 ADD PUSH0 KECCAK256 SWAP1 POP DUP4 DUP2 PUSH0 ADD SWAP1 DUP2 PUSH2 0x3EE SWAP2 SWAP1 PUSH2 0x1097 JUMP JUMPDEST POP DUP3 DUP2 PUSH1 0x1 ADD DUP2 SWAP1 SSTORE POP DUP2 DUP2 PUSH1 0x2 ADD DUP2 SWAP1 SSTORE POP PUSH32 0xDAD7092EE1CA215307C34B5DD865BB1F9BE7E1F0110D230EAEFD78FA4742903E DUP6 DUP6 PUSH1 0x40 MLOAD PUSH2 0x432 SWAP3 SWAP2 SWAP1 PUSH2 0x1166 JUMP JUMPDEST PUSH1 0x40 MLOAD DUP1 SWAP2 SUB SWAP1 LOG1 POP POP POP POP POP JUMP JUMPDEST PUSH0 PUSH1 0x20 MSTORE DUP1 PUSH0 MSTORE PUSH1 0x40 PUSH0 KECCAK256 PUSH0 SWAP2 POP SWAP1 POP DUP1 PUSH0 ADD DUP1 SLOAD PUSH2 0x45F SWAP1 PUSH2 0xECA JUMP JUMPDEST DUP1 PUSH1 0x1F ADD PUSH1 0x20 DUP1 SWAP2 DIV MUL PUSH1 0x20 ADD PUSH1 0x40 MLOAD SWAP1 DUP2 ADD PUSH1 0x40 MSTORE DUP1 SWAP3 SWAP2 SWAP1 DUP2 DUP2 MSTORE PUSH1 0x20 ADD DUP3 DUP1 SLOAD PUSH2 0x48B SWAP1 PUSH2 0xECA JUMP JUMPDEST DUP1 ISZERO PUSH2 0x4D6 JUMPI DUP1 PUSH1 0x1F LT PUSH2 0x4AD JUMPI PUSH2 0x100 DUP1 DUP4 SLOAD DIV MUL DUP4 MSTORE SWAP2 PUSH1 0x20 ADD SWAP2 PUSH2 0x4D6 JUMP JUMPDEST DUP3 ADD SWAP2 SWAP1 PUSH0 MSTORE PUSH1 0x20 PUSH0 KECCAK256 SWAP1 JUMPDEST DUP2 SLOAD DUP2 MSTORE SWAP1 PUSH1 0x1 ADD SWAP1 PUSH1 0x20 ADD DUP1 DUP4 GT PUSH2 0x4B9 JUMPI DUP3 SWAP1 SUB PUSH1 0x1F AND DUP3 ADD SWAP2 JUMPDEST POP POP POP POP POP SWAP1 DUP1 PUSH1 0x1 ADD SLOAD SWAP1 DUP1 PUSH1 0x2 ADD SLOAD SWAP1 POP DUP4 JUMP JUMPDEST PUSH2 0x4F4 PUSH2 0x8AD JUMP JUMPDEST PUSH0 DUP3 GT DUP1 ISZERO PUSH2 0x505 JUMPI POP PUSH1 0x1 SLOAD DUP3 GT ISZERO JUMPDEST PUSH2 0x544 JUMPI PUSH1 0x40 MLOAD PUSH32 0x8C379A000000000000000000000000000000000000000000000000000000000 DUP2 MSTORE PUSH1 0x4 ADD PUSH2 0x53B SWAP1 PUSH2 0x11DE JUMP JUMPDEST PUSH1 0x40 MLOAD DUP1 SWAP2 SUB SWAP1 REVERT JUMPDEST PUSH0 DUP1 DUP4 DUP2 MSTORE PUSH1 0x20 ADD SWAP1 DUP2 MSTORE PUSH1 0x20 ADD PUSH0 KECCAK256 PUSH1 0x40 MLOAD DUP1 PUSH1 0x60 ADD PUSH1 0x40 MSTORE SWAP1 DUP2 PUSH0 DUP3 ADD DUP1 SLOAD PUSH2 0x56E SWAP1 PUSH2 0xECA JUMP JUMPDEST DUP1 PUSH1 0x1F ADD PUSH1 0x20 DUP1 SWAP2 DIV MUL PUSH1 0x20 ADD PUSH1 0x40 MLOAD SWAP1 DUP2 ADD PUSH1 0x40 MSTORE DUP1 SWAP3 SWAP2 SWAP1 DUP2 DUP2 MSTORE PUSH1 0x20 ADD DUP3 DUP1 SLOAD PUSH2 0x59A SWAP1 PUSH2 0xECA JUMP JUMPDEST DUP1 ISZERO PUSH2 0x5E5 JUMPI DUP1 PUSH1 0x1F LT PUSH2 0x5BC JUMPI PUSH2 0x100 DUP1 DUP4 SLOAD DIV MUL DUP4 MSTORE SWAP2 PUSH1 0x20 ADD SWAP2 PUSH2 0x5E5 JUMP JUMPDEST DUP3 ADD SWAP2 SWAP1 PUSH0 MSTORE PUSH1 0x20 PUSH0 KECCAK256 SWAP1 JUMPDEST DUP2 SLOAD DUP2 MSTORE SWAP1 PUSH1 0x1 ADD SWAP1 PUSH1 0x20 ADD DUP1 DUP4 GT PUSH2 0x5C8 JUMPI DUP3 SWAP1 SUB PUSH1 0x1F AND DUP3 ADD SWAP2 JUMPDEST POP POP POP POP POP DUP2 MSTORE PUSH1 0x20 ADD PUSH1 0x1 DUP3 ADD SLOAD DUP2 MSTORE PUSH1 0x20 ADD PUSH1 0x2 DUP3 ADD SLOAD DUP2 MSTORE POP POP SWAP1 POP SWAP2 SWAP1 POP JUMP JUMPDEST PUSH1 0x2 PUSH0 SWAP1 SLOAD SWAP1 PUSH2 0x100 EXP SWAP1 DIV PUSH20 0xFFFFFFFFFFFFFFFFFFFFFFFFFFFFFFFFFFFFFFFF AND DUP2 JUMP JUMPDEST PUSH1 0x60 PUSH0 DUP1 PUSH0 DUP5 GT DUP1 ISZERO PUSH2 0x643 JUMPI POP PUSH1 0x1 SLOAD DUP5 GT ISZERO JUMPDEST PUSH2 0x682 JUMPI PUSH1 0x40 MLOAD PUSH32 0x8C379A000000000000000000000000000000000000000000000000000000000 DUP2 MSTORE PUSH1 0x4 ADD PUSH2 0x679 SWAP1 PUSH2 0x11DE JUMP JUMPDEST PUSH1 0x40 MLOAD DUP1 SWAP2 SUB SWAP1 REVERT JUMPDEST PUSH0 DUP1 PUSH0 DUP7 DUP2 MSTORE PUSH1 0x20 ADD SWAP1 DUP2 MSTORE PUSH1 0x20 ADD PUSH0 KECCAK256 PUSH1 0x40 MLOAD DUP1 PUSH1 0x60 ADD PUSH1 0x40 MSTORE SWAP1 DUP2 PUSH0 DUP3 ADD DUP1 SLOAD PUSH2 0x6AD SWAP1 PUSH2 0xECA JUMP JUMPDEST DUP1 PUSH1 0x1F ADD PUSH1 0x20 DUP1 SWAP2 DIV MUL PUSH1 0x20 ADD PUSH1 0x40 MLOAD SWAP1 DUP2 ADD PUSH1 0x40 MSTORE DUP1 SWAP3 SWAP2 SWAP1 DUP2 DUP2 MSTORE PUSH1 0x20 ADD DUP3 DUP1 SLOAD PUSH2 0x6D9 SWAP1 PUSH2 0xECA JUMP JUMPDEST DUP1 ISZERO PUSH2 0x724 JUMPI DUP1 PUSH1 0x1F LT PUSH2 0x6FB JUMPI PUSH2 0x100 DUP1 DUP4 SLOAD DIV MUL DUP4 MSTORE SWAP2 PUSH1 0x20 ADD SWAP2 PUSH2 0x724 JUMP JUMPDEST DUP3 ADD SWAP2 SWAP1 PUSH0 MSTORE PUSH1 0x20 PUSH0 KECCAK256 SWAP1 JUMPDEST DUP2 SLOAD DUP2 MSTORE SWAP1 PUSH1 0x1 ADD SWAP1 PUSH1 0x20 ADD DUP1 DUP4 GT PUSH2 0x707 JUMPI DUP3 SWAP1 SUB PUSH1 0x1F AND DUP3 ADD SWAP2 JUMPDEST POP POP POP POP POP DUP2 MSTORE PUSH1 0x20 ADD PUSH1 0x1 DUP3 ADD SLOAD DUP2 MSTORE PUSH1 0x20 ADD PUSH1 0x2 DUP3 ADD SLOAD DUP2 MSTORE POP POP SWAP1 POP DUP1 PUSH0 ADD MLOAD DUP2 PUSH1 0x20 ADD MLOAD DUP3 PUSH1 0x40 ADD MLOAD SWAP4 POP SWAP4 POP SWAP4 POP POP SWAP2 SWAP4 SWAP1 SWAP3 POP JUMP JUMPDEST PUSH1 0x1 SLOAD DUP2 JUMP JUMPDEST PUSH1 0x2 PUSH0 SWAP1 SLOAD SWAP1 PUSH2 0x100 EXP SWAP1 DIV PUSH20 0xFFFFFFFFFFFFFFFFFFFFFFFFFFFFFFFFFFFFFFFF AND PUSH20 0xFFFFFFFFFFFFFFFFFFFFFFFFFFFFFFFFFFFFFFFF AND CALLER PUSH20 0xFFFFFFFFFFFFFFFFFFFFFFFFFFFFFFFFFFFFFFFF AND EQ PUSH2 0x7F4 JUMPI PUSH1 0x40 MLOAD PUSH32 0x8C379A000000000000000000000000000000000000000000000000000000000 DUP2 MSTORE PUSH1 0x4 ADD PUSH2 0x7EB SWAP1 PUSH2 0xE0B JUMP JUMPDEST PUSH1 0x40 MLOAD DUP1 SWAP2 SUB SWAP1 REVERT JUMPDEST PUSH0 DUP2 GT DUP1 ISZERO PUSH2 0x805 JUMPI POP PUSH1 0x1 SLOAD DUP2 GT ISZERO JUMPDEST PUSH2 0x844 JUMPI PUSH1 0x40 MLOAD PUSH32 0x8C379A000000000000000000000000000000000000000000000000000000000 DUP2 MSTORE PUSH1 0x4 ADD PUSH2 0x83B SWAP1 PUSH2 0x11DE JUMP JUMPDEST PUSH1 0x40 MLOAD DUP1 SWAP2 SUB SWAP1 REVERT JUMPDEST PUSH0 DUP1 DUP3 DUP2 MSTORE PUSH1 0x20 ADD SWAP1 DUP2 MSTORE PUSH1 0x20 ADD PUSH0 KECCAK256 PUSH0 DUP1 DUP3 ADD PUSH0 PUSH2 0x863 SWAP2 SWAP1 PUSH2 0x8CC JUMP JUMPDEST PUSH1 0x1 DUP3 ADD PUSH0 SWAP1 SSTORE PUSH1 0x2 DUP3 ADD PUSH0 SWAP1 SSTORE POP POP PUSH32 0xC341CF326465FE622F86C468249E8C0CB03ED23BA376A6A34863A1374AC7D769 DUP2 PUSH1 0x40 MLOAD PUSH2 0x8A2 SWAP2 SWAP1 PUSH2 0xD82 JUMP JUMPDEST PUSH1 0x40 MLOAD DUP1 SWAP2 SUB SWAP1 LOG1 POP JUMP JUMPDEST PUSH1 0x40 MLOAD DUP1 PUSH1 0x60 ADD PUSH1 0x40 MSTORE DUP1 PUSH1 0x60 DUP2 MSTORE PUSH1 0x20 ADD PUSH0 DUP2 MSTORE PUSH1 0x20 ADD PUSH0 DUP2 MSTORE POP SWAP1 JUMP JUMPDEST POP DUP1 SLOAD PUSH2 0x8D8 SWAP1 PUSH2 0xECA JUMP JUMPDEST PUSH0 DUP3 SSTORE DUP1 PUSH1 0x1F LT PUSH2 0x8E9 JUMPI POP PUSH2 0x906 JUMP JUMPDEST PUSH1 0x1F ADD PUSH1 0x20 SWAP1 DIV SWAP1 PUSH0 MSTORE PUSH1 0x20 PUSH0 KECCAK256 SWAP1 DUP2 ADD SWAP1 PUSH2 0x905 SWAP2 SWAP1 PUSH2 0x909 JUMP JUMPDEST JUMPDEST POP JUMP JUMPDEST JUMPDEST DUP1 DUP3 GT ISZERO PUSH2 0x920 JUMPI PUSH0 DUP2 PUSH0 SWAP1 SSTORE POP PUSH1 0x1 ADD PUSH2 0x90A JUMP JUMPDEST POP SWAP1 JUMP JUMPDEST PUSH0 PUSH1 0x40 MLOAD SWAP1 POP SWAP1 JUMP JUMPDEST PUSH0 DUP1 REVERT JUMPDEST PUSH0 DUP1 REVERT JUMPDEST PUSH0 DUP1 REVERT JUMPDEST PUSH0 DUP1 REVERT JUMPDEST PUSH0 PUSH1 0x1F NOT PUSH1 0x1F DUP4 ADD AND SWAP1 POP SWAP2 SWAP1 POP JUMP JUMPDEST PUSH32 0x4E487B7100000000000000000000000000000000000000000000000000000000 PUSH0 MSTORE PUSH1 0x41 PUSH1 0x4 MSTORE PUSH1 0x24 PUSH0 REVERT JUMPDEST PUSH2 0x983 DUP3 PUSH2 0x93D JUMP JUMPDEST DUP2 ADD DUP2 DUP2 LT PUSH8 0xFFFFFFFFFFFFFFFF DUP3 GT OR ISZERO PUSH2 0x9A2 JUMPI PUSH2 0x9A1 PUSH2 0x94D JUMP JUMPDEST JUMPDEST DUP1 PUSH1 0x40 MSTORE POP POP POP JUMP JUMPDEST PUSH0 PUSH2 0x9B4 PUSH2 0x924 JUMP JUMPDEST SWAP1 POP PUSH2 0x9C0 DUP3 DUP3 PUSH2 0x97A JUMP JUMPDEST SWAP2 SWAP1 POP JUMP JUMPDEST PUSH0 PUSH8 0xFFFFFFFFFFFFFFFF DUP3 GT ISZERO PUSH2 0x9DF JUMPI PUSH2 0x9DE PUSH2 0x94D JUMP JUMPDEST JUMPDEST PUSH2 0x9E8 DUP3 PUSH2 0x93D JUMP JUMPDEST SWAP1 POP PUSH1 0x20 DUP2 ADD SWAP1 POP SWAP2 SWAP1 POP JUMP JUMPDEST DUP3 DUP2 DUP4 CALLDATACOPY PUSH0 DUP4 DUP4 ADD MSTORE POP POP POP JUMP JUMPDEST PUSH0 PUSH2 0xA15 PUSH2 0xA10 DUP5 PUSH2 0x9C5 JUMP JUMPDEST PUSH2 0x9AB JUMP JUMPDEST SWAP1 POP DUP3 DUP2 MSTORE PUSH1 0x20 DUP2 ADD DUP5 DUP5 DUP5 ADD GT ISZERO PUSH2 0xA31 JUMPI PUSH2 0xA30 PUSH2 0x939 JUMP JUMPDEST JUMPDEST PUSH2 0xA3C DUP5 DUP3 DUP6 PUSH2 0x9F5 JUMP JUMPDEST POP SWAP4 SWAP3 POP POP POP JUMP JUMPDEST PUSH0 DUP3 PUSH1 0x1F DUP4 ADD SLT PUSH2 0xA58 JUMPI PUSH2 0xA57 PUSH2 0x935 JUMP JUMPDEST JUMPDEST DUP2 CALLDATALOAD PUSH2 0xA68 DUP5 DUP3 PUSH1 0x20 DUP7 ADD PUSH2 0xA03 JUMP JUMPDEST SWAP2 POP POP SWAP3 SWAP2 POP POP JUMP JUMPDEST PUSH0 DUP2 SWAP1 POP SWAP2 SWAP1 POP JUMP JUMPDEST PUSH2 0xA83 DUP2 PUSH2 0xA71 JUMP JUMPDEST DUP2 EQ PUSH2 0xA8D JUMPI PUSH0 DUP1 REVERT JUMPDEST POP JUMP JUMPDEST PUSH0 DUP2 CALLDATALOAD SWAP1 POP PUSH2 0xA9E DUP2 PUSH2 0xA7A JUMP JUMPDEST SWAP3 SWAP2 POP POP JUMP JUMPDEST PUSH0 DUP1 PUSH0 PUSH1 0x60 DUP5 DUP7 SUB SLT ISZERO PUSH2 0xABB JUMPI PUSH2 0xABA PUSH2 0x92D JUMP JUMPDEST JUMPDEST PUSH0 DUP5 ADD CALLDATALOAD PUSH8 0xFFFFFFFFFFFFFFFF DUP2 GT ISZERO PUSH2 0xAD8 JUMPI PUSH2 0xAD7 PUSH2 0x931 JUMP JUMPDEST JUMPDEST PUSH2 0xAE4 DUP7 DUP3 DUP8 ADD PUSH2 0xA44 JUMP JUMPDEST SWAP4 POP POP PUSH1 0x20 PUSH2 0xAF5 DUP7 DUP3 DUP8 ADD PUSH2 0xA90 JUMP JUMPDEST SWAP3 POP POP PUSH1 0x40 PUSH2 0xB06 DUP7 DUP3 DUP8 ADD PUSH2 0xA90 JUMP JUMPDEST SWAP2 POP POP SWAP3 POP SWAP3 POP SWAP3 JUMP JUMPDEST PUSH0 DUP1 PUSH0 DUP1 PUSH1 0x80 DUP6 DUP8 SUB SLT ISZERO PUSH2 0xB28 JUMPI PUSH2 0xB27 PUSH2 0x92D JUMP JUMPDEST JUMPDEST PUSH0 PUSH2 0xB35 DUP8 DUP3 DUP9 ADD PUSH2 0xA90 JUMP JUMPDEST SWAP5 POP POP PUSH1 0x20 DUP6 ADD CALLDATALOAD PUSH8 0xFFFFFFFFFFFFFFFF DUP2 GT ISZERO PUSH2 0xB56 JUMPI PUSH2 0xB55 PUSH2 0x931 JUMP JUMPDEST JUMPDEST PUSH2 0xB62 DUP8 DUP3 DUP9 ADD PUSH2 0xA44 JUMP JUMPDEST SWAP4 POP POP PUSH1 0x40 PUSH2 0xB73 DUP8 DUP3 DUP9 ADD PUSH2 0xA90 JUMP JUMPDEST SWAP3 POP POP PUSH1 0x60 PUSH2 0xB84 DUP8 DUP3 DUP9 ADD PUSH2 0xA90 JUMP JUMPDEST SWAP2 POP POP SWAP3 SWAP6 SWAP2 SWAP5 POP SWAP3 POP JUMP JUMPDEST PUSH0 PUSH1 0x20 DUP3 DUP5 SUB SLT ISZERO PUSH2 0xBA5 JUMPI PUSH2 0xBA4 PUSH2 0x92D JUMP JUMPDEST JUMPDEST PUSH0 PUSH2 0xBB2 DUP5 DUP3 DUP6 ADD PUSH2 0xA90 JUMP JUMPDEST SWAP2 POP POP SWAP3 SWAP2 POP POP JUMP JUMPDEST PUSH0 DUP2 MLOAD SWAP1 POP SWAP2 SWAP1 POP JUMP JUMPDEST PUSH0 DUP3 DUP3 MSTORE PUSH1 0x20 DUP3 ADD SWAP1 POP SWAP3 SWAP2 POP POP JUMP JUMPDEST DUP3 DUP2 DUP4 MCOPY PUSH0 DUP4 DUP4 ADD MSTORE POP POP POP JUMP JUMPDEST PUSH0 PUSH2 0xBED DUP3 PUSH2 0xBBB JUMP JUMPDEST PUSH2 0xBF7 DUP2 DUP6 PUSH2 0xBC5 JUMP JUMPDEST SWAP4 POP PUSH2 0xC07 DUP2 DUP6 PUSH1 0x20 DUP7 ADD PUSH2 0xBD5 JUMP JUMPDEST PUSH2 0xC10 DUP2 PUSH2 0x93D JUMP JUMPDEST DUP5 ADD SWAP2 POP POP SWAP3 SWAP2 POP POP JUMP JUMPDEST PUSH2 0xC24 DUP2 PUSH2 0xA71 JUMP JUMPDEST DUP3 MSTORE POP POP JUMP JUMPDEST PUSH0 PUSH1 0x60 DUP3 ADD SWAP1 POP DUP2 DUP2 SUB PUSH0 DUP4 ADD MSTORE PUSH2 0xC42 DUP2 DUP7 PUSH2 0xBE3 JUMP JUMPDEST SWAP1 POP PUSH2 0xC51 PUSH1 0x20 DUP4 ADD DUP6 PUSH2 0xC1B JUMP JUMPDEST PUSH2 0xC5E PUSH1 0x40 DUP4 ADD DUP5 PUSH2 0xC1B JUMP JUMPDEST SWAP5 SWAP4 POP POP POP POP JUMP JUMPDEST PUSH0 DUP3 DUP3 MSTORE PUSH1 0x20 DUP3 ADD SWAP1 POP SWAP3 SWAP2 POP POP JUMP JUMPDEST PUSH0 PUSH2 0xC80 DUP3 PUSH2 0xBBB JUMP JUMPDEST PUSH2 0xC8A DUP2 DUP6 PUSH2 0xC66 JUMP JUMPDEST SWAP4 POP PUSH2 0xC9A DUP2 DUP6 PUSH1 0x20 DUP7 ADD PUSH2 0xBD5 JUMP JUMPDEST PUSH2 0xCA3 DUP2 PUSH2 0x93D JUMP JUMPDEST DUP5 ADD SWAP2 POP POP SWAP3 SWAP2 POP POP JUMP JUMPDEST PUSH2 0xCB7 DUP2 PUSH2 0xA71 JUMP JUMPDEST DUP3 MSTORE POP POP JUMP JUMPDEST PUSH0 PUSH1 0x60 DUP4 ADD PUSH0 DUP4 ADD MLOAD DUP5 DUP3 SUB PUSH0 DUP7 ADD MSTORE PUSH2 0xCD7 DUP3 DUP3 PUSH2 0xC76 JUMP JUMPDEST SWAP2 POP POP PUSH1 0x20 DUP4 ADD MLOAD PUSH2 0xCEC PUSH1 0x20 DUP7 ADD DUP3 PUSH2 0xCAE JUMP JUMPDEST POP PUSH1 0x40 DUP4 ADD MLOAD PUSH2 0xCFF PUSH1 0x40 DUP7 ADD DUP3 PUSH2 0xCAE JUMP JUMPDEST POP DUP1 SWAP2 POP POP SWAP3 SWAP2 POP POP JUMP JUMPDEST PUSH0 PUSH1 0x20 DUP3 ADD SWAP1 POP DUP2 DUP2 SUB PUSH0 DUP4 ADD MSTORE PUSH2 0xD22 DUP2 DUP5 PUSH2 0xCBD JUMP JUMPDEST SWAP1 POP SWAP3 SWAP2 POP POP JUMP JUMPDEST PUSH0 PUSH20 0xFFFFFFFFFFFFFFFFFFFFFFFFFFFFFFFFFFFFFFFF DUP3 AND SWAP1 POP SWAP2 SWAP1 POP JUMP JUMPDEST PUSH0 PUSH2 0xD53 DUP3 PUSH2 0xD2A JUMP JUMPDEST SWAP1 POP SWAP2 SWAP1 POP JUMP JUMPDEST PUSH2 0xD63 DUP2 PUSH2 0xD49 JUMP JUMPDEST DUP3 MSTORE POP POP JUMP JUMPDEST PUSH0 PUSH1 0x20 DUP3 ADD SWAP1 POP PUSH2 0xD7C PUSH0 DUP4 ADD DUP5 PUSH2 0xD5A JUMP JUMPDEST SWAP3 SWAP2 POP POP JUMP JUMPDEST PUSH0 PUSH1 0x20 DUP3 ADD SWAP1 POP PUSH2 0xD95 PUSH0 DUP4 ADD DUP5 PUSH2 0xC1B JUMP JUMPDEST SWAP3 SWAP2 POP POP JUMP JUMPDEST PUSH32 0x5365756C206C652070726F707269657461697265207065757420656666656374 PUSH0 DUP3 ADD MSTORE PUSH32 0x75657220636574746520616374696F6E00000000000000000000000000000000 PUSH1 0x20 DUP3 ADD MSTORE POP JUMP JUMPDEST PUSH0 PUSH2 0xDF5 PUSH1 0x30 DUP4 PUSH2 0xBC5 JUMP JUMPDEST SWAP2 POP PUSH2 0xE00 DUP3 PUSH2 0xD9B JUMP JUMPDEST PUSH1 0x40 DUP3 ADD SWAP1 POP SWAP2 SWAP1 POP JUMP JUMPDEST PUSH0 PUSH1 0x20 DUP3 ADD SWAP1 POP DUP2 DUP2 SUB PUSH0 DUP4 ADD MSTORE PUSH2 0xE22 DUP2 PUSH2 0xDE9 JUMP JUMPDEST SWAP1 POP SWAP2 SWAP1 POP JUMP JUMPDEST PUSH32 0x4E487B7100000000000000000000000000000000000000000000000000000000 PUSH0 MSTORE PUSH1 0x11 PUSH1 0x4 MSTORE PUSH1 0x24 PUSH0 REVERT JUMPDEST PUSH0 PUSH2 0xE60 DUP3 PUSH2 0xA71 JUMP JUMPDEST SWAP2 POP PUSH32 0xFFFFFFFFFFFFFFFFFFFFFFFFFFFFFFFFFFFFFFFFFFFFFFFFFFFFFFFFFFFFFFFF DUP3 SUB PUSH2 0xE92 JUMPI PUSH2 0xE91 PUSH2 0xE29 JUMP JUMPDEST JUMPDEST PUSH1 0x1 DUP3 ADD SWAP1 POP SWAP2 SWAP1 POP JUMP JUMPDEST PUSH32 0x4E487B7100000000000000000000000000000000000000000000000000000000 PUSH0 MSTORE PUSH1 0x22 PUSH1 0x4 MSTORE PUSH1 0x24 PUSH0 REVERT JUMPDEST PUSH0 PUSH1 0x2 DUP3 DIV SWAP1 POP PUSH1 0x1 DUP3 AND DUP1 PUSH2 0xEE1 JUMPI PUSH1 0x7F DUP3 AND SWAP2 POP JUMPDEST PUSH1 0x20 DUP3 LT DUP2 SUB PUSH2 0xEF4 JUMPI PUSH2 0xEF3 PUSH2 0xE9D JUMP JUMPDEST JUMPDEST POP SWAP2 SWAP1 POP JUMP JUMPDEST PUSH0 DUP2 SWAP1 POP DUP2 PUSH0 MSTORE PUSH1 0x20 PUSH0 KECCAK256 SWAP1 POP SWAP2 SWAP1 POP JUMP JUMPDEST PUSH0 PUSH1 0x20 PUSH1 0x1F DUP4 ADD DIV SWAP1 POP SWAP2 SWAP1 POP JUMP JUMPDEST PUSH0 DUP3 DUP3 SHL SWAP1 POP SWAP3 SWAP2 POP POP JUMP JUMPDEST PUSH0 PUSH1 0x8 DUP4 MUL PUSH2 0xF56 PUSH32 0xFFFFFFFFFFFFFFFFFFFFFFFFFFFFFFFFFFFFFFFFFFFFFFFFFFFFFFFFFFFFFFFF DUP3 PUSH2 0xF1B JUMP JUMPDEST PUSH2 0xF60 DUP7 DUP4 PUSH2 0xF1B JUMP JUMPDEST SWAP6 POP DUP1 NOT DUP5 AND SWAP4 POP DUP1 DUP7 AND DUP5 OR SWAP3 POP POP POP SWAP4 SWAP3 POP POP POP JUMP JUMPDEST PUSH0 DUP2 SWAP1 POP SWAP2 SWAP1 POP JUMP JUMPDEST PUSH0 PUSH2 0xF9B PUSH2 0xF96 PUSH2 0xF91 DUP5 PUSH2 0xA71 JUMP JUMPDEST PUSH2 0xF78 JUMP JUMPDEST PUSH2 0xA71 JUMP JUMPDEST SWAP1 POP SWAP2 SWAP1 POP JUMP JUMPDEST PUSH0 DUP2 SWAP1 POP SWAP2 SWAP1 POP JUMP JUMPDEST PUSH2 0xFB4 DUP4 PUSH2 0xF81 JUMP JUMPDEST PUSH2 0xFC8 PUSH2 0xFC0 DUP3 PUSH2 0xFA2 JUMP JUMPDEST DUP5 DUP5 SLOAD PUSH2 0xF27 JUMP JUMPDEST DUP3 SSTORE POP POP POP POP JUMP JUMPDEST PUSH0 SWAP1 JUMP JUMPDEST PUSH2 0xFDC PUSH2 0xFD0 JUMP JUMPDEST PUSH2 0xFE7 DUP2 DUP5 DUP5 PUSH2 0xFAB JUMP JUMPDEST POP POP POP JUMP JUMPDEST JUMPDEST DUP2 DUP2 LT ISZERO PUSH2 0x100A JUMPI PUSH2 0xFFF PUSH0 DUP3 PUSH2 0xFD4 JUMP JUMPDEST PUSH1 0x1 DUP2 ADD SWAP1 POP PUSH2 0xFED JUMP JUMPDEST POP POP JUMP JUMPDEST PUSH1 0x1F DUP3 GT ISZERO PUSH2 0x104F JUMPI PUSH2 0x1020 DUP2 PUSH2 0xEFA JUMP JUMPDEST PUSH2 0x1029 DUP5 PUSH2 0xF0C JUMP JUMPDEST DUP2 ADD PUSH1 0x20 DUP6 LT ISZERO PUSH2 0x1038 JUMPI DUP2 SWAP1 POP JUMPDEST PUSH2 0x104C PUSH2 0x1044 DUP6 PUSH2 0xF0C JUMP JUMPDEST DUP4 ADD DUP3 PUSH2 0xFEC JUMP JUMPDEST POP POP JUMPDEST POP POP POP JUMP JUMPDEST PUSH0 DUP3 DUP3 SHR SWAP1 POP SWAP3 SWAP2 POP POP JUMP JUMPDEST PUSH0 PUSH2 0x106F PUSH0 NOT DUP5 PUSH1 0x8 MUL PUSH2 0x1054 JUMP JUMPDEST NOT DUP1 DUP4 AND SWAP2 POP POP SWAP3 SWAP2 POP POP JUMP JUMPDEST PUSH0 PUSH2 0x1087 DUP4 DUP4 PUSH2 0x1060 JUMP JUMPDEST SWAP2 POP DUP3 PUSH1 0x2 MUL DUP3 OR SWAP1 POP SWAP3 SWAP2 POP POP JUMP JUMPDEST PUSH2 0x10A0 DUP3 PUSH2 0xBBB JUMP JUMPDEST PUSH8 0xFFFFFFFFFFFFFFFF DUP2 GT ISZERO PUSH2 0x10B9 JUMPI PUSH2 0x10B8 PUSH2 0x94D JUMP JUMPDEST JUMPDEST PUSH2 0x10C3 DUP3 SLOAD PUSH2 0xECA JUMP JUMPDEST PUSH2 0x10CE DUP3 DUP3 DUP6 PUSH2 0x100E JUMP JUMPDEST PUSH0 PUSH1 0x20 SWAP1 POP PUSH1 0x1F DUP4 GT PUSH1 0x1 DUP2 EQ PUSH2 0x10FF JUMPI PUSH0 DUP5 ISZERO PUSH2 0x10ED JUMPI DUP3 DUP8 ADD MLOAD SWAP1 POP JUMPDEST PUSH2 0x10F7 DUP6 DUP3 PUSH2 0x107C JUMP JUMPDEST DUP7 SSTORE POP PUSH2 0x115E JUMP JUMPDEST PUSH1 0x1F NOT DUP5 AND PUSH2 0x110D DUP7 PUSH2 0xEFA JUMP JUMPDEST PUSH0 JUMPDEST DUP3 DUP2 LT ISZERO PUSH2 0x1134 JUMPI DUP5 DUP10 ADD MLOAD DUP3 SSTORE PUSH1 0x1 DUP3 ADD SWAP2 POP PUSH1 0x20 DUP6 ADD SWAP5 POP PUSH1 0x20 DUP2 ADD SWAP1 POP PUSH2 0x110F JUMP JUMPDEST DUP7 DUP4 LT ISZERO PUSH2 0x1151 JUMPI DUP5 DUP10 ADD MLOAD PUSH2 0x114D PUSH1 0x1F DUP10 AND DUP3 PUSH2 0x1060 JUMP JUMPDEST DUP4 SSTORE POP JUMPDEST PUSH1 0x1 PUSH1 0x2 DUP9 MUL ADD DUP9 SSTORE POP POP POP JUMPDEST POP POP POP POP POP POP JUMP JUMPDEST PUSH0 PUSH1 0x40 DUP3 ADD SWAP1 POP PUSH2 0x1179 PUSH0 DUP4 ADD DUP6 PUSH2 0xC1B JUMP JUMPDEST DUP2 DUP2 SUB PUSH1 0x20 DUP4 ADD MSTORE PUSH2 0x118B DUP2 DUP5 PUSH2 0xBE3 JUMP JUMPDEST SWAP1 POP SWAP4 SWAP3 POP POP POP JUMP JUMPDEST PUSH32 0x50726F64756974206E6F6E206578697374616E74000000000000000000000000 PUSH0 DUP3 ADD MSTORE POP JUMP JUMPDEST PUSH0 PUSH2 0x11C8 PUSH1 0x14 DUP4 PUSH2 0xBC5 JUMP JUMPDEST SWAP2 POP PUSH2 0x11D3 DUP3 PUSH2 0x1194 JUMP JUMPDEST PUSH1 0x20 DUP3 ADD SWAP1 POP SWAP2 SWAP1 POP JUMP JUMPDEST PUSH0 PUSH1 0x20 DUP3 ADD SWAP1 POP DUP2 DUP2 SUB PUSH0 DUP4 ADD MSTORE PUSH2 0x11F5 DUP2 PUSH2 0x11BC JUMP JUMPDEST SWAP1 POP SWAP2 SWAP1 POP JUMP INVALID LOG2 PUSH5 0x6970667358 0x22 SLT KECCAK256 SMOD SWAP14 PUSH24 0xABF4D4927767FD6A94526C2D2C641B5A87091E1E2EEA4BFD 0x29 0xB7 DUP6 0x4F CALL PUSH5 0x736F6C6343 STOP ADDMOD BYTE STOP CALLER "
				},
				"gasEstimates": {
					"creation": {
						"codeDepositCost": "931600",
						"executionCost": "25231",
						"totalCost": "956831"
					},
					"external": {
						"addProduct(string,uint256,uint256)": "infinite",
						"copyProduct(uint256)": "infinite",
						"deleteProduct(uint256)": "infinite",
						"getProduct(uint256)": "infinite",
						"owner()": "2508",
						"productCount()": "2469",
						"products(uint256)": "infinite",
						"updateProduct(uint256,string,uint256,uint256)": "infinite"
					}
				},
				"methodIdentifiers": {
					"addProduct(string,uint256,uint256)": "125b0b34",
					"copyProduct(uint256)": "8a7adee0",
					"deleteProduct(uint256)": "ed90c7b7",
					"getProduct(uint256)": "b9db15b4",
					"owner()": "8da5cb5b",
					"productCount()": "e0f6ef87",
					"products(uint256)": "7acc0b20",
					"updateProduct(uint256,string,uint256,uint256)": "2d561787"
				}
			},
			"storageLayout": {
				"storage": [
					{
						"astId": 13,
						"contract": "contracts/6_MarcheDecentralise.sol:MarcheDecentralise",
						"label": "products",
						"offset": 0,
						"slot": "0",
						"type": "t_mapping(t_uint256,t_struct(Product)8_storage)"
					},
					{
						"astId": 15,
						"contract": "contracts/6_MarcheDecentralise.sol:MarcheDecentralise",
						"label": "productCount",
						"offset": 0,
						"slot": "1",
						"type": "t_uint256"
					},
					{
						"astId": 17,
						"contract": "contracts/6_MarcheDecentralise.sol:MarcheDecentralise",
						"label": "owner",
						"offset": 0,
						"slot": "2",
						"type": "t_address"
					}
				],
				"types": {
					"t_address": {
						"encoding": "inplace",
						"label": "address",
						"numberOfBytes": "20"
					},
					"t_mapping(t_uint256,t_struct(Product)8_storage)": {
						"encoding": "mapping",
						"key": "t_uint256",
						"label": "mapping(uint256 => struct MarcheDecentralise.Product)",
						"numberOfBytes": "32",
						"value": "t_struct(Product)8_storage"
					},
					"t_string_storage": {
						"encoding": "bytes",
						"label": "string",
						"numberOfBytes": "32"
					},
					"t_struct(Product)8_storage": {
						"encoding": "inplace",
						"label": "struct MarcheDecentralise.Product",
						"members": [
							{
								"astId": 3,
								"contract": "contracts/6_MarcheDecentralise.sol:MarcheDecentralise",
								"label": "name",
								"offset": 0,
								"slot": "0",
								"type": "t_string_storage"
							},
							{
								"astId": 5,
								"contract": "contracts/6_MarcheDecentralise.sol:MarcheDecentralise",
								"label": "price",
								"offset": 0,
								"slot": "1",
								"type": "t_uint256"
							},
							{
								"astId": 7,
								"contract": "contracts/6_MarcheDecentralise.sol:MarcheDecentralise",
								"label": "stock",
								"offset": 0,
								"slot": "2",
								"type": "t_uint256"
							}
						],
						"numberOfBytes": "96"
					},
					"t_uint256": {
						"encoding": "inplace",
						"label": "uint256",
						"numberOfBytes": "32"
					}
				}
			},
			"userdoc": {
				"kind": "user",
				"methods": {},
				"version": 1
			}
		}
	}
}